{
	"data": {
		"bytecode": {
			"linkReferences": {},
			"object": "60806040523480156200001157600080fd5b50620000447fa49807205ce4d355092ef5a8a18f56e8913cf4a201fbe287825b095693c21775336200082060201b60201c565b7fa49807205ce4d355092ef5a8a18f56e8913cf4a201fbe287825b095693c21775600260003373ffffffffffffffffffffffffffffffffffffffff1673ffffffffffffffffffffffffffffffffffffffff16815260200190815260200160002081905550620000da7ffb1e607aaad6cf72e2856e6a77e54638c3076455dbebf8a209c7eca75951b07f336200082060201b60201c565b60008060006101000a81548160ff0219169083151502179055506000600360006101000a81548160ff02191690831515021790555060405180604001604052807fb7164b4e0c319c9c417cc42a9ccf7d237c3ee8b92a9396f332689f6dc95218e681526020017fa49807205ce4d355092ef5a8a18f56e8913cf4a201fbe287825b095693c2177581525060056000737ea3cfefa2b13e493110eded87e2ba72c115bec173ffffffffffffffffffffffffffffffffffffffff1673ffffffffffffffffffffffffffffffffffffffff168152602001908152602001600020600082015181600001556020820151816001015590505060405180604001604052807fbcdd217ceed48f611658c960fde8b0d6693788061a8cddbc82e5351b79b8208981526020016000801b81525060056000721b0a8a4749c70aead435cf7e6da06a7bad1a2d73ffffffffffffffffffffffffffffffffffffffff1673ffffffffffffffffffffffffffffffffffffffff168152602001908152602001600020600082015181600001556020820151816001015590505060405180604001604052807f5a119e2346306ccb9f52d3e5a906bf1ba96ed181c6771d2093b112667da53fa881526020016000801b81525060056000733a528ca83a9d4e167dc9c14690349e3b6fc0205473ffffffffffffffffffffffffffffffffffffffff1673ffffffffffffffffffffffffffffffffffffffff168152602001908152602001600020600082015181600001556020820151816001015590505060405180604001604052807f3ebb4bbd059d56ae7be10c3016fdf469ab7fc2bbfe2de689e914448bfc2d23cb81526020017fa49807205ce4d355092ef5a8a18f56e8913cf4a201fbe287825b095693c21775815250600560007390b08dcfd15447187a72f5e06592b353e5cffa9373ffffffffffffffffffffffffffffffffffffffff1673ffffffffffffffffffffffffffffffffffffffff168152602001908152602001600020600082015181600001556020820151816001015590505060405180604001604052807ff0de0e4b45e805524bd40aaf5531e6d522b92704f4386c8f0e77fbd928be8c8b81526020017fa49807205ce4d355092ef5a8a18f56e8913cf4a201fbe287825b095693c217758152506005600072fc4fbcf0f01553bfc470ff85fca2f3f21e138b73ffffffffffffffffffffffffffffffffffffffff1673ffffffffffffffffffffffffffffffffffffffff168152602001908152602001600020600082015181600001556020820151816001015590505060405180604001604052807f454abe277c1c9702d159627d0ca058d70e88f20618e799d19f5d87b18ce9afaf81526020017fa49807205ce4d355092ef5a8a18f56e8913cf4a201fbe287825b095693c2177581525060056000737a6d0f0f96f39e54abfeba3d1da6f56c921b9cb773ffffffffffffffffffffffffffffffffffffffff1673ffffffffffffffffffffffffffffffffffffffff16815260200190815260200160002060008201518160000155602082015181600101559050506040518060400160405280600681526020017f4c6976656c790000000000000000000000000000000000000000000000000000815250600a90805190602001906200059a929190620008a8565b506040518060400160405280600381526020017f4c564c0000000000000000000000000000000000000000000000000000000000815250600b9080519060200190620005e8929190620008a8565b50633b9aca00600981905550631dcd650060066000737ea3cfefa2b13e493110eded87e2ba72c115bec173ffffffffffffffffffffffffffffffffffffffff1673ffffffffffffffffffffffffffffffffffffffff16815260200190815260200160002081905550630bebc20060066000721b0a8a4749c70aead435cf7e6da06a7bad1a2d73ffffffffffffffffffffffffffffffffffffffff1673ffffffffffffffffffffffffffffffffffffffff168152602001908152602001600020819055506305f5e10060066000733a528ca83a9d4e167dc9c14690349e3b6fc0205473ffffffffffffffffffffffffffffffffffffffff1673ffffffffffffffffffffffffffffffffffffffff168152602001908152602001600020819055506304c4b400600660007390b08dcfd15447187a72f5e06592b353e5cffa9373ffffffffffffffffffffffffffffffffffffffff1673ffffffffffffffffffffffffffffffffffffffff1681526020019081526020016000208190555063042c1d806006600072fc4fbcf0f01553bfc470ff85fca2f3f21e138b73ffffffffffffffffffffffffffffffffffffffff1673ffffffffffffffffffffffffffffffffffffffff168152602001908152602001600020819055506302faf08060066000737a6d0f0f96f39e54abfeba3d1da6f56c921b9cb773ffffffffffffffffffffffffffffffffffffffff1673ffffffffffffffffffffffffffffffffffffffff16815260200190815260200160002081905550620009bd565b604051806040016040528083815260200160011515815250600160008373ffffffffffffffffffffffffffffffffffffffff1673ffffffffffffffffffffffffffffffffffffffff1681526020019081526020016000206000820151816000015560208201518160010160006101000a81548160ff0219169083151502179055509050505050565b828054620008b69062000987565b90600052602060002090601f016020900481019282620008da576000855562000926565b82601f10620008f557805160ff191683800117855562000926565b8280016001018555821562000926579182015b828111156200092557825182559160200191906001019062000908565b5b50905062000935919062000939565b5090565b5b80821115620009545760008160009055506001016200093a565b5090565b7f4e487b7100000000000000000000000000000000000000000000000000000000600052602260045260246000fd5b60006002820490506001821680620009a057607f821691505b60208210811415620009b757620009b662000958565b5b50919050565b61597780620009cd6000396000f3fe6080604052600436106102765760003560e01c806376a67a511161014f578063c9a6b175116100c1578063e0cb990a1161007a578063e0cb990a14610a42578063e8ec1ac314610a7f578063f98df5ca14610aaa578063fa2dabad14610ad5578063fdf021fb14610b00578063feebcf1914610b3d5761027d565b8063c9a6b1751461090c578063cc42aa1714610949578063cd4217c114610974578063ce74f57c146109b1578063d547741f146109dc578063dd62ed3e14610a055761027d565b806391d148541161011357806391d14854146107d657806395d89b4114610813578063a647e8ec1461083e578063a9059cbb14610867578063b8dbf687146108a4578063be5f15fc146108e15761027d565b806376a67a51146106f2578063790aa4a31461071b578063813b705c146107585780638a2ddd03146107815780638e663352146107985761027d565b80634a42549a116101e85780635ba27e25116101ac5780635ba27e25146105ba5780635c975abb146105e557806364e7524d14610610578063681d67741461064d57806370a082311461068a57806375b238fc146106c75761027d565b80634a42549a146104e957806357b001f91461052657806357fbb9df1461054f57806358214c8e14610578578063595c6a67146105a35761027d565b806323b872dd1161023a57806323b872dd1461038d57806324a0dbf7146103ca5780633138155e14610407578063313ce5671461044457806335d7a0521461046f57806348e36e5d146104ac5761027d565b806301ffc9a71461027f57806306fdde03146102bc578063095ea7b3146102e757806318160ddd14610324578063208532391461034f5761027d565b3661027d57005b005b34801561028b57600080fd5b506102a660048036038101906102a1919061520d565b610b66565b6040516102b39190615255565b60405180910390f35b3480156102c857600080fd5b506102d1610de8565b6040516102de9190615309565b60405180910390f35b3480156102f357600080fd5b5061030e600480360381019061030991906153bf565b610e7a565b60405161031b9190615255565b60405180910390f35b34801561033057600080fd5b50610339610f7d565b604051610346919061540e565b60405180910390f35b34801561035b57600080fd5b5061037660048036038101906103719190615429565b610f87565b60405161038492919061546f565b60405180910390f35b34801561039957600080fd5b506103b460048036038101906103af9190615498565b610fb8565b6040516103c19190615255565b60405180910390f35b3480156103d657600080fd5b506103f160048036038101906103ec91906154eb565b611237565b6040516103fe919061540e565b60405180910390f35b34801561041357600080fd5b5061042e60048036038101906104299190615498565b611333565b60405161043b9190615255565b60405180910390f35b34801561045057600080fd5b5061045961178a565b6040516104669190615547565b60405180910390f35b34801561047b57600080fd5b50610496600480360381019061049191906154eb565b611793565b6040516104a3919061540e565b60405180910390f35b3480156104b857600080fd5b506104d360048036038101906104ce9190615429565b61188f565b6040516104e09190615255565b60405180910390f35b3480156104f557600080fd5b50610510600480360381019061050b9190615562565b6118e5565b60405161051d9190615255565b60405180910390f35b34801561053257600080fd5b5061054d60048036038101906105489190615429565b611bce565b005b34801561055b57600080fd5b5061057660048036038101906105719190615429565b611dd1565b005b34801561058457600080fd5b5061058d611e88565b60405161059a91906155b5565b60405180910390f35b3480156105af57600080fd5b506105b8611eac565b005b3480156105c657600080fd5b506105cf611f79565b6040516105dc91906155df565b60405180910390f35b3480156105f157600080fd5b506105fa611f91565b6040516106079190615255565b60405180910390f35b34801561061c57600080fd5b50610637600480360381019061063291906155fa565b611fa8565b6040516106449190615255565b60405180910390f35b34801561065957600080fd5b50610674600480360381019061066f9190615562565b6123bf565b6040516106819190615255565b60405180910390f35b34801561069657600080fd5b506106b160048036038101906106ac9190615429565b612697565b6040516106be919061540e565b60405180910390f35b3480156106d357600080fd5b506106dc6126e0565b6040516106e991906155b5565b60405180910390f35b3480156106fe57600080fd5b5061071960048036038101906107149190615429565b612704565b005b34801561072757600080fd5b50610742600480360381019061073d9190615498565b612907565b60405161074f9190615255565b60405180910390f35b34801561076457600080fd5b5061077f600480360381019061077a9190615429565b612b9d565b005b34801561078d57600080fd5b50610796612d96565b005b3480156107a457600080fd5b506107bf60048036038101906107ba9190615661565b612e63565b6040516107cd9291906156c8565b60405180910390f35b3480156107e257600080fd5b506107fd60048036038101906107f8919061571d565b6131cc565b60405161080a9190615255565b60405180910390f35b34801561081f57600080fd5b506108286131e0565b6040516108359190615309565b60405180910390f35b34801561084a57600080fd5b5061086560048036038101906108609190615661565b613272565b005b34801561087357600080fd5b5061088e600480360381019061088991906153bf565b61355f565b60405161089b9190615255565b60405180910390f35b3480156108b057600080fd5b506108cb60048036038101906108c69190615562565b613714565b6040516108d8919061540e565b60405180910390f35b3480156108ed57600080fd5b506108f6613976565b60405161090391906155df565b60405180910390f35b34801561091857600080fd5b50610933600480360381019061092e9190615429565b61398e565b60405161094091906155b5565b60405180910390f35b34801561095557600080fd5b5061095e6139a6565b60405161096b91906155df565b60405180910390f35b34801561098057600080fd5b5061099b60048036038101906109969190615429565b6139bd565b6040516109a8919061540e565b60405180910390f35b3480156109bd57600080fd5b506109c6613a06565b6040516109d391906155df565b60405180910390f35b3480156109e857600080fd5b50610a0360048036038101906109fe919061571d565b613a1d565b005b348015610a1157600080fd5b50610a2c6004803603810190610a27919061575d565b613a98565b604051610a39919061540e565b60405180910390f35b348015610a4e57600080fd5b50610a696004803603810190610a649190615562565b613b1f565b604051610a769190615255565b60405180910390f35b348015610a8b57600080fd5b50610a94613dc6565b604051610aa191906155df565b60405180910390f35b348015610ab657600080fd5b50610abf613dde565b604051610acc91906155df565b60405180910390f35b348015610ae157600080fd5b50610aea613df6565b604051610af791906155b5565b60405180910390f35b348015610b0c57600080fd5b50610b276004803603810190610b229190615562565b613e1a565b604051610b34919061540e565b60405180910390f35b348015610b4957600080fd5b50610b646004803603810190610b5f919061579d565b61407c565b005b60007f942e8b22000000000000000000000000000000000000000000000000000000007bffffffffffffffffffffffffffffffffffffffffffffffffffffffff1916827bffffffffffffffffffffffffffffffffffffffffffffffffffffffff19161480610c3157507fbb9e0e47000000000000000000000000000000000000000000000000000000007bffffffffffffffffffffffffffffffffffffffffffffffffffffffff1916827bffffffffffffffffffffffffffffffffffffffffffffffffffffffff1916145b80610c9957507f8e663352000000000000000000000000000000000000000000000000000000007bffffffffffffffffffffffffffffffffffffffffffffffffffffffff1916827bffffffffffffffffffffffffffffffffffffffffffffffffffffffff1916145b80610d0157507fa647e8ec000000000000000000000000000000000000000000000000000000007bffffffffffffffffffffffffffffffffffffffffffffffffffffffff1916827bffffffffffffffffffffffffffffffffffffffffffffffffffffffff1916145b80610d6957507fe613f82a000000000000000000000000000000000000000000000000000000007bffffffffffffffffffffffffffffffffffffffffffffffffffffffff1916827bffffffffffffffffffffffffffffffffffffffffffffffffffffffff1916145b80610dd157507f991ebb18000000000000000000000000000000000000000000000000000000007bffffffffffffffffffffffffffffffffffffffffffffffffffffffff1916827bffffffffffffffffffffffffffffffffffffffffffffffffffffffff1916145b80610de15750610de08261424d565b5b9050919050565b6060600a8054610df79061581f565b80601f0160208091040260200160405190810160405280929190818152602001828054610e239061581f565b8015610e705780601f10610e4557610100808354040283529160200191610e70565b820191906000526020600020905b815481529060010190602001808311610e5357829003601f168201915b5050505050905090565b6000610e84611f91565b15610ec657336040517f621c564c000000000000000000000000000000000000000000000000000000008152600401610ebd91906155df565b60405180910390fd5b33610ed08161188f565b15610f1257806040517f621c564c000000000000000000000000000000000000000000000000000000008152600401610f0991906155df565b60405180910390fd5b336000801b610f20826142c7565b6000015414610f6657806040517f621c564c000000000000000000000000000000000000000000000000000000008152600401610f5d91906155df565b60405180910390fd5b610f7133868661430f565b60019250505092915050565b6000600954905090565b60016020528060005260406000206000915090508060000154908060010160009054906101000a900460ff16905082565b6000610fc2611f91565b1561100457336040517f621c564c000000000000000000000000000000000000000000000000000000008152600401610ffb91906155df565b60405180910390fd5b838361100f8261188f565b1561105157816040517f621c564c00000000000000000000000000000000000000000000000000000000815260040161104891906155df565b60405180910390fd5b61105a8161188f565b1561109c57806040517f621c564c00000000000000000000000000000000000000000000000000000000815260040161109391906155df565b60405180910390fd5b336000801b6110aa826142c7565b60000154146110f057806040517f621c564c0000000000000000000000000000000000000000000000000000000081526004016110e791906155df565b60405180910390fd5b6110fb87878761454e565b6000600760008973ffffffffffffffffffffffffffffffffffffffff1673ffffffffffffffffffffffffffffffffffffffff16815260200190815260200160002060003373ffffffffffffffffffffffffffffffffffffffff1673ffffffffffffffffffffffffffffffffffffffff168152602001908152602001600020549050858110156111b6576040517f188284b100000000000000000000000000000000000000000000000000000000815260040160405180910390fd5b6111c3883388840361430f565b8673ffffffffffffffffffffffffffffffffffffffff168873ffffffffffffffffffffffffffffffffffffffff167fddf252ad1be2c89b69c2b068fc378daa952ba7f163c4a11628f55a4df523b3ef88604051611220919061540e565b60405180910390a360019450505050509392505050565b6000611241611f91565b1561128357336040517f621c564c00000000000000000000000000000000000000000000000000000000815260040161127a91906155df565b60405180910390fd5b3361128d8161188f565b156112cf57806040517f621c564c0000000000000000000000000000000000000000000000000000000081526004016112c691906155df565b60405180910390fd5b6112da3385856147c2565b91503373ffffffffffffffffffffffffffffffffffffffff167f7ed75eaf82098257819f0bd6dd7f79062e49152905980263c73ee48565a656a585856040516113249291906156c8565b60405180910390a25092915050565b600061133d611f91565b1561137f57336040517f621c564c00000000000000000000000000000000000000000000000000000000815260040161137691906155df565b60405180910390fd5b838361138a8261188f565b156113cc57816040517f621c564c0000000000000000000000000000000000000000000000000000000081526004016113c391906155df565b60405180910390fd5b6113d58161188f565b1561141757806040517f621c564c00000000000000000000000000000000000000000000000000000000815260040161140e91906155df565b60405180910390fd5b7f36fd43ede163045b10e1f0abd16f62f165fce3fa7b6cde217bcea3bc47663acc7fa49807205ce4d355092ef5a8a18f56e8913cf4a201fbe287825b095693c217756114638233614921565b15801561147757506114758133614921565b155b156114b957336040517f3998666e0000000000000000000000000000000000000000000000000000000081526004016114b091906155df565b60405180910390fd5b6000600560008a73ffffffffffffffffffffffffffffffffffffffff1673ffffffffffffffffffffffffffffffffffffffff16815260200190815260200160002090506000801b81600001541461153c576040517facf89dba00000000000000000000000000000000000000000000000000000000815260040160405180910390fd5b6000611547336142c7565b90507fa49807205ce4d355092ef5a8a18f56e8913cf4a201fbe287825b095693c2177581600001541480156115a057507fa49807205ce4d355092ef5a8a18f56e8913cf4a201fbe287825b095693c21775826001015414155b156115e257336040517f3998666e0000000000000000000000000000000000000000000000000000000081526004016115d991906155df565b60405180910390fd5b6000600660008c73ffffffffffffffffffffffffffffffffffffffff1673ffffffffffffffffffffffffffffffffffffffff16815260200190815260200160002054905088811015611660576040517f135d073e00000000000000000000000000000000000000000000000000000000815260040160405180910390fd5b888103600660008d73ffffffffffffffffffffffffffffffffffffffff1673ffffffffffffffffffffffffffffffffffffffff1681526020019081526020016000208190555088600660008c73ffffffffffffffffffffffffffffffffffffffff1673ffffffffffffffffffffffffffffffffffffffff16815260200190815260200160002060008282546116f59190615880565b925050819055508973ffffffffffffffffffffffffffffffffffffffff168b73ffffffffffffffffffffffffffffffffffffffff163373ffffffffffffffffffffffffffffffffffffffff167f078d37319d24859404254c6b01ecf33675cc834708e42791099d4cf07e84a18b8c604051611770919061540e565b60405180910390a460019750505050505050509392505050565b60006012905090565b600061179d611f91565b156117df57336040517f621c564c0000000000000000000000000000000000000000000000000000000081526004016117d691906155df565b60405180910390fd5b336117e98161188f565b1561182b57806040517f621c564c00000000000000000000000000000000000000000000000000000000815260040161182291906155df565b60405180910390fd5b6118363385856149a9565b91503373ffffffffffffffffffffffffffffffffffffffff167f029d06ff78b8c68fca5225af637c626c0176c9fcaa163beec8e558d4c3ae65b685856040516118809291906156c8565b60405180910390a25092915050565b6000600460008373ffffffffffffffffffffffffffffffffffffffff1673ffffffffffffffffffffffffffffffffffffffff16815260200190815260200160002060009054906101000a900460ff169050919050565b60006118ef611f91565b1561193157336040517f621c564c00000000000000000000000000000000000000000000000000000000815260040161192891906155df565b60405180910390fd5b338461193c8261188f565b1561197e57816040517f621c564c00000000000000000000000000000000000000000000000000000000815260040161197591906155df565b60405180910390fd5b6119878161188f565b156119c957806040517f621c564c0000000000000000000000000000000000000000000000000000000081526004016119c091906155df565b60405180910390fd5b336000801b6119d7826142c7565b6000015414611a1d57806040517f621c564c000000000000000000000000000000000000000000000000000000008152600401611a1491906155df565b60405180910390fd5b6000600760003373ffffffffffffffffffffffffffffffffffffffff1673ffffffffffffffffffffffffffffffffffffffff16815260200190815260200160002060008973ffffffffffffffffffffffffffffffffffffffff1673ffffffffffffffffffffffffffffffffffffffff168152602001908152602001600020549050868114611ad7576040517f188284b100000000000000000000000000000000000000000000000000000000815260040160405180910390fd5b85600760003373ffffffffffffffffffffffffffffffffffffffff1673ffffffffffffffffffffffffffffffffffffffff16815260200190815260200160002060008a73ffffffffffffffffffffffffffffffffffffffff1673ffffffffffffffffffffffffffffffffffffffff168152602001908152602001600020819055508773ffffffffffffffffffffffffffffffffffffffff163373ffffffffffffffffffffffffffffffffffffffff167f85ecbd9e6b47a8c64c0c5b4998f064973a3a6e6987c83a8fd61f1d2de09735bc8389604051611bb79291906156c8565b60405180910390a360019450505050509392505050565b7f36fd43ede163045b10e1f0abd16f62f165fce3fa7b6cde217bcea3bc47663acc7fa49807205ce4d355092ef5a8a18f56e8913cf4a201fbe287825b095693c21775611c1a8233614921565b158015611c2e5750611c2c8133614921565b155b15611c7057336040517f3998666e000000000000000000000000000000000000000000000000000000008152600401611c6791906155df565b60405180910390fd5b82600073ffffffffffffffffffffffffffffffffffffffff168173ffffffffffffffffffffffffffffffffffffffff161480611cd757503073ffffffffffffffffffffffffffffffffffffffff168173ffffffffffffffffffffffffffffffffffffffff16145b15611d1957806040517f223a6774000000000000000000000000000000000000000000000000000000008152600401611d1091906155df565b60405180910390fd5b6000600460008673ffffffffffffffffffffffffffffffffffffffff1673ffffffffffffffffffffffffffffffffffffffff16815260200190815260200160002060006101000a81548160ff0219169083151502179055508373ffffffffffffffffffffffffffffffffffffffff163373ffffffffffffffffffffffffffffffffffffffff167f3d072963433794eb417a69355df67d08bbd73d5076ef653d6863861161d60af360405160405180910390a350505050565b7f36fd43ede163045b10e1f0abd16f62f165fce3fa7b6cde217bcea3bc47663acc611dfc8133614921565b611e3d57336040517f3998666e000000000000000000000000000000000000000000000000000000008152600401611e3491906155df565b60405180910390fd5b8173ffffffffffffffffffffffffffffffffffffffff166108fc479081150290604051600060405180830381858888f19350505050158015611e83573d6000803e3d6000fd5b505050565b7ffb1e607aaad6cf72e2856e6a77e54638c3076455dbebf8a209c7eca75951b07f81565b7f36fd43ede163045b10e1f0abd16f62f165fce3fa7b6cde217bcea3bc47663acc611ed78133614921565b611f1857336040517f3998666e000000000000000000000000000000000000000000000000000000008152600401611f0f91906155df565b60405180910390fd5b6001600360006101000a81548160ff0219169083151502179055503373ffffffffffffffffffffffffffffffffffffffff167ff1005168aea1429fe9559d51ef6caa33e6426890864e2e6e41e5d54baa7be79f60405160405180910390a250565b737ea3cfefa2b13e493110eded87e2ba72c115bec181565b6000600360009054906101000a900460ff16905090565b6000611fb2611f91565b15611ff457336040517f621c564c000000000000000000000000000000000000000000000000000000008152600401611feb91906155df565b60405180910390fd5b84611ffe8161188f565b1561204057806040517f621c564c00000000000000000000000000000000000000000000000000000000815260040161203791906155df565b60405180910390fd5b7f36fd43ede163045b10e1f0abd16f62f165fce3fa7b6cde217bcea3bc47663acc7fa49807205ce4d355092ef5a8a18f56e8913cf4a201fbe287825b095693c2177561208c8233614921565b1580156120a0575061209e8133614921565b155b156120e257336040517f3998666e0000000000000000000000000000000000000000000000000000000081526004016120d991906155df565b60405180910390fd5b6000600560008a73ffffffffffffffffffffffffffffffffffffffff1673ffffffffffffffffffffffffffffffffffffffff16815260200190815260200160002090506000801b816000015414612165576040517facf89dba00000000000000000000000000000000000000000000000000000000815260040160405180910390fd5b6000612170336142c7565b90507fa49807205ce4d355092ef5a8a18f56e8913cf4a201fbe287825b095693c2177581600001541480156121c957507fa49807205ce4d355092ef5a8a18f56e8913cf4a201fbe287825b095693c21775826001015414155b1561220b57336040517f3998666e00000000000000000000000000000000000000000000000000000000815260040161220291906155df565b60405180910390fd5b6000600760008c73ffffffffffffffffffffffffffffffffffffffff1673ffffffffffffffffffffffffffffffffffffffff16815260200190815260200160002060008b73ffffffffffffffffffffffffffffffffffffffff1673ffffffffffffffffffffffffffffffffffffffff1681526020019081526020016000205490508881146122c5576040517f188284b100000000000000000000000000000000000000000000000000000000815260040160405180910390fd5b87600760008d73ffffffffffffffffffffffffffffffffffffffff1673ffffffffffffffffffffffffffffffffffffffff16815260200190815260200160002060008c73ffffffffffffffffffffffffffffffffffffffff1673ffffffffffffffffffffffffffffffffffffffff168152602001908152602001600020819055508973ffffffffffffffffffffffffffffffffffffffff168b73ffffffffffffffffffffffffffffffffffffffff167f6b86fcbec7ddac1ce27be8944e9d63ccae58790b0547b8e6daec8840649c9be1838b6040516123a59291906156c8565b60405180910390a360019650505050505050949350505050565b60006123c9611f91565b1561240b57336040517f621c564c00000000000000000000000000000000000000000000000000000000815260040161240291906155df565b60405180910390fd5b336124158161188f565b1561245757806040517f621c564c00000000000000000000000000000000000000000000000000000000815260040161244e91906155df565b60405180910390fd5b336000801b612465826142c7565b60000154146124ab57806040517f621c564c0000000000000000000000000000000000000000000000000000000081526004016124a291906155df565b60405180910390fd5b6000600760003373ffffffffffffffffffffffffffffffffffffffff1673ffffffffffffffffffffffffffffffffffffffff16815260200190815260200160002060008873ffffffffffffffffffffffffffffffffffffffff1673ffffffffffffffffffffffffffffffffffffffff16815260200190815260200160002054905084811015612566576040517ff8cdd99b00000000000000000000000000000000000000000000000000000000815260040160405180910390fd5b85811461259f576040517f188284b100000000000000000000000000000000000000000000000000000000815260040160405180910390fd5b848103600760003373ffffffffffffffffffffffffffffffffffffffff1673ffffffffffffffffffffffffffffffffffffffff16815260200190815260200160002060008973ffffffffffffffffffffffffffffffffffffffff1673ffffffffffffffffffffffffffffffffffffffff168152602001908152602001600020819055508673ffffffffffffffffffffffffffffffffffffffff163373ffffffffffffffffffffffffffffffffffffffff167f85ecbd9e6b47a8c64c0c5b4998f064973a3a6e6987c83a8fd61f1d2de09735bc83886040516126819291906156c8565b60405180910390a3600193505050509392505050565b6000600660008373ffffffffffffffffffffffffffffffffffffffff1673ffffffffffffffffffffffffffffffffffffffff168152602001908152602001600020549050919050565b7fa49807205ce4d355092ef5a8a18f56e8913cf4a201fbe287825b095693c2177581565b7f36fd43ede163045b10e1f0abd16f62f165fce3fa7b6cde217bcea3bc47663acc7fa49807205ce4d355092ef5a8a18f56e8913cf4a201fbe287825b095693c217756127508233614921565b15801561276457506127628133614921565b155b156127a657336040517f3998666e00000000000000000000000000000000000000000000000000000000815260040161279d91906155df565b60405180910390fd5b82600073ffffffffffffffffffffffffffffffffffffffff168173ffffffffffffffffffffffffffffffffffffffff16148061280d57503073ffffffffffffffffffffffffffffffffffffffff168173ffffffffffffffffffffffffffffffffffffffff16145b1561284f57806040517f223a677400000000000000000000000000000000000000000000000000000000815260040161284691906155df565b60405180910390fd5b6001600460008673ffffffffffffffffffffffffffffffffffffffff1673ffffffffffffffffffffffffffffffffffffffff16815260200190815260200160002060006101000a81548160ff0219169083151502179055508373ffffffffffffffffffffffffffffffffffffffff163373ffffffffffffffffffffffffffffffffffffffff167f3dd4f37ca5eaf6c357698a52c806820426d7c9a26adb0991c3bebb09cf23352a60405160405180910390a350505050565b6000612911611f91565b1561295357336040517f621c564c00000000000000000000000000000000000000000000000000000000815260040161294a91906155df565b60405180910390fd5b838361295e8261188f565b156129a057816040517f621c564c00000000000000000000000000000000000000000000000000000000815260040161299791906155df565b60405180910390fd5b6129a98161188f565b156129eb57806040517f621c564c0000000000000000000000000000000000000000000000000000000081526004016129e291906155df565b60405180910390fd5b336000801b6129f9826142c7565b6000015414612a3f57806040517f621c564c000000000000000000000000000000000000000000000000000000008152600401612a3691906155df565b60405180910390fd5b612a4a87878761454e565b6000600760008973ffffffffffffffffffffffffffffffffffffffff1673ffffffffffffffffffffffffffffffffffffffff16815260200190815260200160002060003373ffffffffffffffffffffffffffffffffffffffff1673ffffffffffffffffffffffffffffffffffffffff16815260200190815260200160002054905085811015612b05576040517f188284b100000000000000000000000000000000000000000000000000000000815260040160405180910390fd5b612b12883388840361430f565b8673ffffffffffffffffffffffffffffffffffffffff168873ffffffffffffffffffffffffffffffffffffffff163373ffffffffffffffffffffffffffffffffffffffff167fa3f202e5d519ecf4fbaeaac24a41a3308b85af76f3a19aaffb67692c32f14b8489604051612b86919061540e565b60405180910390a460019450505050509392505050565b7fa49807205ce4d355092ef5a8a18f56e8913cf4a201fbe287825b095693c21775612bc88133614921565b612c0957336040517f3998666e000000000000000000000000000000000000000000000000000000008152600401612c0091906155df565b60405180910390fd5b81600073ffffffffffffffffffffffffffffffffffffffff168173ffffffffffffffffffffffffffffffffffffffff161480612c7057503073ffffffffffffffffffffffffffffffffffffffff168173ffffffffffffffffffffffffffffffffffffffff16145b15612cb257806040517f223a6774000000000000000000000000000000000000000000000000000000008152600401612ca991906155df565b60405180910390fd5b60008054906101000a900460ff1615612d0257336040517f621c564c000000000000000000000000000000000000000000000000000000008152600401612cf991906155df565b60405180910390fd5b612d0b83614b46565b612d4c57826040517f223a6774000000000000000000000000000000000000000000000000000000008152600401612d4391906155df565b60405180910390fd5b60016000806101000a81548160ff021916908315150217905550612d917f36fd43ede163045b10e1f0abd16f62f165fce3fa7b6cde217bcea3bc47663acc3385614b59565b505050565b7f36fd43ede163045b10e1f0abd16f62f165fce3fa7b6cde217bcea3bc47663acc612dc18133614921565b612e0257336040517f3998666e000000000000000000000000000000000000000000000000000000008152600401612df991906155df565b60405180910390fd5b6000600360006101000a81548160ff0219169083151502179055503373ffffffffffffffffffffffffffffffffffffffff167f3c1fb1fd79ee84e55a8fe78554c432ef36ea033a9245ce4b650bd824a12554d360405160405180910390a250565b600080612e6e611f91565b612eaf57336040517f621c564c000000000000000000000000000000000000000000000000000000008152600401612ea691906155df565b60405180910390fd5b7f36fd43ede163045b10e1f0abd16f62f165fce3fa7b6cde217bcea3bc47663acc7ffb1e607aaad6cf72e2856e6a77e54638c3076455dbebf8a209c7eca75951b07f612efb8233614921565b158015612f0f5750612f0d8133614921565b155b15612f5157336040517f3998666e000000000000000000000000000000000000000000000000000000008152600401612f4891906155df565b60405180910390fd5b87600073ffffffffffffffffffffffffffffffffffffffff168173ffffffffffffffffffffffffffffffffffffffff161480612fb857503073ffffffffffffffffffffffffffffffffffffffff168173ffffffffffffffffffffffffffffffffffffffff16145b15612ffa57806040517f223a6774000000000000000000000000000000000000000000000000000000008152600401612ff191906155df565b60405180910390fd5b8660095414613035576040517f7ccfaedf00000000000000000000000000000000000000000000000000000000815260040160405180910390fd5b6000600660008b73ffffffffffffffffffffffffffffffffffffffff1673ffffffffffffffffffffffffffffffffffffffff1681526020019081526020016000205490508881146130b2576040517f135d073e00000000000000000000000000000000000000000000000000000000815260040160405180910390fd5b868110156130ec576040517ff8cdd99b00000000000000000000000000000000000000000000000000000000815260040160405180910390fd5b868103955085600660008c73ffffffffffffffffffffffffffffffffffffffff1673ffffffffffffffffffffffffffffffffffffffff16815260200190815260200160002081905550866009600082825461314791906158d6565b925050819055508973ffffffffffffffffffffffffffffffffffffffff163373ffffffffffffffffffffffffffffffffffffffff167ff35a4dfe14c46b2034ccc6905e9d72e38a530aecf8ca7f5e60a8d9169c1f2ff98b8b8b6040516131af9392919061590a565b60405180910390a385600954955095505050505094509492505050565b60006131d88383614921565b905092915050565b6060600b80546131ef9061581f565b80601f016020809104026020016040519081016040528092919081815260200182805461321b9061581f565b80156132685780601f1061323d57610100808354040283529160200191613268565b820191906000526020600020905b81548152906001019060200180831161324b57829003601f168201915b5050505050905090565b61327a611f91565b6132bb57336040517f621c564c0000000000000000000000000000000000000000000000000000000081526004016132b291906155df565b60405180910390fd5b7f36fd43ede163045b10e1f0abd16f62f165fce3fa7b6cde217bcea3bc47663acc6132e68133614921565b61332757336040517f3998666e00000000000000000000000000000000000000000000000000000000815260040161331e91906155df565b60405180910390fd5b84600073ffffffffffffffffffffffffffffffffffffffff168173ffffffffffffffffffffffffffffffffffffffff16148061338e57503073ffffffffffffffffffffffffffffffffffffffff168173ffffffffffffffffffffffffffffffffffffffff16145b156133d057806040517f223a67740000000000000000000000000000000000000000000000000000000081526004016133c791906155df565b60405180910390fd5b84600660008873ffffffffffffffffffffffffffffffffffffffff1673ffffffffffffffffffffffffffffffffffffffff1681526020019081526020016000205414613448576040517f135d073e00000000000000000000000000000000000000000000000000000000815260040160405180910390fd5b8360095414613483576040517f7ccfaedf00000000000000000000000000000000000000000000000000000000815260040160405180910390fd5b82600960008282546134959190615880565b9250508190555082600660008873ffffffffffffffffffffffffffffffffffffffff1673ffffffffffffffffffffffffffffffffffffffff16815260200190815260200160002060008282546134eb9190615880565b925050819055508573ffffffffffffffffffffffffffffffffffffffff163373ffffffffffffffffffffffffffffffffffffffff167fab8530f87dc9b59234c4623bf917212bb2536d647574c8e7e5da92c2ede0c9f88560405161354f919061540e565b60405180910390a3505050505050565b6000613569611f91565b156135ab57336040517f621c564c0000000000000000000000000000000000000000000000000000000081526004016135a291906155df565b60405180910390fd5b33836135b68261188f565b156135f857816040517f621c564c0000000000000000000000000000000000000000000000000000000081526004016135ef91906155df565b60405180910390fd5b6136018161188f565b1561364357806040517f621c564c00000000000000000000000000000000000000000000000000000000815260040161363a91906155df565b60405180910390fd5b336000801b613651826142c7565b600001541461369757806040517f621c564c00000000000000000000000000000000000000000000000000000000815260040161368e91906155df565b60405180910390fd5b6136a233878761454e565b8573ffffffffffffffffffffffffffffffffffffffff163373ffffffffffffffffffffffffffffffffffffffff167fddf252ad1be2c89b69c2b068fc378daa952ba7f163c4a11628f55a4df523b3ef876040516136ff919061540e565b60405180910390a36001935050505092915050565b600061371e611f91565b1561376057336040517f621c564c00000000000000000000000000000000000000000000000000000000815260040161375791906155df565b60405180910390fd5b8361376a8161188f565b156137ac57806040517f621c564c0000000000000000000000000000000000000000000000000000000081526004016137a391906155df565b60405180910390fd5b7f36fd43ede163045b10e1f0abd16f62f165fce3fa7b6cde217bcea3bc47663acc7fa49807205ce4d355092ef5a8a18f56e8913cf4a201fbe287825b095693c217756137f88233614921565b15801561380c575061380a8133614921565b155b1561384e57336040517f3998666e00000000000000000000000000000000000000000000000000000000815260040161384591906155df565b60405180910390fd5b86600073ffffffffffffffffffffffffffffffffffffffff168173ffffffffffffffffffffffffffffffffffffffff1614806138b557503073ffffffffffffffffffffffffffffffffffffffff168173ffffffffffffffffffffffffffffffffffffffff16145b156138f757806040517f223a67740000000000000000000000000000000000000000000000000000000081526004016138ee91906155df565b60405180910390fd5b6139028888886147c2565b94508773ffffffffffffffffffffffffffffffffffffffff163373ffffffffffffffffffffffffffffffffffffffff167ff1baeb11a528211157ee96a1d1a17490261724e641cc8346b447aff593603e1c89896040516139639291906156c8565b60405180910390a3505050509392505050565b7390b08dcfd15447187a72f5e06592b353e5cffa9381565b60026020528060005260406000206000915090505481565b72fc4fbcf0f01553bfc470ff85fca2f3f21e138b81565b6000600860008373ffffffffffffffffffffffffffffffffffffffff1673ffffffffffffffffffffffffffffffffffffffff168152602001908152602001600020549050919050565b721b0a8a4749c70aead435cf7e6da06a7bad1a2d81565b7f36fd43ede163045b10e1f0abd16f62f165fce3fa7b6cde217bcea3bc47663acc613a488133614921565b613a8957336040517f3998666e000000000000000000000000000000000000000000000000000000008152600401613a8091906155df565b60405180910390fd5b613a938383614e14565b505050565b6000600760008473ffffffffffffffffffffffffffffffffffffffff1673ffffffffffffffffffffffffffffffffffffffff16815260200190815260200160002060008373ffffffffffffffffffffffffffffffffffffffff1673ffffffffffffffffffffffffffffffffffffffff16815260200190815260200160002054905092915050565b6000613b29611f91565b15613b6b57336040517f621c564c000000000000000000000000000000000000000000000000000000008152600401613b6291906155df565b60405180910390fd5b33613b758161188f565b15613bb757806040517f621c564c000000000000000000000000000000000000000000000000000000008152600401613bae91906155df565b60405180910390fd5b336000801b613bc5826142c7565b6000015414613c0b57806040517f621c564c000000000000000000000000000000000000000000000000000000008152600401613c0291906155df565b60405180910390fd5b6000600760003373ffffffffffffffffffffffffffffffffffffffff1673ffffffffffffffffffffffffffffffffffffffff16815260200190815260200160002060008873ffffffffffffffffffffffffffffffffffffffff1673ffffffffffffffffffffffffffffffffffffffff168152602001908152602001600020549050858114613cc5576040517f188284b100000000000000000000000000000000000000000000000000000000815260040160405180910390fd5b8481613cd19190615880565b600760003373ffffffffffffffffffffffffffffffffffffffff1673ffffffffffffffffffffffffffffffffffffffff16815260200190815260200160002060008973ffffffffffffffffffffffffffffffffffffffff1673ffffffffffffffffffffffffffffffffffffffff168152602001908152602001600020819055508673ffffffffffffffffffffffffffffffffffffffff163373ffffffffffffffffffffffffffffffffffffffff167f85ecbd9e6b47a8c64c0c5b4998f064973a3a6e6987c83a8fd61f1d2de09735bc8388604051613db09291906156c8565b60405180910390a3600193505050509392505050565b737a6d0f0f96f39e54abfeba3d1da6f56c921b9cb781565b733a528ca83a9d4e167dc9c14690349e3b6fc0205481565b7f36fd43ede163045b10e1f0abd16f62f165fce3fa7b6cde217bcea3bc47663acc81565b6000613e24611f91565b15613e6657336040517f621c564c000000000000000000000000000000000000000000000000000000008152600401613e5d91906155df565b60405180910390fd5b83613e708161188f565b15613eb257806040517f621c564c000000000000000000000000000000000000000000000000000000008152600401613ea991906155df565b60405180910390fd5b7f36fd43ede163045b10e1f0abd16f62f165fce3fa7b6cde217bcea3bc47663acc7fa49807205ce4d355092ef5a8a18f56e8913cf4a201fbe287825b095693c21775613efe8233614921565b158015613f125750613f108133614921565b155b15613f5457336040517f3998666e000000000000000000000000000000000000000000000000000000008152600401613f4b91906155df565b60405180910390fd5b86600073ffffffffffffffffffffffffffffffffffffffff168173ffffffffffffffffffffffffffffffffffffffff161480613fbb57503073ffffffffffffffffffffffffffffffffffffffff168173ffffffffffffffffffffffffffffffffffffffff16145b15613ffd57806040517f223a6774000000000000000000000000000000000000000000000000000000008152600401613ff491906155df565b60405180910390fd5b6140088888886149a9565b94508773ffffffffffffffffffffffffffffffffffffffff163373ffffffffffffffffffffffffffffffffffffffff167f1523bfa6e83338a433c782607d64c2a02d7c24abd1a83102f4fbe5c0f2db262e89896040516140699291906156c8565b60405180910390a3505050509392505050565b7f36fd43ede163045b10e1f0abd16f62f165fce3fa7b6cde217bcea3bc47663acc6140a78133614921565b6140e857336040517f3998666e0000000000000000000000000000000000000000000000000000000081526004016140df91906155df565b60405180910390fd5b8282600073ffffffffffffffffffffffffffffffffffffffff168273ffffffffffffffffffffffffffffffffffffffff16148061415057503073ffffffffffffffffffffffffffffffffffffffff168273ffffffffffffffffffffffffffffffffffffffff16145b1561419257816040517f223a677400000000000000000000000000000000000000000000000000000000815260040161418991906155df565b60405180910390fd5b600073ffffffffffffffffffffffffffffffffffffffff168173ffffffffffffffffffffffffffffffffffffffff1614806141f857503073ffffffffffffffffffffffffffffffffffffffff168173ffffffffffffffffffffffffffffffffffffffff16145b1561423a57806040517f223a677400000000000000000000000000000000000000000000000000000000815260040161423191906155df565b60405180910390fd5b614245868686614b59565b505050505050565b60007f55df4713000000000000000000000000000000000000000000000000000000007bffffffffffffffffffffffffffffffffffffffffffffffffffffffff1916827bffffffffffffffffffffffffffffffffffffffffffffffffffffffff191614806142c057506142bf8261503c565b5b9050919050565b6000600160008373ffffffffffffffffffffffffffffffffffffffff1673ffffffffffffffffffffffffffffffffffffffff1681526020019081526020016000209050919050565b8282600073ffffffffffffffffffffffffffffffffffffffff168273ffffffffffffffffffffffffffffffffffffffff16148061437757503073ffffffffffffffffffffffffffffffffffffffff168273ffffffffffffffffffffffffffffffffffffffff16145b156143b957816040517f223a67740000000000000000000000000000000000000000000000000000000081526004016143b091906155df565b60405180910390fd5b600073ffffffffffffffffffffffffffffffffffffffff168173ffffffffffffffffffffffffffffffffffffffff16148061441f57503073ffffffffffffffffffffffffffffffffffffffff168173ffffffffffffffffffffffffffffffffffffffff16145b1561446157806040517f223a677400000000000000000000000000000000000000000000000000000000815260040161445891906155df565b60405180910390fd5b82600760008773ffffffffffffffffffffffffffffffffffffffff1673ffffffffffffffffffffffffffffffffffffffff16815260200190815260200160002060008673ffffffffffffffffffffffffffffffffffffffff1673ffffffffffffffffffffffffffffffffffffffff168152602001908152602001600020819055508373ffffffffffffffffffffffffffffffffffffffff168573ffffffffffffffffffffffffffffffffffffffff167f8c5be1e5ebec7d5bd14f71427d1e84f3dd0314c0f7b2291e5b200ac8c7c3b9258560405161453f919061540e565b60405180910390a35050505050565b8282600073ffffffffffffffffffffffffffffffffffffffff168273ffffffffffffffffffffffffffffffffffffffff1614806145b657503073ffffffffffffffffffffffffffffffffffffffff168273ffffffffffffffffffffffffffffffffffffffff16145b156145f857816040517f223a67740000000000000000000000000000000000000000000000000000000081526004016145ef91906155df565b60405180910390fd5b600073ffffffffffffffffffffffffffffffffffffffff168173ffffffffffffffffffffffffffffffffffffffff16148061465e57503073ffffffffffffffffffffffffffffffffffffffff168173ffffffffffffffffffffffffffffffffffffffff16145b156146a057806040517f223a677400000000000000000000000000000000000000000000000000000000815260040161469791906155df565b60405180910390fd5b6000600660008773ffffffffffffffffffffffffffffffffffffffff1673ffffffffffffffffffffffffffffffffffffffff1681526020019081526020016000205490508381101561471e576040517f135d073e00000000000000000000000000000000000000000000000000000000815260040160405180910390fd5b838103600660008873ffffffffffffffffffffffffffffffffffffffff1673ffffffffffffffffffffffffffffffffffffffff1681526020019081526020016000208190555083600660008773ffffffffffffffffffffffffffffffffffffffff1673ffffffffffffffffffffffffffffffffffffffff16815260200190815260200160002060008282546147b39190615880565b92505081905550505050505050565b600080600860008673ffffffffffffffffffffffffffffffffffffffff1673ffffffffffffffffffffffffffffffffffffffff16815260200190815260200160002054905082811015614841576040517ff8cdd99b00000000000000000000000000000000000000000000000000000000815260040160405180910390fd5b80841461487a576040517f135d073e00000000000000000000000000000000000000000000000000000000815260040160405180910390fd5b82600660008773ffffffffffffffffffffffffffffffffffffffff1673ffffffffffffffffffffffffffffffffffffffff16815260200190815260200160002060008282546148c99190615880565b92505081905550828103915081600860008773ffffffffffffffffffffffffffffffffffffffff1673ffffffffffffffffffffffffffffffffffffffff16815260200190815260200160002081905550509392505050565b600080600160008473ffffffffffffffffffffffffffffffffffffffff1673ffffffffffffffffffffffffffffffffffffffff16815260200190815260200160002090506000801b8160000154141561497e5760009150506149a3565b83816000015414801561499f57508060010160009054906101000a900460ff165b9150505b92915050565b600080600660008673ffffffffffffffffffffffffffffffffffffffff1673ffffffffffffffffffffffffffffffffffffffff16815260200190815260200160002054905082811015614a28576040517ff8cdd99b00000000000000000000000000000000000000000000000000000000815260040160405180910390fd5b6000600860008773ffffffffffffffffffffffffffffffffffffffff1673ffffffffffffffffffffffffffffffffffffffff168152602001908152602001600020549050808514614aa5576040517f135d073e00000000000000000000000000000000000000000000000000000000815260040160405180910390fd5b8381614ab19190615880565b925082600860008873ffffffffffffffffffffffffffffffffffffffff1673ffffffffffffffffffffffffffffffffffffffff16815260200190815260200160002081905550838203600660008873ffffffffffffffffffffffffffffffffffffffff1673ffffffffffffffffffffffffffffffffffffffff1681526020019081526020016000208190555050509392505050565b600080823b905060008111915050919050565b7f36fd43ede163045b10e1f0abd16f62f165fce3fa7b6cde217bcea3bc47663acc83148015614b8e5750614b8c81614b46565b155b15614bd057806040517f223a6774000000000000000000000000000000000000000000000000000000008152600401614bc791906155df565b60405180910390fd5b6000600160008473ffffffffffffffffffffffffffffffffffffffff1673ffffffffffffffffffffffffffffffffffffffff168152602001908152602001600020604051806040016040529081600082015481526020016001820160009054906101000a900460ff16151515158152505090506000801b81600001511415614c8f57826040517fd5bae1a1000000000000000000000000000000000000000000000000000000008152600401614c8691906155df565b60405180910390fd5b83816000015114614ccc576040517f6133f12200000000000000000000000000000000000000000000000000000000815260040160405180910390fd5b6001816020019015159081151581525050600160008473ffffffffffffffffffffffffffffffffffffffff1673ffffffffffffffffffffffffffffffffffffffff1681526020019081526020016000206000808201600090556001820160006101000a81549060ff0219169055505080600160008473ffffffffffffffffffffffffffffffffffffffff1673ffffffffffffffffffffffffffffffffffffffff1681526020019081526020016000206000820151816000015560208201518160010160006101000a81548160ff0219169083151502179055509050508173ffffffffffffffffffffffffffffffffffffffff163373ffffffffffffffffffffffffffffffffffffffff16857fcaba87d53b293d545d69ab305284377793434c6fb5428e6244bfadcd4342237086604051614e0691906155df565b60405180910390a450505050565b7f36fd43ede163045b10e1f0abd16f62f165fce3fa7b6cde217bcea3bc47663acc821415614e7957806040517f621c564c000000000000000000000000000000000000000000000000000000008152600401614e7091906155df565b60405180910390fd5b6000600160008373ffffffffffffffffffffffffffffffffffffffff1673ffffffffffffffffffffffffffffffffffffffff16815260200190815260200160002090506000801b81600001541415614f0857816040517fd5bae1a1000000000000000000000000000000000000000000000000000000008152600401614eff91906155df565b60405180910390fd5b82816000015414614f45576040517f6133f12200000000000000000000000000000000000000000000000000000000815260040160405180910390fd5b7fa49807205ce4d355092ef5a8a18f56e8913cf4a201fbe287825b095693c217758160000154148015614f7d5750614f7b6150b6565b155b15614fbf57816040517f621c564c000000000000000000000000000000000000000000000000000000008152600401614fb691906155df565b60405180910390fd5b60008160010160006101000a81548160ff0219169083151502179055508173ffffffffffffffffffffffffffffffffffffffff163373ffffffffffffffffffffffffffffffffffffffff16847ff6391f5c32d9c69d2a47ea670b442974b53935d1edc7fd64eb21e047a839171b60405160405180910390a4505050565b60007fe613f82a000000000000000000000000000000000000000000000000000000007bffffffffffffffffffffffffffffffffffffffffffffffffffffffff1916827bffffffffffffffffffffffffffffffffffffffffffffffffffffffff191614806150af57506150ae826150cc565b5b9050919050565b60008060009054906101000a900460ff16905090565b60007fba7df352000000000000000000000000000000000000000000000000000000007bffffffffffffffffffffffffffffffffffffffffffffffffffffffff1916827bffffffffffffffffffffffffffffffffffffffffffffffffffffffff1916148061513f575061513e82615146565b5b9050919050565b60007f01ffc9a7000000000000000000000000000000000000000000000000000000007bffffffffffffffffffffffffffffffffffffffffffffffffffffffff1916827bffffffffffffffffffffffffffffffffffffffffffffffffffffffff1916149050919050565b600080fd5b60007fffffffff0000000000000000000000000000000000000000000000000000000082169050919050565b6151ea816151b5565b81146151f557600080fd5b50565b600081359050615207816151e1565b92915050565b600060208284031215615223576152226151b0565b5b6000615231848285016151f8565b91505092915050565b60008115159050919050565b61524f8161523a565b82525050565b600060208201905061526a6000830184615246565b92915050565b600081519050919050565b600082825260208201905092915050565b60005b838110156152aa57808201518184015260208101905061528f565b838111156152b9576000848401525b50505050565b6000601f19601f8301169050919050565b60006152db82615270565b6152e5818561527b565b93506152f581856020860161528c565b6152fe816152bf565b840191505092915050565b6000602082019050818103600083015261532381846152d0565b905092915050565b600073ffffffffffffffffffffffffffffffffffffffff82169050919050565b60006153568261532b565b9050919050565b6153668161534b565b811461537157600080fd5b50565b6000813590506153838161535d565b92915050565b6000819050919050565b61539c81615389565b81146153a757600080fd5b50565b6000813590506153b981615393565b92915050565b600080604083850312156153d6576153d56151b0565b5b60006153e485828601615374565b92505060206153f5858286016153aa565b9150509250929050565b61540881615389565b82525050565b600060208201905061542360008301846153ff565b92915050565b60006020828403121561543f5761543e6151b0565b5b600061544d84828501615374565b91505092915050565b6000819050919050565b61546981615456565b82525050565b60006040820190506154846000830185615460565b6154916020830184615246565b9392505050565b6000806000606084860312156154b1576154b06151b0565b5b60006154bf86828701615374565b93505060206154d086828701615374565b92505060406154e1868287016153aa565b9150509250925092565b60008060408385031215615502576155016151b0565b5b6000615510858286016153aa565b9250506020615521858286016153aa565b9150509250929050565b600060ff82169050919050565b6155418161552b565b82525050565b600060208201905061555c6000830184615538565b92915050565b60008060006060848603121561557b5761557a6151b0565b5b600061558986828701615374565b935050602061559a868287016153aa565b92505060406155ab868287016153aa565b9150509250925092565b60006020820190506155ca6000830184615460565b92915050565b6155d98161534b565b82525050565b60006020820190506155f460008301846155d0565b92915050565b60008060008060808587031215615614576156136151b0565b5b600061562287828801615374565b945050602061563387828801615374565b9350506040615644878288016153aa565b9250506060615655878288016153aa565b91505092959194509250565b6000806000806080858703121561567b5761567a6151b0565b5b600061568987828801615374565b945050602061569a878288016153aa565b93505060406156ab878288016153aa565b92505060606156bc878288016153aa565b91505092959194509250565b60006040820190506156dd60008301856153ff565b6156ea60208301846153ff565b9392505050565b6156fa81615456565b811461570557600080fd5b50565b600081359050615717816156f1565b92915050565b60008060408385031215615734576157336151b0565b5b600061574285828601615708565b925050602061575385828601615374565b9150509250929050565b60008060408385031215615774576157736151b0565b5b600061578285828601615374565b925050602061579385828601615374565b9150509250929050565b6000806000606084860312156157b6576157b56151b0565b5b60006157c486828701615708565b93505060206157d586828701615374565b92505060406157e686828701615374565b9150509250925092565b7f4e487b7100000000000000000000000000000000000000000000000000000000600052602260045260246000fd5b6000600282049050600182168061583757607f821691505b6020821081141561584b5761584a6157f0565b5b50919050565b7f4e487b7100000000000000000000000000000000000000000000000000000000600052601160045260246000fd5b600061588b82615389565b915061589683615389565b9250827fffffffffffffffffffffffffffffffffffffffffffffffffffffffffffffffff038211156158cb576158ca615851565b5b828201905092915050565b60006158e182615389565b91506158ec83615389565b9250828210156158ff576158fe615851565b5b828203905092915050565b600060608201905061591f60008301866153ff565b61592c60208301856153ff565b61593960408301846153ff565b94935050505056fea2646970667358221220230aeb7787c662eb0f1cfe3c878e092ae6c540beca10aa39c124ecf6f658476764736f6c634300080a0033",
			"opcodes": "PUSH1 0x80 PUSH1 0x40 MSTORE CALLVALUE DUP1 ISZERO PUSH3 0x11 JUMPI PUSH1 0x0 DUP1 REVERT JUMPDEST POP PUSH3 0x44 PUSH32 0xA49807205CE4D355092EF5A8A18F56E8913CF4A201FBE287825B095693C21775 CALLER PUSH3 0x820 PUSH1 0x20 SHL PUSH1 0x20 SHR JUMP JUMPDEST PUSH32 0xA49807205CE4D355092EF5A8A18F56E8913CF4A201FBE287825B095693C21775 PUSH1 0x2 PUSH1 0x0 CALLER PUSH20 0xFFFFFFFFFFFFFFFFFFFFFFFFFFFFFFFFFFFFFFFF AND PUSH20 0xFFFFFFFFFFFFFFFFFFFFFFFFFFFFFFFFFFFFFFFF AND DUP2 MSTORE PUSH1 0x20 ADD SWAP1 DUP2 MSTORE PUSH1 0x20 ADD PUSH1 0x0 KECCAK256 DUP2 SWAP1 SSTORE POP PUSH3 0xDA PUSH32 0xFB1E607AAAD6CF72E2856E6A77E54638C3076455DBEBF8A209C7ECA75951B07F CALLER PUSH3 0x820 PUSH1 0x20 SHL PUSH1 0x20 SHR JUMP JUMPDEST PUSH1 0x0 DUP1 PUSH1 0x0 PUSH2 0x100 EXP DUP2 SLOAD DUP2 PUSH1 0xFF MUL NOT AND SWAP1 DUP4 ISZERO ISZERO MUL OR SWAP1 SSTORE POP PUSH1 0x0 PUSH1 0x3 PUSH1 0x0 PUSH2 0x100 EXP DUP2 SLOAD DUP2 PUSH1 0xFF MUL NOT AND SWAP1 DUP4 ISZERO ISZERO MUL OR SWAP1 SSTORE POP PUSH1 0x40 MLOAD DUP1 PUSH1 0x40 ADD PUSH1 0x40 MSTORE DUP1 PUSH32 0xB7164B4E0C319C9C417CC42A9CCF7D237C3EE8B92A9396F332689F6DC95218E6 DUP2 MSTORE PUSH1 0x20 ADD PUSH32 0xA49807205CE4D355092EF5A8A18F56E8913CF4A201FBE287825B095693C21775 DUP2 MSTORE POP PUSH1 0x5 PUSH1 0x0 PUSH20 0x7EA3CFEFA2B13E493110EDED87E2BA72C115BEC1 PUSH20 0xFFFFFFFFFFFFFFFFFFFFFFFFFFFFFFFFFFFFFFFF AND PUSH20 0xFFFFFFFFFFFFFFFFFFFFFFFFFFFFFFFFFFFFFFFF AND DUP2 MSTORE PUSH1 0x20 ADD SWAP1 DUP2 MSTORE PUSH1 0x20 ADD PUSH1 0x0 KECCAK256 PUSH1 0x0 DUP3 ADD MLOAD DUP2 PUSH1 0x0 ADD SSTORE PUSH1 0x20 DUP3 ADD MLOAD DUP2 PUSH1 0x1 ADD SSTORE SWAP1 POP POP PUSH1 0x40 MLOAD DUP1 PUSH1 0x40 ADD PUSH1 0x40 MSTORE DUP1 PUSH32 0xBCDD217CEED48F611658C960FDE8B0D6693788061A8CDDBC82E5351B79B82089 DUP2 MSTORE PUSH1 0x20 ADD PUSH1 0x0 DUP1 SHL DUP2 MSTORE POP PUSH1 0x5 PUSH1 0x0 PUSH19 0x1B0A8A4749C70AEAD435CF7E6DA06A7BAD1A2D PUSH20 0xFFFFFFFFFFFFFFFFFFFFFFFFFFFFFFFFFFFFFFFF AND PUSH20 0xFFFFFFFFFFFFFFFFFFFFFFFFFFFFFFFFFFFFFFFF AND DUP2 MSTORE PUSH1 0x20 ADD SWAP1 DUP2 MSTORE PUSH1 0x20 ADD PUSH1 0x0 KECCAK256 PUSH1 0x0 DUP3 ADD MLOAD DUP2 PUSH1 0x0 ADD SSTORE PUSH1 0x20 DUP3 ADD MLOAD DUP2 PUSH1 0x1 ADD SSTORE SWAP1 POP POP PUSH1 0x40 MLOAD DUP1 PUSH1 0x40 ADD PUSH1 0x40 MSTORE DUP1 PUSH32 0x5A119E2346306CCB9F52D3E5A906BF1BA96ED181C6771D2093B112667DA53FA8 DUP2 MSTORE PUSH1 0x20 ADD PUSH1 0x0 DUP1 SHL DUP2 MSTORE POP PUSH1 0x5 PUSH1 0x0 PUSH20 0x3A528CA83A9D4E167DC9C14690349E3B6FC02054 PUSH20 0xFFFFFFFFFFFFFFFFFFFFFFFFFFFFFFFFFFFFFFFF AND PUSH20 0xFFFFFFFFFFFFFFFFFFFFFFFFFFFFFFFFFFFFFFFF AND DUP2 MSTORE PUSH1 0x20 ADD SWAP1 DUP2 MSTORE PUSH1 0x20 ADD PUSH1 0x0 KECCAK256 PUSH1 0x0 DUP3 ADD MLOAD DUP2 PUSH1 0x0 ADD SSTORE PUSH1 0x20 DUP3 ADD MLOAD DUP2 PUSH1 0x1 ADD SSTORE SWAP1 POP POP PUSH1 0x40 MLOAD DUP1 PUSH1 0x40 ADD PUSH1 0x40 MSTORE DUP1 PUSH32 0x3EBB4BBD059D56AE7BE10C3016FDF469AB7FC2BBFE2DE689E914448BFC2D23CB DUP2 MSTORE PUSH1 0x20 ADD PUSH32 0xA49807205CE4D355092EF5A8A18F56E8913CF4A201FBE287825B095693C21775 DUP2 MSTORE POP PUSH1 0x5 PUSH1 0x0 PUSH20 0x90B08DCFD15447187A72F5E06592B353E5CFFA93 PUSH20 0xFFFFFFFFFFFFFFFFFFFFFFFFFFFFFFFFFFFFFFFF AND PUSH20 0xFFFFFFFFFFFFFFFFFFFFFFFFFFFFFFFFFFFFFFFF AND DUP2 MSTORE PUSH1 0x20 ADD SWAP1 DUP2 MSTORE PUSH1 0x20 ADD PUSH1 0x0 KECCAK256 PUSH1 0x0 DUP3 ADD MLOAD DUP2 PUSH1 0x0 ADD SSTORE PUSH1 0x20 DUP3 ADD MLOAD DUP2 PUSH1 0x1 ADD SSTORE SWAP1 POP POP PUSH1 0x40 MLOAD DUP1 PUSH1 0x40 ADD PUSH1 0x40 MSTORE DUP1 PUSH32 0xF0DE0E4B45E805524BD40AAF5531E6D522B92704F4386C8F0E77FBD928BE8C8B DUP2 MSTORE PUSH1 0x20 ADD PUSH32 0xA49807205CE4D355092EF5A8A18F56E8913CF4A201FBE287825B095693C21775 DUP2 MSTORE POP PUSH1 0x5 PUSH1 0x0 PUSH19 0xFC4FBCF0F01553BFC470FF85FCA2F3F21E138B PUSH20 0xFFFFFFFFFFFFFFFFFFFFFFFFFFFFFFFFFFFFFFFF AND PUSH20 0xFFFFFFFFFFFFFFFFFFFFFFFFFFFFFFFFFFFFFFFF AND DUP2 MSTORE PUSH1 0x20 ADD SWAP1 DUP2 MSTORE PUSH1 0x20 ADD PUSH1 0x0 KECCAK256 PUSH1 0x0 DUP3 ADD MLOAD DUP2 PUSH1 0x0 ADD SSTORE PUSH1 0x20 DUP3 ADD MLOAD DUP2 PUSH1 0x1 ADD SSTORE SWAP1 POP POP PUSH1 0x40 MLOAD DUP1 PUSH1 0x40 ADD PUSH1 0x40 MSTORE DUP1 PUSH32 0x454ABE277C1C9702D159627D0CA058D70E88F20618E799D19F5D87B18CE9AFAF DUP2 MSTORE PUSH1 0x20 ADD PUSH32 0xA49807205CE4D355092EF5A8A18F56E8913CF4A201FBE287825B095693C21775 DUP2 MSTORE POP PUSH1 0x5 PUSH1 0x0 PUSH20 0x7A6D0F0F96F39E54ABFEBA3D1DA6F56C921B9CB7 PUSH20 0xFFFFFFFFFFFFFFFFFFFFFFFFFFFFFFFFFFFFFFFF AND PUSH20 0xFFFFFFFFFFFFFFFFFFFFFFFFFFFFFFFFFFFFFFFF AND DUP2 MSTORE PUSH1 0x20 ADD SWAP1 DUP2 MSTORE PUSH1 0x20 ADD PUSH1 0x0 KECCAK256 PUSH1 0x0 DUP3 ADD MLOAD DUP2 PUSH1 0x0 ADD SSTORE PUSH1 0x20 DUP3 ADD MLOAD DUP2 PUSH1 0x1 ADD SSTORE SWAP1 POP POP PUSH1 0x40 MLOAD DUP1 PUSH1 0x40 ADD PUSH1 0x40 MSTORE DUP1 PUSH1 0x6 DUP2 MSTORE PUSH1 0x20 ADD PUSH32 0x4C6976656C790000000000000000000000000000000000000000000000000000 DUP2 MSTORE POP PUSH1 0xA SWAP1 DUP1 MLOAD SWAP1 PUSH1 0x20 ADD SWAP1 PUSH3 0x59A SWAP3 SWAP2 SWAP1 PUSH3 0x8A8 JUMP JUMPDEST POP PUSH1 0x40 MLOAD DUP1 PUSH1 0x40 ADD PUSH1 0x40 MSTORE DUP1 PUSH1 0x3 DUP2 MSTORE PUSH1 0x20 ADD PUSH32 0x4C564C0000000000000000000000000000000000000000000000000000000000 DUP2 MSTORE POP PUSH1 0xB SWAP1 DUP1 MLOAD SWAP1 PUSH1 0x20 ADD SWAP1 PUSH3 0x5E8 SWAP3 SWAP2 SWAP1 PUSH3 0x8A8 JUMP JUMPDEST POP PUSH4 0x3B9ACA00 PUSH1 0x9 DUP2 SWAP1 SSTORE POP PUSH4 0x1DCD6500 PUSH1 0x6 PUSH1 0x0 PUSH20 0x7EA3CFEFA2B13E493110EDED87E2BA72C115BEC1 PUSH20 0xFFFFFFFFFFFFFFFFFFFFFFFFFFFFFFFFFFFFFFFF AND PUSH20 0xFFFFFFFFFFFFFFFFFFFFFFFFFFFFFFFFFFFFFFFF AND DUP2 MSTORE PUSH1 0x20 ADD SWAP1 DUP2 MSTORE PUSH1 0x20 ADD PUSH1 0x0 KECCAK256 DUP2 SWAP1 SSTORE POP PUSH4 0xBEBC200 PUSH1 0x6 PUSH1 0x0 PUSH19 0x1B0A8A4749C70AEAD435CF7E6DA06A7BAD1A2D PUSH20 0xFFFFFFFFFFFFFFFFFFFFFFFFFFFFFFFFFFFFFFFF AND PUSH20 0xFFFFFFFFFFFFFFFFFFFFFFFFFFFFFFFFFFFFFFFF AND DUP2 MSTORE PUSH1 0x20 ADD SWAP1 DUP2 MSTORE PUSH1 0x20 ADD PUSH1 0x0 KECCAK256 DUP2 SWAP1 SSTORE POP PUSH4 0x5F5E100 PUSH1 0x6 PUSH1 0x0 PUSH20 0x3A528CA83A9D4E167DC9C14690349E3B6FC02054 PUSH20 0xFFFFFFFFFFFFFFFFFFFFFFFFFFFFFFFFFFFFFFFF AND PUSH20 0xFFFFFFFFFFFFFFFFFFFFFFFFFFFFFFFFFFFFFFFF AND DUP2 MSTORE PUSH1 0x20 ADD SWAP1 DUP2 MSTORE PUSH1 0x20 ADD PUSH1 0x0 KECCAK256 DUP2 SWAP1 SSTORE POP PUSH4 0x4C4B400 PUSH1 0x6 PUSH1 0x0 PUSH20 0x90B08DCFD15447187A72F5E06592B353E5CFFA93 PUSH20 0xFFFFFFFFFFFFFFFFFFFFFFFFFFFFFFFFFFFFFFFF AND PUSH20 0xFFFFFFFFFFFFFFFFFFFFFFFFFFFFFFFFFFFFFFFF AND DUP2 MSTORE PUSH1 0x20 ADD SWAP1 DUP2 MSTORE PUSH1 0x20 ADD PUSH1 0x0 KECCAK256 DUP2 SWAP1 SSTORE POP PUSH4 0x42C1D80 PUSH1 0x6 PUSH1 0x0 PUSH19 0xFC4FBCF0F01553BFC470FF85FCA2F3F21E138B PUSH20 0xFFFFFFFFFFFFFFFFFFFFFFFFFFFFFFFFFFFFFFFF AND PUSH20 0xFFFFFFFFFFFFFFFFFFFFFFFFFFFFFFFFFFFFFFFF AND DUP2 MSTORE PUSH1 0x20 ADD SWAP1 DUP2 MSTORE PUSH1 0x20 ADD PUSH1 0x0 KECCAK256 DUP2 SWAP1 SSTORE POP PUSH4 0x2FAF080 PUSH1 0x6 PUSH1 0x0 PUSH20 0x7A6D0F0F96F39E54ABFEBA3D1DA6F56C921B9CB7 PUSH20 0xFFFFFFFFFFFFFFFFFFFFFFFFFFFFFFFFFFFFFFFF AND PUSH20 0xFFFFFFFFFFFFFFFFFFFFFFFFFFFFFFFFFFFFFFFF AND DUP2 MSTORE PUSH1 0x20 ADD SWAP1 DUP2 MSTORE PUSH1 0x20 ADD PUSH1 0x0 KECCAK256 DUP2 SWAP1 SSTORE POP PUSH3 0x9BD JUMP JUMPDEST PUSH1 0x40 MLOAD DUP1 PUSH1 0x40 ADD PUSH1 0x40 MSTORE DUP1 DUP4 DUP2 MSTORE PUSH1 0x20 ADD PUSH1 0x1 ISZERO ISZERO DUP2 MSTORE POP PUSH1 0x1 PUSH1 0x0 DUP4 PUSH20 0xFFFFFFFFFFFFFFFFFFFFFFFFFFFFFFFFFFFFFFFF AND PUSH20 0xFFFFFFFFFFFFFFFFFFFFFFFFFFFFFFFFFFFFFFFF AND DUP2 MSTORE PUSH1 0x20 ADD SWAP1 DUP2 MSTORE PUSH1 0x20 ADD PUSH1 0x0 KECCAK256 PUSH1 0x0 DUP3 ADD MLOAD DUP2 PUSH1 0x0 ADD SSTORE PUSH1 0x20 DUP3 ADD MLOAD DUP2 PUSH1 0x1 ADD PUSH1 0x0 PUSH2 0x100 EXP DUP2 SLOAD DUP2 PUSH1 0xFF MUL NOT AND SWAP1 DUP4 ISZERO ISZERO MUL OR SWAP1 SSTORE POP SWAP1 POP POP POP POP JUMP JUMPDEST DUP3 DUP1 SLOAD PUSH3 0x8B6 SWAP1 PUSH3 0x987 JUMP JUMPDEST SWAP1 PUSH1 0x0 MSTORE PUSH1 0x20 PUSH1 0x0 KECCAK256 SWAP1 PUSH1 0x1F ADD PUSH1 0x20 SWAP1 DIV DUP2 ADD SWAP3 DUP3 PUSH3 0x8DA JUMPI PUSH1 0x0 DUP6 SSTORE PUSH3 0x926 JUMP JUMPDEST DUP3 PUSH1 0x1F LT PUSH3 0x8F5 JUMPI DUP1 MLOAD PUSH1 0xFF NOT AND DUP4 DUP1 ADD OR DUP6 SSTORE PUSH3 0x926 JUMP JUMPDEST DUP3 DUP1 ADD PUSH1 0x1 ADD DUP6 SSTORE DUP3 ISZERO PUSH3 0x926 JUMPI SWAP2 DUP3 ADD JUMPDEST DUP3 DUP2 GT ISZERO PUSH3 0x925 JUMPI DUP3 MLOAD DUP3 SSTORE SWAP2 PUSH1 0x20 ADD SWAP2 SWAP1 PUSH1 0x1 ADD SWAP1 PUSH3 0x908 JUMP JUMPDEST JUMPDEST POP SWAP1 POP PUSH3 0x935 SWAP2 SWAP1 PUSH3 0x939 JUMP JUMPDEST POP SWAP1 JUMP JUMPDEST JUMPDEST DUP1 DUP3 GT ISZERO PUSH3 0x954 JUMPI PUSH1 0x0 DUP2 PUSH1 0x0 SWAP1 SSTORE POP PUSH1 0x1 ADD PUSH3 0x93A JUMP JUMPDEST POP SWAP1 JUMP JUMPDEST PUSH32 0x4E487B7100000000000000000000000000000000000000000000000000000000 PUSH1 0x0 MSTORE PUSH1 0x22 PUSH1 0x4 MSTORE PUSH1 0x24 PUSH1 0x0 REVERT JUMPDEST PUSH1 0x0 PUSH1 0x2 DUP3 DIV SWAP1 POP PUSH1 0x1 DUP3 AND DUP1 PUSH3 0x9A0 JUMPI PUSH1 0x7F DUP3 AND SWAP2 POP JUMPDEST PUSH1 0x20 DUP3 LT DUP2 EQ ISZERO PUSH3 0x9B7 JUMPI PUSH3 0x9B6 PUSH3 0x958 JUMP JUMPDEST JUMPDEST POP SWAP2 SWAP1 POP JUMP JUMPDEST PUSH2 0x5977 DUP1 PUSH3 0x9CD PUSH1 0x0 CODECOPY PUSH1 0x0 RETURN INVALID PUSH1 0x80 PUSH1 0x40 MSTORE PUSH1 0x4 CALLDATASIZE LT PUSH2 0x276 JUMPI PUSH1 0x0 CALLDATALOAD PUSH1 0xE0 SHR DUP1 PUSH4 0x76A67A51 GT PUSH2 0x14F JUMPI DUP1 PUSH4 0xC9A6B175 GT PUSH2 0xC1 JUMPI DUP1 PUSH4 0xE0CB990A GT PUSH2 0x7A JUMPI DUP1 PUSH4 0xE0CB990A EQ PUSH2 0xA42 JUMPI DUP1 PUSH4 0xE8EC1AC3 EQ PUSH2 0xA7F JUMPI DUP1 PUSH4 0xF98DF5CA EQ PUSH2 0xAAA JUMPI DUP1 PUSH4 0xFA2DABAD EQ PUSH2 0xAD5 JUMPI DUP1 PUSH4 0xFDF021FB EQ PUSH2 0xB00 JUMPI DUP1 PUSH4 0xFEEBCF19 EQ PUSH2 0xB3D JUMPI PUSH2 0x27D JUMP JUMPDEST DUP1 PUSH4 0xC9A6B175 EQ PUSH2 0x90C JUMPI DUP1 PUSH4 0xCC42AA17 EQ PUSH2 0x949 JUMPI DUP1 PUSH4 0xCD4217C1 EQ PUSH2 0x974 JUMPI DUP1 PUSH4 0xCE74F57C EQ PUSH2 0x9B1 JUMPI DUP1 PUSH4 0xD547741F EQ PUSH2 0x9DC JUMPI DUP1 PUSH4 0xDD62ED3E EQ PUSH2 0xA05 JUMPI PUSH2 0x27D JUMP JUMPDEST DUP1 PUSH4 0x91D14854 GT PUSH2 0x113 JUMPI DUP1 PUSH4 0x91D14854 EQ PUSH2 0x7D6 JUMPI DUP1 PUSH4 0x95D89B41 EQ PUSH2 0x813 JUMPI DUP1 PUSH4 0xA647E8EC EQ PUSH2 0x83E JUMPI DUP1 PUSH4 0xA9059CBB EQ PUSH2 0x867 JUMPI DUP1 PUSH4 0xB8DBF687 EQ PUSH2 0x8A4 JUMPI DUP1 PUSH4 0xBE5F15FC EQ PUSH2 0x8E1 JUMPI PUSH2 0x27D JUMP JUMPDEST DUP1 PUSH4 0x76A67A51 EQ PUSH2 0x6F2 JUMPI DUP1 PUSH4 0x790AA4A3 EQ PUSH2 0x71B JUMPI DUP1 PUSH4 0x813B705C EQ PUSH2 0x758 JUMPI DUP1 PUSH4 0x8A2DDD03 EQ PUSH2 0x781 JUMPI DUP1 PUSH4 0x8E663352 EQ PUSH2 0x798 JUMPI PUSH2 0x27D JUMP JUMPDEST DUP1 PUSH4 0x4A42549A GT PUSH2 0x1E8 JUMPI DUP1 PUSH4 0x5BA27E25 GT PUSH2 0x1AC JUMPI DUP1 PUSH4 0x5BA27E25 EQ PUSH2 0x5BA JUMPI DUP1 PUSH4 0x5C975ABB EQ PUSH2 0x5E5 JUMPI DUP1 PUSH4 0x64E7524D EQ PUSH2 0x610 JUMPI DUP1 PUSH4 0x681D6774 EQ PUSH2 0x64D JUMPI DUP1 PUSH4 0x70A08231 EQ PUSH2 0x68A JUMPI DUP1 PUSH4 0x75B238FC EQ PUSH2 0x6C7 JUMPI PUSH2 0x27D JUMP JUMPDEST DUP1 PUSH4 0x4A42549A EQ PUSH2 0x4E9 JUMPI DUP1 PUSH4 0x57B001F9 EQ PUSH2 0x526 JUMPI DUP1 PUSH4 0x57FBB9DF EQ PUSH2 0x54F JUMPI DUP1 PUSH4 0x58214C8E EQ PUSH2 0x578 JUMPI DUP1 PUSH4 0x595C6A67 EQ PUSH2 0x5A3 JUMPI PUSH2 0x27D JUMP JUMPDEST DUP1 PUSH4 0x23B872DD GT PUSH2 0x23A JUMPI DUP1 PUSH4 0x23B872DD EQ PUSH2 0x38D JUMPI DUP1 PUSH4 0x24A0DBF7 EQ PUSH2 0x3CA JUMPI DUP1 PUSH4 0x3138155E EQ PUSH2 0x407 JUMPI DUP1 PUSH4 0x313CE567 EQ PUSH2 0x444 JUMPI DUP1 PUSH4 0x35D7A052 EQ PUSH2 0x46F JUMPI DUP1 PUSH4 0x48E36E5D EQ PUSH2 0x4AC JUMPI PUSH2 0x27D JUMP JUMPDEST DUP1 PUSH4 0x1FFC9A7 EQ PUSH2 0x27F JUMPI DUP1 PUSH4 0x6FDDE03 EQ PUSH2 0x2BC JUMPI DUP1 PUSH4 0x95EA7B3 EQ PUSH2 0x2E7 JUMPI DUP1 PUSH4 0x18160DDD EQ PUSH2 0x324 JUMPI DUP1 PUSH4 0x20853239 EQ PUSH2 0x34F JUMPI PUSH2 0x27D JUMP JUMPDEST CALLDATASIZE PUSH2 0x27D JUMPI STOP JUMPDEST STOP JUMPDEST CALLVALUE DUP1 ISZERO PUSH2 0x28B JUMPI PUSH1 0x0 DUP1 REVERT JUMPDEST POP PUSH2 0x2A6 PUSH1 0x4 DUP1 CALLDATASIZE SUB DUP2 ADD SWAP1 PUSH2 0x2A1 SWAP2 SWAP1 PUSH2 0x520D JUMP JUMPDEST PUSH2 0xB66 JUMP JUMPDEST PUSH1 0x40 MLOAD PUSH2 0x2B3 SWAP2 SWAP1 PUSH2 0x5255 JUMP JUMPDEST PUSH1 0x40 MLOAD DUP1 SWAP2 SUB SWAP1 RETURN JUMPDEST CALLVALUE DUP1 ISZERO PUSH2 0x2C8 JUMPI PUSH1 0x0 DUP1 REVERT JUMPDEST POP PUSH2 0x2D1 PUSH2 0xDE8 JUMP JUMPDEST PUSH1 0x40 MLOAD PUSH2 0x2DE SWAP2 SWAP1 PUSH2 0x5309 JUMP JUMPDEST PUSH1 0x40 MLOAD DUP1 SWAP2 SUB SWAP1 RETURN JUMPDEST CALLVALUE DUP1 ISZERO PUSH2 0x2F3 JUMPI PUSH1 0x0 DUP1 REVERT JUMPDEST POP PUSH2 0x30E PUSH1 0x4 DUP1 CALLDATASIZE SUB DUP2 ADD SWAP1 PUSH2 0x309 SWAP2 SWAP1 PUSH2 0x53BF JUMP JUMPDEST PUSH2 0xE7A JUMP JUMPDEST PUSH1 0x40 MLOAD PUSH2 0x31B SWAP2 SWAP1 PUSH2 0x5255 JUMP JUMPDEST PUSH1 0x40 MLOAD DUP1 SWAP2 SUB SWAP1 RETURN JUMPDEST CALLVALUE DUP1 ISZERO PUSH2 0x330 JUMPI PUSH1 0x0 DUP1 REVERT JUMPDEST POP PUSH2 0x339 PUSH2 0xF7D JUMP JUMPDEST PUSH1 0x40 MLOAD PUSH2 0x346 SWAP2 SWAP1 PUSH2 0x540E JUMP JUMPDEST PUSH1 0x40 MLOAD DUP1 SWAP2 SUB SWAP1 RETURN JUMPDEST CALLVALUE DUP1 ISZERO PUSH2 0x35B JUMPI PUSH1 0x0 DUP1 REVERT JUMPDEST POP PUSH2 0x376 PUSH1 0x4 DUP1 CALLDATASIZE SUB DUP2 ADD SWAP1 PUSH2 0x371 SWAP2 SWAP1 PUSH2 0x5429 JUMP JUMPDEST PUSH2 0xF87 JUMP JUMPDEST PUSH1 0x40 MLOAD PUSH2 0x384 SWAP3 SWAP2 SWAP1 PUSH2 0x546F JUMP JUMPDEST PUSH1 0x40 MLOAD DUP1 SWAP2 SUB SWAP1 RETURN JUMPDEST CALLVALUE DUP1 ISZERO PUSH2 0x399 JUMPI PUSH1 0x0 DUP1 REVERT JUMPDEST POP PUSH2 0x3B4 PUSH1 0x4 DUP1 CALLDATASIZE SUB DUP2 ADD SWAP1 PUSH2 0x3AF SWAP2 SWAP1 PUSH2 0x5498 JUMP JUMPDEST PUSH2 0xFB8 JUMP JUMPDEST PUSH1 0x40 MLOAD PUSH2 0x3C1 SWAP2 SWAP1 PUSH2 0x5255 JUMP JUMPDEST PUSH1 0x40 MLOAD DUP1 SWAP2 SUB SWAP1 RETURN JUMPDEST CALLVALUE DUP1 ISZERO PUSH2 0x3D6 JUMPI PUSH1 0x0 DUP1 REVERT JUMPDEST POP PUSH2 0x3F1 PUSH1 0x4 DUP1 CALLDATASIZE SUB DUP2 ADD SWAP1 PUSH2 0x3EC SWAP2 SWAP1 PUSH2 0x54EB JUMP JUMPDEST PUSH2 0x1237 JUMP JUMPDEST PUSH1 0x40 MLOAD PUSH2 0x3FE SWAP2 SWAP1 PUSH2 0x540E JUMP JUMPDEST PUSH1 0x40 MLOAD DUP1 SWAP2 SUB SWAP1 RETURN JUMPDEST CALLVALUE DUP1 ISZERO PUSH2 0x413 JUMPI PUSH1 0x0 DUP1 REVERT JUMPDEST POP PUSH2 0x42E PUSH1 0x4 DUP1 CALLDATASIZE SUB DUP2 ADD SWAP1 PUSH2 0x429 SWAP2 SWAP1 PUSH2 0x5498 JUMP JUMPDEST PUSH2 0x1333 JUMP JUMPDEST PUSH1 0x40 MLOAD PUSH2 0x43B SWAP2 SWAP1 PUSH2 0x5255 JUMP JUMPDEST PUSH1 0x40 MLOAD DUP1 SWAP2 SUB SWAP1 RETURN JUMPDEST CALLVALUE DUP1 ISZERO PUSH2 0x450 JUMPI PUSH1 0x0 DUP1 REVERT JUMPDEST POP PUSH2 0x459 PUSH2 0x178A JUMP JUMPDEST PUSH1 0x40 MLOAD PUSH2 0x466 SWAP2 SWAP1 PUSH2 0x5547 JUMP JUMPDEST PUSH1 0x40 MLOAD DUP1 SWAP2 SUB SWAP1 RETURN JUMPDEST CALLVALUE DUP1 ISZERO PUSH2 0x47B JUMPI PUSH1 0x0 DUP1 REVERT JUMPDEST POP PUSH2 0x496 PUSH1 0x4 DUP1 CALLDATASIZE SUB DUP2 ADD SWAP1 PUSH2 0x491 SWAP2 SWAP1 PUSH2 0x54EB JUMP JUMPDEST PUSH2 0x1793 JUMP JUMPDEST PUSH1 0x40 MLOAD PUSH2 0x4A3 SWAP2 SWAP1 PUSH2 0x540E JUMP JUMPDEST PUSH1 0x40 MLOAD DUP1 SWAP2 SUB SWAP1 RETURN JUMPDEST CALLVALUE DUP1 ISZERO PUSH2 0x4B8 JUMPI PUSH1 0x0 DUP1 REVERT JUMPDEST POP PUSH2 0x4D3 PUSH1 0x4 DUP1 CALLDATASIZE SUB DUP2 ADD SWAP1 PUSH2 0x4CE SWAP2 SWAP1 PUSH2 0x5429 JUMP JUMPDEST PUSH2 0x188F JUMP JUMPDEST PUSH1 0x40 MLOAD PUSH2 0x4E0 SWAP2 SWAP1 PUSH2 0x5255 JUMP JUMPDEST PUSH1 0x40 MLOAD DUP1 SWAP2 SUB SWAP1 RETURN JUMPDEST CALLVALUE DUP1 ISZERO PUSH2 0x4F5 JUMPI PUSH1 0x0 DUP1 REVERT JUMPDEST POP PUSH2 0x510 PUSH1 0x4 DUP1 CALLDATASIZE SUB DUP2 ADD SWAP1 PUSH2 0x50B SWAP2 SWAP1 PUSH2 0x5562 JUMP JUMPDEST PUSH2 0x18E5 JUMP JUMPDEST PUSH1 0x40 MLOAD PUSH2 0x51D SWAP2 SWAP1 PUSH2 0x5255 JUMP JUMPDEST PUSH1 0x40 MLOAD DUP1 SWAP2 SUB SWAP1 RETURN JUMPDEST CALLVALUE DUP1 ISZERO PUSH2 0x532 JUMPI PUSH1 0x0 DUP1 REVERT JUMPDEST POP PUSH2 0x54D PUSH1 0x4 DUP1 CALLDATASIZE SUB DUP2 ADD SWAP1 PUSH2 0x548 SWAP2 SWAP1 PUSH2 0x5429 JUMP JUMPDEST PUSH2 0x1BCE JUMP JUMPDEST STOP JUMPDEST CALLVALUE DUP1 ISZERO PUSH2 0x55B JUMPI PUSH1 0x0 DUP1 REVERT JUMPDEST POP PUSH2 0x576 PUSH1 0x4 DUP1 CALLDATASIZE SUB DUP2 ADD SWAP1 PUSH2 0x571 SWAP2 SWAP1 PUSH2 0x5429 JUMP JUMPDEST PUSH2 0x1DD1 JUMP JUMPDEST STOP JUMPDEST CALLVALUE DUP1 ISZERO PUSH2 0x584 JUMPI PUSH1 0x0 DUP1 REVERT JUMPDEST POP PUSH2 0x58D PUSH2 0x1E88 JUMP JUMPDEST PUSH1 0x40 MLOAD PUSH2 0x59A SWAP2 SWAP1 PUSH2 0x55B5 JUMP JUMPDEST PUSH1 0x40 MLOAD DUP1 SWAP2 SUB SWAP1 RETURN JUMPDEST CALLVALUE DUP1 ISZERO PUSH2 0x5AF JUMPI PUSH1 0x0 DUP1 REVERT JUMPDEST POP PUSH2 0x5B8 PUSH2 0x1EAC JUMP JUMPDEST STOP JUMPDEST CALLVALUE DUP1 ISZERO PUSH2 0x5C6 JUMPI PUSH1 0x0 DUP1 REVERT JUMPDEST POP PUSH2 0x5CF PUSH2 0x1F79 JUMP JUMPDEST PUSH1 0x40 MLOAD PUSH2 0x5DC SWAP2 SWAP1 PUSH2 0x55DF JUMP JUMPDEST PUSH1 0x40 MLOAD DUP1 SWAP2 SUB SWAP1 RETURN JUMPDEST CALLVALUE DUP1 ISZERO PUSH2 0x5F1 JUMPI PUSH1 0x0 DUP1 REVERT JUMPDEST POP PUSH2 0x5FA PUSH2 0x1F91 JUMP JUMPDEST PUSH1 0x40 MLOAD PUSH2 0x607 SWAP2 SWAP1 PUSH2 0x5255 JUMP JUMPDEST PUSH1 0x40 MLOAD DUP1 SWAP2 SUB SWAP1 RETURN JUMPDEST CALLVALUE DUP1 ISZERO PUSH2 0x61C JUMPI PUSH1 0x0 DUP1 REVERT JUMPDEST POP PUSH2 0x637 PUSH1 0x4 DUP1 CALLDATASIZE SUB DUP2 ADD SWAP1 PUSH2 0x632 SWAP2 SWAP1 PUSH2 0x55FA JUMP JUMPDEST PUSH2 0x1FA8 JUMP JUMPDEST PUSH1 0x40 MLOAD PUSH2 0x644 SWAP2 SWAP1 PUSH2 0x5255 JUMP JUMPDEST PUSH1 0x40 MLOAD DUP1 SWAP2 SUB SWAP1 RETURN JUMPDEST CALLVALUE DUP1 ISZERO PUSH2 0x659 JUMPI PUSH1 0x0 DUP1 REVERT JUMPDEST POP PUSH2 0x674 PUSH1 0x4 DUP1 CALLDATASIZE SUB DUP2 ADD SWAP1 PUSH2 0x66F SWAP2 SWAP1 PUSH2 0x5562 JUMP JUMPDEST PUSH2 0x23BF JUMP JUMPDEST PUSH1 0x40 MLOAD PUSH2 0x681 SWAP2 SWAP1 PUSH2 0x5255 JUMP JUMPDEST PUSH1 0x40 MLOAD DUP1 SWAP2 SUB SWAP1 RETURN JUMPDEST CALLVALUE DUP1 ISZERO PUSH2 0x696 JUMPI PUSH1 0x0 DUP1 REVERT JUMPDEST POP PUSH2 0x6B1 PUSH1 0x4 DUP1 CALLDATASIZE SUB DUP2 ADD SWAP1 PUSH2 0x6AC SWAP2 SWAP1 PUSH2 0x5429 JUMP JUMPDEST PUSH2 0x2697 JUMP JUMPDEST PUSH1 0x40 MLOAD PUSH2 0x6BE SWAP2 SWAP1 PUSH2 0x540E JUMP JUMPDEST PUSH1 0x40 MLOAD DUP1 SWAP2 SUB SWAP1 RETURN JUMPDEST CALLVALUE DUP1 ISZERO PUSH2 0x6D3 JUMPI PUSH1 0x0 DUP1 REVERT JUMPDEST POP PUSH2 0x6DC PUSH2 0x26E0 JUMP JUMPDEST PUSH1 0x40 MLOAD PUSH2 0x6E9 SWAP2 SWAP1 PUSH2 0x55B5 JUMP JUMPDEST PUSH1 0x40 MLOAD DUP1 SWAP2 SUB SWAP1 RETURN JUMPDEST CALLVALUE DUP1 ISZERO PUSH2 0x6FE JUMPI PUSH1 0x0 DUP1 REVERT JUMPDEST POP PUSH2 0x719 PUSH1 0x4 DUP1 CALLDATASIZE SUB DUP2 ADD SWAP1 PUSH2 0x714 SWAP2 SWAP1 PUSH2 0x5429 JUMP JUMPDEST PUSH2 0x2704 JUMP JUMPDEST STOP JUMPDEST CALLVALUE DUP1 ISZERO PUSH2 0x727 JUMPI PUSH1 0x0 DUP1 REVERT JUMPDEST POP PUSH2 0x742 PUSH1 0x4 DUP1 CALLDATASIZE SUB DUP2 ADD SWAP1 PUSH2 0x73D SWAP2 SWAP1 PUSH2 0x5498 JUMP JUMPDEST PUSH2 0x2907 JUMP JUMPDEST PUSH1 0x40 MLOAD PUSH2 0x74F SWAP2 SWAP1 PUSH2 0x5255 JUMP JUMPDEST PUSH1 0x40 MLOAD DUP1 SWAP2 SUB SWAP1 RETURN JUMPDEST CALLVALUE DUP1 ISZERO PUSH2 0x764 JUMPI PUSH1 0x0 DUP1 REVERT JUMPDEST POP PUSH2 0x77F PUSH1 0x4 DUP1 CALLDATASIZE SUB DUP2 ADD SWAP1 PUSH2 0x77A SWAP2 SWAP1 PUSH2 0x5429 JUMP JUMPDEST PUSH2 0x2B9D JUMP JUMPDEST STOP JUMPDEST CALLVALUE DUP1 ISZERO PUSH2 0x78D JUMPI PUSH1 0x0 DUP1 REVERT JUMPDEST POP PUSH2 0x796 PUSH2 0x2D96 JUMP JUMPDEST STOP JUMPDEST CALLVALUE DUP1 ISZERO PUSH2 0x7A4 JUMPI PUSH1 0x0 DUP1 REVERT JUMPDEST POP PUSH2 0x7BF PUSH1 0x4 DUP1 CALLDATASIZE SUB DUP2 ADD SWAP1 PUSH2 0x7BA SWAP2 SWAP1 PUSH2 0x5661 JUMP JUMPDEST PUSH2 0x2E63 JUMP JUMPDEST PUSH1 0x40 MLOAD PUSH2 0x7CD SWAP3 SWAP2 SWAP1 PUSH2 0x56C8 JUMP JUMPDEST PUSH1 0x40 MLOAD DUP1 SWAP2 SUB SWAP1 RETURN JUMPDEST CALLVALUE DUP1 ISZERO PUSH2 0x7E2 JUMPI PUSH1 0x0 DUP1 REVERT JUMPDEST POP PUSH2 0x7FD PUSH1 0x4 DUP1 CALLDATASIZE SUB DUP2 ADD SWAP1 PUSH2 0x7F8 SWAP2 SWAP1 PUSH2 0x571D JUMP JUMPDEST PUSH2 0x31CC JUMP JUMPDEST PUSH1 0x40 MLOAD PUSH2 0x80A SWAP2 SWAP1 PUSH2 0x5255 JUMP JUMPDEST PUSH1 0x40 MLOAD DUP1 SWAP2 SUB SWAP1 RETURN JUMPDEST CALLVALUE DUP1 ISZERO PUSH2 0x81F JUMPI PUSH1 0x0 DUP1 REVERT JUMPDEST POP PUSH2 0x828 PUSH2 0x31E0 JUMP JUMPDEST PUSH1 0x40 MLOAD PUSH2 0x835 SWAP2 SWAP1 PUSH2 0x5309 JUMP JUMPDEST PUSH1 0x40 MLOAD DUP1 SWAP2 SUB SWAP1 RETURN JUMPDEST CALLVALUE DUP1 ISZERO PUSH2 0x84A JUMPI PUSH1 0x0 DUP1 REVERT JUMPDEST POP PUSH2 0x865 PUSH1 0x4 DUP1 CALLDATASIZE SUB DUP2 ADD SWAP1 PUSH2 0x860 SWAP2 SWAP1 PUSH2 0x5661 JUMP JUMPDEST PUSH2 0x3272 JUMP JUMPDEST STOP JUMPDEST CALLVALUE DUP1 ISZERO PUSH2 0x873 JUMPI PUSH1 0x0 DUP1 REVERT JUMPDEST POP PUSH2 0x88E PUSH1 0x4 DUP1 CALLDATASIZE SUB DUP2 ADD SWAP1 PUSH2 0x889 SWAP2 SWAP1 PUSH2 0x53BF JUMP JUMPDEST PUSH2 0x355F JUMP JUMPDEST PUSH1 0x40 MLOAD PUSH2 0x89B SWAP2 SWAP1 PUSH2 0x5255 JUMP JUMPDEST PUSH1 0x40 MLOAD DUP1 SWAP2 SUB SWAP1 RETURN JUMPDEST CALLVALUE DUP1 ISZERO PUSH2 0x8B0 JUMPI PUSH1 0x0 DUP1 REVERT JUMPDEST POP PUSH2 0x8CB PUSH1 0x4 DUP1 CALLDATASIZE SUB DUP2 ADD SWAP1 PUSH2 0x8C6 SWAP2 SWAP1 PUSH2 0x5562 JUMP JUMPDEST PUSH2 0x3714 JUMP JUMPDEST PUSH1 0x40 MLOAD PUSH2 0x8D8 SWAP2 SWAP1 PUSH2 0x540E JUMP JUMPDEST PUSH1 0x40 MLOAD DUP1 SWAP2 SUB SWAP1 RETURN JUMPDEST CALLVALUE DUP1 ISZERO PUSH2 0x8ED JUMPI PUSH1 0x0 DUP1 REVERT JUMPDEST POP PUSH2 0x8F6 PUSH2 0x3976 JUMP JUMPDEST PUSH1 0x40 MLOAD PUSH2 0x903 SWAP2 SWAP1 PUSH2 0x55DF JUMP JUMPDEST PUSH1 0x40 MLOAD DUP1 SWAP2 SUB SWAP1 RETURN JUMPDEST CALLVALUE DUP1 ISZERO PUSH2 0x918 JUMPI PUSH1 0x0 DUP1 REVERT JUMPDEST POP PUSH2 0x933 PUSH1 0x4 DUP1 CALLDATASIZE SUB DUP2 ADD SWAP1 PUSH2 0x92E SWAP2 SWAP1 PUSH2 0x5429 JUMP JUMPDEST PUSH2 0x398E JUMP JUMPDEST PUSH1 0x40 MLOAD PUSH2 0x940 SWAP2 SWAP1 PUSH2 0x55B5 JUMP JUMPDEST PUSH1 0x40 MLOAD DUP1 SWAP2 SUB SWAP1 RETURN JUMPDEST CALLVALUE DUP1 ISZERO PUSH2 0x955 JUMPI PUSH1 0x0 DUP1 REVERT JUMPDEST POP PUSH2 0x95E PUSH2 0x39A6 JUMP JUMPDEST PUSH1 0x40 MLOAD PUSH2 0x96B SWAP2 SWAP1 PUSH2 0x55DF JUMP JUMPDEST PUSH1 0x40 MLOAD DUP1 SWAP2 SUB SWAP1 RETURN JUMPDEST CALLVALUE DUP1 ISZERO PUSH2 0x980 JUMPI PUSH1 0x0 DUP1 REVERT JUMPDEST POP PUSH2 0x99B PUSH1 0x4 DUP1 CALLDATASIZE SUB DUP2 ADD SWAP1 PUSH2 0x996 SWAP2 SWAP1 PUSH2 0x5429 JUMP JUMPDEST PUSH2 0x39BD JUMP JUMPDEST PUSH1 0x40 MLOAD PUSH2 0x9A8 SWAP2 SWAP1 PUSH2 0x540E JUMP JUMPDEST PUSH1 0x40 MLOAD DUP1 SWAP2 SUB SWAP1 RETURN JUMPDEST CALLVALUE DUP1 ISZERO PUSH2 0x9BD JUMPI PUSH1 0x0 DUP1 REVERT JUMPDEST POP PUSH2 0x9C6 PUSH2 0x3A06 JUMP JUMPDEST PUSH1 0x40 MLOAD PUSH2 0x9D3 SWAP2 SWAP1 PUSH2 0x55DF JUMP JUMPDEST PUSH1 0x40 MLOAD DUP1 SWAP2 SUB SWAP1 RETURN JUMPDEST CALLVALUE DUP1 ISZERO PUSH2 0x9E8 JUMPI PUSH1 0x0 DUP1 REVERT JUMPDEST POP PUSH2 0xA03 PUSH1 0x4 DUP1 CALLDATASIZE SUB DUP2 ADD SWAP1 PUSH2 0x9FE SWAP2 SWAP1 PUSH2 0x571D JUMP JUMPDEST PUSH2 0x3A1D JUMP JUMPDEST STOP JUMPDEST CALLVALUE DUP1 ISZERO PUSH2 0xA11 JUMPI PUSH1 0x0 DUP1 REVERT JUMPDEST POP PUSH2 0xA2C PUSH1 0x4 DUP1 CALLDATASIZE SUB DUP2 ADD SWAP1 PUSH2 0xA27 SWAP2 SWAP1 PUSH2 0x575D JUMP JUMPDEST PUSH2 0x3A98 JUMP JUMPDEST PUSH1 0x40 MLOAD PUSH2 0xA39 SWAP2 SWAP1 PUSH2 0x540E JUMP JUMPDEST PUSH1 0x40 MLOAD DUP1 SWAP2 SUB SWAP1 RETURN JUMPDEST CALLVALUE DUP1 ISZERO PUSH2 0xA4E JUMPI PUSH1 0x0 DUP1 REVERT JUMPDEST POP PUSH2 0xA69 PUSH1 0x4 DUP1 CALLDATASIZE SUB DUP2 ADD SWAP1 PUSH2 0xA64 SWAP2 SWAP1 PUSH2 0x5562 JUMP JUMPDEST PUSH2 0x3B1F JUMP JUMPDEST PUSH1 0x40 MLOAD PUSH2 0xA76 SWAP2 SWAP1 PUSH2 0x5255 JUMP JUMPDEST PUSH1 0x40 MLOAD DUP1 SWAP2 SUB SWAP1 RETURN JUMPDEST CALLVALUE DUP1 ISZERO PUSH2 0xA8B JUMPI PUSH1 0x0 DUP1 REVERT JUMPDEST POP PUSH2 0xA94 PUSH2 0x3DC6 JUMP JUMPDEST PUSH1 0x40 MLOAD PUSH2 0xAA1 SWAP2 SWAP1 PUSH2 0x55DF JUMP JUMPDEST PUSH1 0x40 MLOAD DUP1 SWAP2 SUB SWAP1 RETURN JUMPDEST CALLVALUE DUP1 ISZERO PUSH2 0xAB6 JUMPI PUSH1 0x0 DUP1 REVERT JUMPDEST POP PUSH2 0xABF PUSH2 0x3DDE JUMP JUMPDEST PUSH1 0x40 MLOAD PUSH2 0xACC SWAP2 SWAP1 PUSH2 0x55DF JUMP JUMPDEST PUSH1 0x40 MLOAD DUP1 SWAP2 SUB SWAP1 RETURN JUMPDEST CALLVALUE DUP1 ISZERO PUSH2 0xAE1 JUMPI PUSH1 0x0 DUP1 REVERT JUMPDEST POP PUSH2 0xAEA PUSH2 0x3DF6 JUMP JUMPDEST PUSH1 0x40 MLOAD PUSH2 0xAF7 SWAP2 SWAP1 PUSH2 0x55B5 JUMP JUMPDEST PUSH1 0x40 MLOAD DUP1 SWAP2 SUB SWAP1 RETURN JUMPDEST CALLVALUE DUP1 ISZERO PUSH2 0xB0C JUMPI PUSH1 0x0 DUP1 REVERT JUMPDEST POP PUSH2 0xB27 PUSH1 0x4 DUP1 CALLDATASIZE SUB DUP2 ADD SWAP1 PUSH2 0xB22 SWAP2 SWAP1 PUSH2 0x5562 JUMP JUMPDEST PUSH2 0x3E1A JUMP JUMPDEST PUSH1 0x40 MLOAD PUSH2 0xB34 SWAP2 SWAP1 PUSH2 0x540E JUMP JUMPDEST PUSH1 0x40 MLOAD DUP1 SWAP2 SUB SWAP1 RETURN JUMPDEST CALLVALUE DUP1 ISZERO PUSH2 0xB49 JUMPI PUSH1 0x0 DUP1 REVERT JUMPDEST POP PUSH2 0xB64 PUSH1 0x4 DUP1 CALLDATASIZE SUB DUP2 ADD SWAP1 PUSH2 0xB5F SWAP2 SWAP1 PUSH2 0x579D JUMP JUMPDEST PUSH2 0x407C JUMP JUMPDEST STOP JUMPDEST PUSH1 0x0 PUSH32 0x942E8B2200000000000000000000000000000000000000000000000000000000 PUSH28 0xFFFFFFFFFFFFFFFFFFFFFFFFFFFFFFFFFFFFFFFFFFFFFFFFFFFFFFFF NOT AND DUP3 PUSH28 0xFFFFFFFFFFFFFFFFFFFFFFFFFFFFFFFFFFFFFFFFFFFFFFFFFFFFFFFF NOT AND EQ DUP1 PUSH2 0xC31 JUMPI POP PUSH32 0xBB9E0E4700000000000000000000000000000000000000000000000000000000 PUSH28 0xFFFFFFFFFFFFFFFFFFFFFFFFFFFFFFFFFFFFFFFFFFFFFFFFFFFFFFFF NOT AND DUP3 PUSH28 0xFFFFFFFFFFFFFFFFFFFFFFFFFFFFFFFFFFFFFFFFFFFFFFFFFFFFFFFF NOT AND EQ JUMPDEST DUP1 PUSH2 0xC99 JUMPI POP PUSH32 0x8E66335200000000000000000000000000000000000000000000000000000000 PUSH28 0xFFFFFFFFFFFFFFFFFFFFFFFFFFFFFFFFFFFFFFFFFFFFFFFFFFFFFFFF NOT AND DUP3 PUSH28 0xFFFFFFFFFFFFFFFFFFFFFFFFFFFFFFFFFFFFFFFFFFFFFFFFFFFFFFFF NOT AND EQ JUMPDEST DUP1 PUSH2 0xD01 JUMPI POP PUSH32 0xA647E8EC00000000000000000000000000000000000000000000000000000000 PUSH28 0xFFFFFFFFFFFFFFFFFFFFFFFFFFFFFFFFFFFFFFFFFFFFFFFFFFFFFFFF NOT AND DUP3 PUSH28 0xFFFFFFFFFFFFFFFFFFFFFFFFFFFFFFFFFFFFFFFFFFFFFFFFFFFFFFFF NOT AND EQ JUMPDEST DUP1 PUSH2 0xD69 JUMPI POP PUSH32 0xE613F82A00000000000000000000000000000000000000000000000000000000 PUSH28 0xFFFFFFFFFFFFFFFFFFFFFFFFFFFFFFFFFFFFFFFFFFFFFFFFFFFFFFFF NOT AND DUP3 PUSH28 0xFFFFFFFFFFFFFFFFFFFFFFFFFFFFFFFFFFFFFFFFFFFFFFFFFFFFFFFF NOT AND EQ JUMPDEST DUP1 PUSH2 0xDD1 JUMPI POP PUSH32 0x991EBB1800000000000000000000000000000000000000000000000000000000 PUSH28 0xFFFFFFFFFFFFFFFFFFFFFFFFFFFFFFFFFFFFFFFFFFFFFFFFFFFFFFFF NOT AND DUP3 PUSH28 0xFFFFFFFFFFFFFFFFFFFFFFFFFFFFFFFFFFFFFFFFFFFFFFFFFFFFFFFF NOT AND EQ JUMPDEST DUP1 PUSH2 0xDE1 JUMPI POP PUSH2 0xDE0 DUP3 PUSH2 0x424D JUMP JUMPDEST JUMPDEST SWAP1 POP SWAP2 SWAP1 POP JUMP JUMPDEST PUSH1 0x60 PUSH1 0xA DUP1 SLOAD PUSH2 0xDF7 SWAP1 PUSH2 0x581F JUMP JUMPDEST DUP1 PUSH1 0x1F ADD PUSH1 0x20 DUP1 SWAP2 DIV MUL PUSH1 0x20 ADD PUSH1 0x40 MLOAD SWAP1 DUP2 ADD PUSH1 0x40 MSTORE DUP1 SWAP3 SWAP2 SWAP1 DUP2 DUP2 MSTORE PUSH1 0x20 ADD DUP3 DUP1 SLOAD PUSH2 0xE23 SWAP1 PUSH2 0x581F JUMP JUMPDEST DUP1 ISZERO PUSH2 0xE70 JUMPI DUP1 PUSH1 0x1F LT PUSH2 0xE45 JUMPI PUSH2 0x100 DUP1 DUP4 SLOAD DIV MUL DUP4 MSTORE SWAP2 PUSH1 0x20 ADD SWAP2 PUSH2 0xE70 JUMP JUMPDEST DUP3 ADD SWAP2 SWAP1 PUSH1 0x0 MSTORE PUSH1 0x20 PUSH1 0x0 KECCAK256 SWAP1 JUMPDEST DUP2 SLOAD DUP2 MSTORE SWAP1 PUSH1 0x1 ADD SWAP1 PUSH1 0x20 ADD DUP1 DUP4 GT PUSH2 0xE53 JUMPI DUP3 SWAP1 SUB PUSH1 0x1F AND DUP3 ADD SWAP2 JUMPDEST POP POP POP POP POP SWAP1 POP SWAP1 JUMP JUMPDEST PUSH1 0x0 PUSH2 0xE84 PUSH2 0x1F91 JUMP JUMPDEST ISZERO PUSH2 0xEC6 JUMPI CALLER PUSH1 0x40 MLOAD PUSH32 0x621C564C00000000000000000000000000000000000000000000000000000000 DUP2 MSTORE PUSH1 0x4 ADD PUSH2 0xEBD SWAP2 SWAP1 PUSH2 0x55DF JUMP JUMPDEST PUSH1 0x40 MLOAD DUP1 SWAP2 SUB SWAP1 REVERT JUMPDEST CALLER PUSH2 0xED0 DUP2 PUSH2 0x188F JUMP JUMPDEST ISZERO PUSH2 0xF12 JUMPI DUP1 PUSH1 0x40 MLOAD PUSH32 0x621C564C00000000000000000000000000000000000000000000000000000000 DUP2 MSTORE PUSH1 0x4 ADD PUSH2 0xF09 SWAP2 SWAP1 PUSH2 0x55DF JUMP JUMPDEST PUSH1 0x40 MLOAD DUP1 SWAP2 SUB SWAP1 REVERT JUMPDEST CALLER PUSH1 0x0 DUP1 SHL PUSH2 0xF20 DUP3 PUSH2 0x42C7 JUMP JUMPDEST PUSH1 0x0 ADD SLOAD EQ PUSH2 0xF66 JUMPI DUP1 PUSH1 0x40 MLOAD PUSH32 0x621C564C00000000000000000000000000000000000000000000000000000000 DUP2 MSTORE PUSH1 0x4 ADD PUSH2 0xF5D SWAP2 SWAP1 PUSH2 0x55DF JUMP JUMPDEST PUSH1 0x40 MLOAD DUP1 SWAP2 SUB SWAP1 REVERT JUMPDEST PUSH2 0xF71 CALLER DUP7 DUP7 PUSH2 0x430F JUMP JUMPDEST PUSH1 0x1 SWAP3 POP POP POP SWAP3 SWAP2 POP POP JUMP JUMPDEST PUSH1 0x0 PUSH1 0x9 SLOAD SWAP1 POP SWAP1 JUMP JUMPDEST PUSH1 0x1 PUSH1 0x20 MSTORE DUP1 PUSH1 0x0 MSTORE PUSH1 0x40 PUSH1 0x0 KECCAK256 PUSH1 0x0 SWAP2 POP SWAP1 POP DUP1 PUSH1 0x0 ADD SLOAD SWAP1 DUP1 PUSH1 0x1 ADD PUSH1 0x0 SWAP1 SLOAD SWAP1 PUSH2 0x100 EXP SWAP1 DIV PUSH1 0xFF AND SWAP1 POP DUP3 JUMP JUMPDEST PUSH1 0x0 PUSH2 0xFC2 PUSH2 0x1F91 JUMP JUMPDEST ISZERO PUSH2 0x1004 JUMPI CALLER PUSH1 0x40 MLOAD PUSH32 0x621C564C00000000000000000000000000000000000000000000000000000000 DUP2 MSTORE PUSH1 0x4 ADD PUSH2 0xFFB SWAP2 SWAP1 PUSH2 0x55DF JUMP JUMPDEST PUSH1 0x40 MLOAD DUP1 SWAP2 SUB SWAP1 REVERT JUMPDEST DUP4 DUP4 PUSH2 0x100F DUP3 PUSH2 0x188F JUMP JUMPDEST ISZERO PUSH2 0x1051 JUMPI DUP2 PUSH1 0x40 MLOAD PUSH32 0x621C564C00000000000000000000000000000000000000000000000000000000 DUP2 MSTORE PUSH1 0x4 ADD PUSH2 0x1048 SWAP2 SWAP1 PUSH2 0x55DF JUMP JUMPDEST PUSH1 0x40 MLOAD DUP1 SWAP2 SUB SWAP1 REVERT JUMPDEST PUSH2 0x105A DUP2 PUSH2 0x188F JUMP JUMPDEST ISZERO PUSH2 0x109C JUMPI DUP1 PUSH1 0x40 MLOAD PUSH32 0x621C564C00000000000000000000000000000000000000000000000000000000 DUP2 MSTORE PUSH1 0x4 ADD PUSH2 0x1093 SWAP2 SWAP1 PUSH2 0x55DF JUMP JUMPDEST PUSH1 0x40 MLOAD DUP1 SWAP2 SUB SWAP1 REVERT JUMPDEST CALLER PUSH1 0x0 DUP1 SHL PUSH2 0x10AA DUP3 PUSH2 0x42C7 JUMP JUMPDEST PUSH1 0x0 ADD SLOAD EQ PUSH2 0x10F0 JUMPI DUP1 PUSH1 0x40 MLOAD PUSH32 0x621C564C00000000000000000000000000000000000000000000000000000000 DUP2 MSTORE PUSH1 0x4 ADD PUSH2 0x10E7 SWAP2 SWAP1 PUSH2 0x55DF JUMP JUMPDEST PUSH1 0x40 MLOAD DUP1 SWAP2 SUB SWAP1 REVERT JUMPDEST PUSH2 0x10FB DUP8 DUP8 DUP8 PUSH2 0x454E JUMP JUMPDEST PUSH1 0x0 PUSH1 0x7 PUSH1 0x0 DUP10 PUSH20 0xFFFFFFFFFFFFFFFFFFFFFFFFFFFFFFFFFFFFFFFF AND PUSH20 0xFFFFFFFFFFFFFFFFFFFFFFFFFFFFFFFFFFFFFFFF AND DUP2 MSTORE PUSH1 0x20 ADD SWAP1 DUP2 MSTORE PUSH1 0x20 ADD PUSH1 0x0 KECCAK256 PUSH1 0x0 CALLER PUSH20 0xFFFFFFFFFFFFFFFFFFFFFFFFFFFFFFFFFFFFFFFF AND PUSH20 0xFFFFFFFFFFFFFFFFFFFFFFFFFFFFFFFFFFFFFFFF AND DUP2 MSTORE PUSH1 0x20 ADD SWAP1 DUP2 MSTORE PUSH1 0x20 ADD PUSH1 0x0 KECCAK256 SLOAD SWAP1 POP DUP6 DUP2 LT ISZERO PUSH2 0x11B6 JUMPI PUSH1 0x40 MLOAD PUSH32 0x188284B100000000000000000000000000000000000000000000000000000000 DUP2 MSTORE PUSH1 0x4 ADD PUSH1 0x40 MLOAD DUP1 SWAP2 SUB SWAP1 REVERT JUMPDEST PUSH2 0x11C3 DUP9 CALLER DUP9 DUP5 SUB PUSH2 0x430F JUMP JUMPDEST DUP7 PUSH20 0xFFFFFFFFFFFFFFFFFFFFFFFFFFFFFFFFFFFFFFFF AND DUP9 PUSH20 0xFFFFFFFFFFFFFFFFFFFFFFFFFFFFFFFFFFFFFFFF AND PUSH32 0xDDF252AD1BE2C89B69C2B068FC378DAA952BA7F163C4A11628F55A4DF523B3EF DUP9 PUSH1 0x40 MLOAD PUSH2 0x1220 SWAP2 SWAP1 PUSH2 0x540E JUMP JUMPDEST PUSH1 0x40 MLOAD DUP1 SWAP2 SUB SWAP1 LOG3 PUSH1 0x1 SWAP5 POP POP POP POP POP SWAP4 SWAP3 POP POP POP JUMP JUMPDEST PUSH1 0x0 PUSH2 0x1241 PUSH2 0x1F91 JUMP JUMPDEST ISZERO PUSH2 0x1283 JUMPI CALLER PUSH1 0x40 MLOAD PUSH32 0x621C564C00000000000000000000000000000000000000000000000000000000 DUP2 MSTORE PUSH1 0x4 ADD PUSH2 0x127A SWAP2 SWAP1 PUSH2 0x55DF JUMP JUMPDEST PUSH1 0x40 MLOAD DUP1 SWAP2 SUB SWAP1 REVERT JUMPDEST CALLER PUSH2 0x128D DUP2 PUSH2 0x188F JUMP JUMPDEST ISZERO PUSH2 0x12CF JUMPI DUP1 PUSH1 0x40 MLOAD PUSH32 0x621C564C00000000000000000000000000000000000000000000000000000000 DUP2 MSTORE PUSH1 0x4 ADD PUSH2 0x12C6 SWAP2 SWAP1 PUSH2 0x55DF JUMP JUMPDEST PUSH1 0x40 MLOAD DUP1 SWAP2 SUB SWAP1 REVERT JUMPDEST PUSH2 0x12DA CALLER DUP6 DUP6 PUSH2 0x47C2 JUMP JUMPDEST SWAP2 POP CALLER PUSH20 0xFFFFFFFFFFFFFFFFFFFFFFFFFFFFFFFFFFFFFFFF AND PUSH32 0x7ED75EAF82098257819F0BD6DD7F79062E49152905980263C73EE48565A656A5 DUP6 DUP6 PUSH1 0x40 MLOAD PUSH2 0x1324 SWAP3 SWAP2 SWAP1 PUSH2 0x56C8 JUMP JUMPDEST PUSH1 0x40 MLOAD DUP1 SWAP2 SUB SWAP1 LOG2 POP SWAP3 SWAP2 POP POP JUMP JUMPDEST PUSH1 0x0 PUSH2 0x133D PUSH2 0x1F91 JUMP JUMPDEST ISZERO PUSH2 0x137F JUMPI CALLER PUSH1 0x40 MLOAD PUSH32 0x621C564C00000000000000000000000000000000000000000000000000000000 DUP2 MSTORE PUSH1 0x4 ADD PUSH2 0x1376 SWAP2 SWAP1 PUSH2 0x55DF JUMP JUMPDEST PUSH1 0x40 MLOAD DUP1 SWAP2 SUB SWAP1 REVERT JUMPDEST DUP4 DUP4 PUSH2 0x138A DUP3 PUSH2 0x188F JUMP JUMPDEST ISZERO PUSH2 0x13CC JUMPI DUP2 PUSH1 0x40 MLOAD PUSH32 0x621C564C00000000000000000000000000000000000000000000000000000000 DUP2 MSTORE PUSH1 0x4 ADD PUSH2 0x13C3 SWAP2 SWAP1 PUSH2 0x55DF JUMP JUMPDEST PUSH1 0x40 MLOAD DUP1 SWAP2 SUB SWAP1 REVERT JUMPDEST PUSH2 0x13D5 DUP2 PUSH2 0x188F JUMP JUMPDEST ISZERO PUSH2 0x1417 JUMPI DUP1 PUSH1 0x40 MLOAD PUSH32 0x621C564C00000000000000000000000000000000000000000000000000000000 DUP2 MSTORE PUSH1 0x4 ADD PUSH2 0x140E SWAP2 SWAP1 PUSH2 0x55DF JUMP JUMPDEST PUSH1 0x40 MLOAD DUP1 SWAP2 SUB SWAP1 REVERT JUMPDEST PUSH32 0x36FD43EDE163045B10E1F0ABD16F62F165FCE3FA7B6CDE217BCEA3BC47663ACC PUSH32 0xA49807205CE4D355092EF5A8A18F56E8913CF4A201FBE287825B095693C21775 PUSH2 0x1463 DUP3 CALLER PUSH2 0x4921 JUMP JUMPDEST ISZERO DUP1 ISZERO PUSH2 0x1477 JUMPI POP PUSH2 0x1475 DUP2 CALLER PUSH2 0x4921 JUMP JUMPDEST ISZERO JUMPDEST ISZERO PUSH2 0x14B9 JUMPI CALLER PUSH1 0x40 MLOAD PUSH32 0x3998666E00000000000000000000000000000000000000000000000000000000 DUP2 MSTORE PUSH1 0x4 ADD PUSH2 0x14B0 SWAP2 SWAP1 PUSH2 0x55DF JUMP JUMPDEST PUSH1 0x40 MLOAD DUP1 SWAP2 SUB SWAP1 REVERT JUMPDEST PUSH1 0x0 PUSH1 0x5 PUSH1 0x0 DUP11 PUSH20 0xFFFFFFFFFFFFFFFFFFFFFFFFFFFFFFFFFFFFFFFF AND PUSH20 0xFFFFFFFFFFFFFFFFFFFFFFFFFFFFFFFFFFFFFFFF AND DUP2 MSTORE PUSH1 0x20 ADD SWAP1 DUP2 MSTORE PUSH1 0x20 ADD PUSH1 0x0 KECCAK256 SWAP1 POP PUSH1 0x0 DUP1 SHL DUP2 PUSH1 0x0 ADD SLOAD EQ PUSH2 0x153C JUMPI PUSH1 0x40 MLOAD PUSH32 0xACF89DBA00000000000000000000000000000000000000000000000000000000 DUP2 MSTORE PUSH1 0x4 ADD PUSH1 0x40 MLOAD DUP1 SWAP2 SUB SWAP1 REVERT JUMPDEST PUSH1 0x0 PUSH2 0x1547 CALLER PUSH2 0x42C7 JUMP JUMPDEST SWAP1 POP PUSH32 0xA49807205CE4D355092EF5A8A18F56E8913CF4A201FBE287825B095693C21775 DUP2 PUSH1 0x0 ADD SLOAD EQ DUP1 ISZERO PUSH2 0x15A0 JUMPI POP PUSH32 0xA49807205CE4D355092EF5A8A18F56E8913CF4A201FBE287825B095693C21775 DUP3 PUSH1 0x1 ADD SLOAD EQ ISZERO JUMPDEST ISZERO PUSH2 0x15E2 JUMPI CALLER PUSH1 0x40 MLOAD PUSH32 0x3998666E00000000000000000000000000000000000000000000000000000000 DUP2 MSTORE PUSH1 0x4 ADD PUSH2 0x15D9 SWAP2 SWAP1 PUSH2 0x55DF JUMP JUMPDEST PUSH1 0x40 MLOAD DUP1 SWAP2 SUB SWAP1 REVERT JUMPDEST PUSH1 0x0 PUSH1 0x6 PUSH1 0x0 DUP13 PUSH20 0xFFFFFFFFFFFFFFFFFFFFFFFFFFFFFFFFFFFFFFFF AND PUSH20 0xFFFFFFFFFFFFFFFFFFFFFFFFFFFFFFFFFFFFFFFF AND DUP2 MSTORE PUSH1 0x20 ADD SWAP1 DUP2 MSTORE PUSH1 0x20 ADD PUSH1 0x0 KECCAK256 SLOAD SWAP1 POP DUP9 DUP2 LT ISZERO PUSH2 0x1660 JUMPI PUSH1 0x40 MLOAD PUSH32 0x135D073E00000000000000000000000000000000000000000000000000000000 DUP2 MSTORE PUSH1 0x4 ADD PUSH1 0x40 MLOAD DUP1 SWAP2 SUB SWAP1 REVERT JUMPDEST DUP9 DUP2 SUB PUSH1 0x6 PUSH1 0x0 DUP14 PUSH20 0xFFFFFFFFFFFFFFFFFFFFFFFFFFFFFFFFFFFFFFFF AND PUSH20 0xFFFFFFFFFFFFFFFFFFFFFFFFFFFFFFFFFFFFFFFF AND DUP2 MSTORE PUSH1 0x20 ADD SWAP1 DUP2 MSTORE PUSH1 0x20 ADD PUSH1 0x0 KECCAK256 DUP2 SWAP1 SSTORE POP DUP9 PUSH1 0x6 PUSH1 0x0 DUP13 PUSH20 0xFFFFFFFFFFFFFFFFFFFFFFFFFFFFFFFFFFFFFFFF AND PUSH20 0xFFFFFFFFFFFFFFFFFFFFFFFFFFFFFFFFFFFFFFFF AND DUP2 MSTORE PUSH1 0x20 ADD SWAP1 DUP2 MSTORE PUSH1 0x20 ADD PUSH1 0x0 KECCAK256 PUSH1 0x0 DUP3 DUP3 SLOAD PUSH2 0x16F5 SWAP2 SWAP1 PUSH2 0x5880 JUMP JUMPDEST SWAP3 POP POP DUP2 SWAP1 SSTORE POP DUP10 PUSH20 0xFFFFFFFFFFFFFFFFFFFFFFFFFFFFFFFFFFFFFFFF AND DUP12 PUSH20 0xFFFFFFFFFFFFFFFFFFFFFFFFFFFFFFFFFFFFFFFF AND CALLER PUSH20 0xFFFFFFFFFFFFFFFFFFFFFFFFFFFFFFFFFFFFFFFF AND PUSH32 0x78D37319D24859404254C6B01ECF33675CC834708E42791099D4CF07E84A18B DUP13 PUSH1 0x40 MLOAD PUSH2 0x1770 SWAP2 SWAP1 PUSH2 0x540E JUMP JUMPDEST PUSH1 0x40 MLOAD DUP1 SWAP2 SUB SWAP1 LOG4 PUSH1 0x1 SWAP8 POP POP POP POP POP POP POP POP SWAP4 SWAP3 POP POP POP JUMP JUMPDEST PUSH1 0x0 PUSH1 0x12 SWAP1 POP SWAP1 JUMP JUMPDEST PUSH1 0x0 PUSH2 0x179D PUSH2 0x1F91 JUMP JUMPDEST ISZERO PUSH2 0x17DF JUMPI CALLER PUSH1 0x40 MLOAD PUSH32 0x621C564C00000000000000000000000000000000000000000000000000000000 DUP2 MSTORE PUSH1 0x4 ADD PUSH2 0x17D6 SWAP2 SWAP1 PUSH2 0x55DF JUMP JUMPDEST PUSH1 0x40 MLOAD DUP1 SWAP2 SUB SWAP1 REVERT JUMPDEST CALLER PUSH2 0x17E9 DUP2 PUSH2 0x188F JUMP JUMPDEST ISZERO PUSH2 0x182B JUMPI DUP1 PUSH1 0x40 MLOAD PUSH32 0x621C564C00000000000000000000000000000000000000000000000000000000 DUP2 MSTORE PUSH1 0x4 ADD PUSH2 0x1822 SWAP2 SWAP1 PUSH2 0x55DF JUMP JUMPDEST PUSH1 0x40 MLOAD DUP1 SWAP2 SUB SWAP1 REVERT JUMPDEST PUSH2 0x1836 CALLER DUP6 DUP6 PUSH2 0x49A9 JUMP JUMPDEST SWAP2 POP CALLER PUSH20 0xFFFFFFFFFFFFFFFFFFFFFFFFFFFFFFFFFFFFFFFF AND PUSH32 0x29D06FF78B8C68FCA5225AF637C626C0176C9FCAA163BEEC8E558D4C3AE65B6 DUP6 DUP6 PUSH1 0x40 MLOAD PUSH2 0x1880 SWAP3 SWAP2 SWAP1 PUSH2 0x56C8 JUMP JUMPDEST PUSH1 0x40 MLOAD DUP1 SWAP2 SUB SWAP1 LOG2 POP SWAP3 SWAP2 POP POP JUMP JUMPDEST PUSH1 0x0 PUSH1 0x4 PUSH1 0x0 DUP4 PUSH20 0xFFFFFFFFFFFFFFFFFFFFFFFFFFFFFFFFFFFFFFFF AND PUSH20 0xFFFFFFFFFFFFFFFFFFFFFFFFFFFFFFFFFFFFFFFF AND DUP2 MSTORE PUSH1 0x20 ADD SWAP1 DUP2 MSTORE PUSH1 0x20 ADD PUSH1 0x0 KECCAK256 PUSH1 0x0 SWAP1 SLOAD SWAP1 PUSH2 0x100 EXP SWAP1 DIV PUSH1 0xFF AND SWAP1 POP SWAP2 SWAP1 POP JUMP JUMPDEST PUSH1 0x0 PUSH2 0x18EF PUSH2 0x1F91 JUMP JUMPDEST ISZERO PUSH2 0x1931 JUMPI CALLER PUSH1 0x40 MLOAD PUSH32 0x621C564C00000000000000000000000000000000000000000000000000000000 DUP2 MSTORE PUSH1 0x4 ADD PUSH2 0x1928 SWAP2 SWAP1 PUSH2 0x55DF JUMP JUMPDEST PUSH1 0x40 MLOAD DUP1 SWAP2 SUB SWAP1 REVERT JUMPDEST CALLER DUP5 PUSH2 0x193C DUP3 PUSH2 0x188F JUMP JUMPDEST ISZERO PUSH2 0x197E JUMPI DUP2 PUSH1 0x40 MLOAD PUSH32 0x621C564C00000000000000000000000000000000000000000000000000000000 DUP2 MSTORE PUSH1 0x4 ADD PUSH2 0x1975 SWAP2 SWAP1 PUSH2 0x55DF JUMP JUMPDEST PUSH1 0x40 MLOAD DUP1 SWAP2 SUB SWAP1 REVERT JUMPDEST PUSH2 0x1987 DUP2 PUSH2 0x188F JUMP JUMPDEST ISZERO PUSH2 0x19C9 JUMPI DUP1 PUSH1 0x40 MLOAD PUSH32 0x621C564C00000000000000000000000000000000000000000000000000000000 DUP2 MSTORE PUSH1 0x4 ADD PUSH2 0x19C0 SWAP2 SWAP1 PUSH2 0x55DF JUMP JUMPDEST PUSH1 0x40 MLOAD DUP1 SWAP2 SUB SWAP1 REVERT JUMPDEST CALLER PUSH1 0x0 DUP1 SHL PUSH2 0x19D7 DUP3 PUSH2 0x42C7 JUMP JUMPDEST PUSH1 0x0 ADD SLOAD EQ PUSH2 0x1A1D JUMPI DUP1 PUSH1 0x40 MLOAD PUSH32 0x621C564C00000000000000000000000000000000000000000000000000000000 DUP2 MSTORE PUSH1 0x4 ADD PUSH2 0x1A14 SWAP2 SWAP1 PUSH2 0x55DF JUMP JUMPDEST PUSH1 0x40 MLOAD DUP1 SWAP2 SUB SWAP1 REVERT JUMPDEST PUSH1 0x0 PUSH1 0x7 PUSH1 0x0 CALLER PUSH20 0xFFFFFFFFFFFFFFFFFFFFFFFFFFFFFFFFFFFFFFFF AND PUSH20 0xFFFFFFFFFFFFFFFFFFFFFFFFFFFFFFFFFFFFFFFF AND DUP2 MSTORE PUSH1 0x20 ADD SWAP1 DUP2 MSTORE PUSH1 0x20 ADD PUSH1 0x0 KECCAK256 PUSH1 0x0 DUP10 PUSH20 0xFFFFFFFFFFFFFFFFFFFFFFFFFFFFFFFFFFFFFFFF AND PUSH20 0xFFFFFFFFFFFFFFFFFFFFFFFFFFFFFFFFFFFFFFFF AND DUP2 MSTORE PUSH1 0x20 ADD SWAP1 DUP2 MSTORE PUSH1 0x20 ADD PUSH1 0x0 KECCAK256 SLOAD SWAP1 POP DUP7 DUP2 EQ PUSH2 0x1AD7 JUMPI PUSH1 0x40 MLOAD PUSH32 0x188284B100000000000000000000000000000000000000000000000000000000 DUP2 MSTORE PUSH1 0x4 ADD PUSH1 0x40 MLOAD DUP1 SWAP2 SUB SWAP1 REVERT JUMPDEST DUP6 PUSH1 0x7 PUSH1 0x0 CALLER PUSH20 0xFFFFFFFFFFFFFFFFFFFFFFFFFFFFFFFFFFFFFFFF AND PUSH20 0xFFFFFFFFFFFFFFFFFFFFFFFFFFFFFFFFFFFFFFFF AND DUP2 MSTORE PUSH1 0x20 ADD SWAP1 DUP2 MSTORE PUSH1 0x20 ADD PUSH1 0x0 KECCAK256 PUSH1 0x0 DUP11 PUSH20 0xFFFFFFFFFFFFFFFFFFFFFFFFFFFFFFFFFFFFFFFF AND PUSH20 0xFFFFFFFFFFFFFFFFFFFFFFFFFFFFFFFFFFFFFFFF AND DUP2 MSTORE PUSH1 0x20 ADD SWAP1 DUP2 MSTORE PUSH1 0x20 ADD PUSH1 0x0 KECCAK256 DUP2 SWAP1 SSTORE POP DUP8 PUSH20 0xFFFFFFFFFFFFFFFFFFFFFFFFFFFFFFFFFFFFFFFF AND CALLER PUSH20 0xFFFFFFFFFFFFFFFFFFFFFFFFFFFFFFFFFFFFFFFF AND PUSH32 0x85ECBD9E6B47A8C64C0C5B4998F064973A3A6E6987C83A8FD61F1D2DE09735BC DUP4 DUP10 PUSH1 0x40 MLOAD PUSH2 0x1BB7 SWAP3 SWAP2 SWAP1 PUSH2 0x56C8 JUMP JUMPDEST PUSH1 0x40 MLOAD DUP1 SWAP2 SUB SWAP1 LOG3 PUSH1 0x1 SWAP5 POP POP POP POP POP SWAP4 SWAP3 POP POP POP JUMP JUMPDEST PUSH32 0x36FD43EDE163045B10E1F0ABD16F62F165FCE3FA7B6CDE217BCEA3BC47663ACC PUSH32 0xA49807205CE4D355092EF5A8A18F56E8913CF4A201FBE287825B095693C21775 PUSH2 0x1C1A DUP3 CALLER PUSH2 0x4921 JUMP JUMPDEST ISZERO DUP1 ISZERO PUSH2 0x1C2E JUMPI POP PUSH2 0x1C2C DUP2 CALLER PUSH2 0x4921 JUMP JUMPDEST ISZERO JUMPDEST ISZERO PUSH2 0x1C70 JUMPI CALLER PUSH1 0x40 MLOAD PUSH32 0x3998666E00000000000000000000000000000000000000000000000000000000 DUP2 MSTORE PUSH1 0x4 ADD PUSH2 0x1C67 SWAP2 SWAP1 PUSH2 0x55DF JUMP JUMPDEST PUSH1 0x40 MLOAD DUP1 SWAP2 SUB SWAP1 REVERT JUMPDEST DUP3 PUSH1 0x0 PUSH20 0xFFFFFFFFFFFFFFFFFFFFFFFFFFFFFFFFFFFFFFFF AND DUP2 PUSH20 0xFFFFFFFFFFFFFFFFFFFFFFFFFFFFFFFFFFFFFFFF AND EQ DUP1 PUSH2 0x1CD7 JUMPI POP ADDRESS PUSH20 0xFFFFFFFFFFFFFFFFFFFFFFFFFFFFFFFFFFFFFFFF AND DUP2 PUSH20 0xFFFFFFFFFFFFFFFFFFFFFFFFFFFFFFFFFFFFFFFF AND EQ JUMPDEST ISZERO PUSH2 0x1D19 JUMPI DUP1 PUSH1 0x40 MLOAD PUSH32 0x223A677400000000000000000000000000000000000000000000000000000000 DUP2 MSTORE PUSH1 0x4 ADD PUSH2 0x1D10 SWAP2 SWAP1 PUSH2 0x55DF JUMP JUMPDEST PUSH1 0x40 MLOAD DUP1 SWAP2 SUB SWAP1 REVERT JUMPDEST PUSH1 0x0 PUSH1 0x4 PUSH1 0x0 DUP7 PUSH20 0xFFFFFFFFFFFFFFFFFFFFFFFFFFFFFFFFFFFFFFFF AND PUSH20 0xFFFFFFFFFFFFFFFFFFFFFFFFFFFFFFFFFFFFFFFF AND DUP2 MSTORE PUSH1 0x20 ADD SWAP1 DUP2 MSTORE PUSH1 0x20 ADD PUSH1 0x0 KECCAK256 PUSH1 0x0 PUSH2 0x100 EXP DUP2 SLOAD DUP2 PUSH1 0xFF MUL NOT AND SWAP1 DUP4 ISZERO ISZERO MUL OR SWAP1 SSTORE POP DUP4 PUSH20 0xFFFFFFFFFFFFFFFFFFFFFFFFFFFFFFFFFFFFFFFF AND CALLER PUSH20 0xFFFFFFFFFFFFFFFFFFFFFFFFFFFFFFFFFFFFFFFF AND PUSH32 0x3D072963433794EB417A69355DF67D08BBD73D5076EF653D6863861161D60AF3 PUSH1 0x40 MLOAD PUSH1 0x40 MLOAD DUP1 SWAP2 SUB SWAP1 LOG3 POP POP POP POP JUMP JUMPDEST PUSH32 0x36FD43EDE163045B10E1F0ABD16F62F165FCE3FA7B6CDE217BCEA3BC47663ACC PUSH2 0x1DFC DUP2 CALLER PUSH2 0x4921 JUMP JUMPDEST PUSH2 0x1E3D JUMPI CALLER PUSH1 0x40 MLOAD PUSH32 0x3998666E00000000000000000000000000000000000000000000000000000000 DUP2 MSTORE PUSH1 0x4 ADD PUSH2 0x1E34 SWAP2 SWAP1 PUSH2 0x55DF JUMP JUMPDEST PUSH1 0x40 MLOAD DUP1 SWAP2 SUB SWAP1 REVERT JUMPDEST DUP2 PUSH20 0xFFFFFFFFFFFFFFFFFFFFFFFFFFFFFFFFFFFFFFFF AND PUSH2 0x8FC SELFBALANCE SWAP1 DUP2 ISZERO MUL SWAP1 PUSH1 0x40 MLOAD PUSH1 0x0 PUSH1 0x40 MLOAD DUP1 DUP4 SUB DUP2 DUP6 DUP9 DUP9 CALL SWAP4 POP POP POP POP ISZERO DUP1 ISZERO PUSH2 0x1E83 JUMPI RETURNDATASIZE PUSH1 0x0 DUP1 RETURNDATACOPY RETURNDATASIZE PUSH1 0x0 REVERT JUMPDEST POP POP POP JUMP JUMPDEST PUSH32 0xFB1E607AAAD6CF72E2856E6A77E54638C3076455DBEBF8A209C7ECA75951B07F DUP2 JUMP JUMPDEST PUSH32 0x36FD43EDE163045B10E1F0ABD16F62F165FCE3FA7B6CDE217BCEA3BC47663ACC PUSH2 0x1ED7 DUP2 CALLER PUSH2 0x4921 JUMP JUMPDEST PUSH2 0x1F18 JUMPI CALLER PUSH1 0x40 MLOAD PUSH32 0x3998666E00000000000000000000000000000000000000000000000000000000 DUP2 MSTORE PUSH1 0x4 ADD PUSH2 0x1F0F SWAP2 SWAP1 PUSH2 0x55DF JUMP JUMPDEST PUSH1 0x40 MLOAD DUP1 SWAP2 SUB SWAP1 REVERT JUMPDEST PUSH1 0x1 PUSH1 0x3 PUSH1 0x0 PUSH2 0x100 EXP DUP2 SLOAD DUP2 PUSH1 0xFF MUL NOT AND SWAP1 DUP4 ISZERO ISZERO MUL OR SWAP1 SSTORE POP CALLER PUSH20 0xFFFFFFFFFFFFFFFFFFFFFFFFFFFFFFFFFFFFFFFF AND PUSH32 0xF1005168AEA1429FE9559D51EF6CAA33E6426890864E2E6E41E5D54BAA7BE79F PUSH1 0x40 MLOAD PUSH1 0x40 MLOAD DUP1 SWAP2 SUB SWAP1 LOG2 POP JUMP JUMPDEST PUSH20 0x7EA3CFEFA2B13E493110EDED87E2BA72C115BEC1 DUP2 JUMP JUMPDEST PUSH1 0x0 PUSH1 0x3 PUSH1 0x0 SWAP1 SLOAD SWAP1 PUSH2 0x100 EXP SWAP1 DIV PUSH1 0xFF AND SWAP1 POP SWAP1 JUMP JUMPDEST PUSH1 0x0 PUSH2 0x1FB2 PUSH2 0x1F91 JUMP JUMPDEST ISZERO PUSH2 0x1FF4 JUMPI CALLER PUSH1 0x40 MLOAD PUSH32 0x621C564C00000000000000000000000000000000000000000000000000000000 DUP2 MSTORE PUSH1 0x4 ADD PUSH2 0x1FEB SWAP2 SWAP1 PUSH2 0x55DF JUMP JUMPDEST PUSH1 0x40 MLOAD DUP1 SWAP2 SUB SWAP1 REVERT JUMPDEST DUP5 PUSH2 0x1FFE DUP2 PUSH2 0x188F JUMP JUMPDEST ISZERO PUSH2 0x2040 JUMPI DUP1 PUSH1 0x40 MLOAD PUSH32 0x621C564C00000000000000000000000000000000000000000000000000000000 DUP2 MSTORE PUSH1 0x4 ADD PUSH2 0x2037 SWAP2 SWAP1 PUSH2 0x55DF JUMP JUMPDEST PUSH1 0x40 MLOAD DUP1 SWAP2 SUB SWAP1 REVERT JUMPDEST PUSH32 0x36FD43EDE163045B10E1F0ABD16F62F165FCE3FA7B6CDE217BCEA3BC47663ACC PUSH32 0xA49807205CE4D355092EF5A8A18F56E8913CF4A201FBE287825B095693C21775 PUSH2 0x208C DUP3 CALLER PUSH2 0x4921 JUMP JUMPDEST ISZERO DUP1 ISZERO PUSH2 0x20A0 JUMPI POP PUSH2 0x209E DUP2 CALLER PUSH2 0x4921 JUMP JUMPDEST ISZERO JUMPDEST ISZERO PUSH2 0x20E2 JUMPI CALLER PUSH1 0x40 MLOAD PUSH32 0x3998666E00000000000000000000000000000000000000000000000000000000 DUP2 MSTORE PUSH1 0x4 ADD PUSH2 0x20D9 SWAP2 SWAP1 PUSH2 0x55DF JUMP JUMPDEST PUSH1 0x40 MLOAD DUP1 SWAP2 SUB SWAP1 REVERT JUMPDEST PUSH1 0x0 PUSH1 0x5 PUSH1 0x0 DUP11 PUSH20 0xFFFFFFFFFFFFFFFFFFFFFFFFFFFFFFFFFFFFFFFF AND PUSH20 0xFFFFFFFFFFFFFFFFFFFFFFFFFFFFFFFFFFFFFFFF AND DUP2 MSTORE PUSH1 0x20 ADD SWAP1 DUP2 MSTORE PUSH1 0x20 ADD PUSH1 0x0 KECCAK256 SWAP1 POP PUSH1 0x0 DUP1 SHL DUP2 PUSH1 0x0 ADD SLOAD EQ PUSH2 0x2165 JUMPI PUSH1 0x40 MLOAD PUSH32 0xACF89DBA00000000000000000000000000000000000000000000000000000000 DUP2 MSTORE PUSH1 0x4 ADD PUSH1 0x40 MLOAD DUP1 SWAP2 SUB SWAP1 REVERT JUMPDEST PUSH1 0x0 PUSH2 0x2170 CALLER PUSH2 0x42C7 JUMP JUMPDEST SWAP1 POP PUSH32 0xA49807205CE4D355092EF5A8A18F56E8913CF4A201FBE287825B095693C21775 DUP2 PUSH1 0x0 ADD SLOAD EQ DUP1 ISZERO PUSH2 0x21C9 JUMPI POP PUSH32 0xA49807205CE4D355092EF5A8A18F56E8913CF4A201FBE287825B095693C21775 DUP3 PUSH1 0x1 ADD SLOAD EQ ISZERO JUMPDEST ISZERO PUSH2 0x220B JUMPI CALLER PUSH1 0x40 MLOAD PUSH32 0x3998666E00000000000000000000000000000000000000000000000000000000 DUP2 MSTORE PUSH1 0x4 ADD PUSH2 0x2202 SWAP2 SWAP1 PUSH2 0x55DF JUMP JUMPDEST PUSH1 0x40 MLOAD DUP1 SWAP2 SUB SWAP1 REVERT JUMPDEST PUSH1 0x0 PUSH1 0x7 PUSH1 0x0 DUP13 PUSH20 0xFFFFFFFFFFFFFFFFFFFFFFFFFFFFFFFFFFFFFFFF AND PUSH20 0xFFFFFFFFFFFFFFFFFFFFFFFFFFFFFFFFFFFFFFFF AND DUP2 MSTORE PUSH1 0x20 ADD SWAP1 DUP2 MSTORE PUSH1 0x20 ADD PUSH1 0x0 KECCAK256 PUSH1 0x0 DUP12 PUSH20 0xFFFFFFFFFFFFFFFFFFFFFFFFFFFFFFFFFFFFFFFF AND PUSH20 0xFFFFFFFFFFFFFFFFFFFFFFFFFFFFFFFFFFFFFFFF AND DUP2 MSTORE PUSH1 0x20 ADD SWAP1 DUP2 MSTORE PUSH1 0x20 ADD PUSH1 0x0 KECCAK256 SLOAD SWAP1 POP DUP9 DUP2 EQ PUSH2 0x22C5 JUMPI PUSH1 0x40 MLOAD PUSH32 0x188284B100000000000000000000000000000000000000000000000000000000 DUP2 MSTORE PUSH1 0x4 ADD PUSH1 0x40 MLOAD DUP1 SWAP2 SUB SWAP1 REVERT JUMPDEST DUP8 PUSH1 0x7 PUSH1 0x0 DUP14 PUSH20 0xFFFFFFFFFFFFFFFFFFFFFFFFFFFFFFFFFFFFFFFF AND PUSH20 0xFFFFFFFFFFFFFFFFFFFFFFFFFFFFFFFFFFFFFFFF AND DUP2 MSTORE PUSH1 0x20 ADD SWAP1 DUP2 MSTORE PUSH1 0x20 ADD PUSH1 0x0 KECCAK256 PUSH1 0x0 DUP13 PUSH20 0xFFFFFFFFFFFFFFFFFFFFFFFFFFFFFFFFFFFFFFFF AND PUSH20 0xFFFFFFFFFFFFFFFFFFFFFFFFFFFFFFFFFFFFFFFF AND DUP2 MSTORE PUSH1 0x20 ADD SWAP1 DUP2 MSTORE PUSH1 0x20 ADD PUSH1 0x0 KECCAK256 DUP2 SWAP1 SSTORE POP DUP10 PUSH20 0xFFFFFFFFFFFFFFFFFFFFFFFFFFFFFFFFFFFFFFFF AND DUP12 PUSH20 0xFFFFFFFFFFFFFFFFFFFFFFFFFFFFFFFFFFFFFFFF AND PUSH32 0x6B86FCBEC7DDAC1CE27BE8944E9D63CCAE58790B0547B8E6DAEC8840649C9BE1 DUP4 DUP12 PUSH1 0x40 MLOAD PUSH2 0x23A5 SWAP3 SWAP2 SWAP1 PUSH2 0x56C8 JUMP JUMPDEST PUSH1 0x40 MLOAD DUP1 SWAP2 SUB SWAP1 LOG3 PUSH1 0x1 SWAP7 POP POP POP POP POP POP POP SWAP5 SWAP4 POP POP POP POP JUMP JUMPDEST PUSH1 0x0 PUSH2 0x23C9 PUSH2 0x1F91 JUMP JUMPDEST ISZERO PUSH2 0x240B JUMPI CALLER PUSH1 0x40 MLOAD PUSH32 0x621C564C00000000000000000000000000000000000000000000000000000000 DUP2 MSTORE PUSH1 0x4 ADD PUSH2 0x2402 SWAP2 SWAP1 PUSH2 0x55DF JUMP JUMPDEST PUSH1 0x40 MLOAD DUP1 SWAP2 SUB SWAP1 REVERT JUMPDEST CALLER PUSH2 0x2415 DUP2 PUSH2 0x188F JUMP JUMPDEST ISZERO PUSH2 0x2457 JUMPI DUP1 PUSH1 0x40 MLOAD PUSH32 0x621C564C00000000000000000000000000000000000000000000000000000000 DUP2 MSTORE PUSH1 0x4 ADD PUSH2 0x244E SWAP2 SWAP1 PUSH2 0x55DF JUMP JUMPDEST PUSH1 0x40 MLOAD DUP1 SWAP2 SUB SWAP1 REVERT JUMPDEST CALLER PUSH1 0x0 DUP1 SHL PUSH2 0x2465 DUP3 PUSH2 0x42C7 JUMP JUMPDEST PUSH1 0x0 ADD SLOAD EQ PUSH2 0x24AB JUMPI DUP1 PUSH1 0x40 MLOAD PUSH32 0x621C564C00000000000000000000000000000000000000000000000000000000 DUP2 MSTORE PUSH1 0x4 ADD PUSH2 0x24A2 SWAP2 SWAP1 PUSH2 0x55DF JUMP JUMPDEST PUSH1 0x40 MLOAD DUP1 SWAP2 SUB SWAP1 REVERT JUMPDEST PUSH1 0x0 PUSH1 0x7 PUSH1 0x0 CALLER PUSH20 0xFFFFFFFFFFFFFFFFFFFFFFFFFFFFFFFFFFFFFFFF AND PUSH20 0xFFFFFFFFFFFFFFFFFFFFFFFFFFFFFFFFFFFFFFFF AND DUP2 MSTORE PUSH1 0x20 ADD SWAP1 DUP2 MSTORE PUSH1 0x20 ADD PUSH1 0x0 KECCAK256 PUSH1 0x0 DUP9 PUSH20 0xFFFFFFFFFFFFFFFFFFFFFFFFFFFFFFFFFFFFFFFF AND PUSH20 0xFFFFFFFFFFFFFFFFFFFFFFFFFFFFFFFFFFFFFFFF AND DUP2 MSTORE PUSH1 0x20 ADD SWAP1 DUP2 MSTORE PUSH1 0x20 ADD PUSH1 0x0 KECCAK256 SLOAD SWAP1 POP DUP5 DUP2 LT ISZERO PUSH2 0x2566 JUMPI PUSH1 0x40 MLOAD PUSH32 0xF8CDD99B00000000000000000000000000000000000000000000000000000000 DUP2 MSTORE PUSH1 0x4 ADD PUSH1 0x40 MLOAD DUP1 SWAP2 SUB SWAP1 REVERT JUMPDEST DUP6 DUP2 EQ PUSH2 0x259F JUMPI PUSH1 0x40 MLOAD PUSH32 0x188284B100000000000000000000000000000000000000000000000000000000 DUP2 MSTORE PUSH1 0x4 ADD PUSH1 0x40 MLOAD DUP1 SWAP2 SUB SWAP1 REVERT JUMPDEST DUP5 DUP2 SUB PUSH1 0x7 PUSH1 0x0 CALLER PUSH20 0xFFFFFFFFFFFFFFFFFFFFFFFFFFFFFFFFFFFFFFFF AND PUSH20 0xFFFFFFFFFFFFFFFFFFFFFFFFFFFFFFFFFFFFFFFF AND DUP2 MSTORE PUSH1 0x20 ADD SWAP1 DUP2 MSTORE PUSH1 0x20 ADD PUSH1 0x0 KECCAK256 PUSH1 0x0 DUP10 PUSH20 0xFFFFFFFFFFFFFFFFFFFFFFFFFFFFFFFFFFFFFFFF AND PUSH20 0xFFFFFFFFFFFFFFFFFFFFFFFFFFFFFFFFFFFFFFFF AND DUP2 MSTORE PUSH1 0x20 ADD SWAP1 DUP2 MSTORE PUSH1 0x20 ADD PUSH1 0x0 KECCAK256 DUP2 SWAP1 SSTORE POP DUP7 PUSH20 0xFFFFFFFFFFFFFFFFFFFFFFFFFFFFFFFFFFFFFFFF AND CALLER PUSH20 0xFFFFFFFFFFFFFFFFFFFFFFFFFFFFFFFFFFFFFFFF AND PUSH32 0x85ECBD9E6B47A8C64C0C5B4998F064973A3A6E6987C83A8FD61F1D2DE09735BC DUP4 DUP9 PUSH1 0x40 MLOAD PUSH2 0x2681 SWAP3 SWAP2 SWAP1 PUSH2 0x56C8 JUMP JUMPDEST PUSH1 0x40 MLOAD DUP1 SWAP2 SUB SWAP1 LOG3 PUSH1 0x1 SWAP4 POP POP POP POP SWAP4 SWAP3 POP POP POP JUMP JUMPDEST PUSH1 0x0 PUSH1 0x6 PUSH1 0x0 DUP4 PUSH20 0xFFFFFFFFFFFFFFFFFFFFFFFFFFFFFFFFFFFFFFFF AND PUSH20 0xFFFFFFFFFFFFFFFFFFFFFFFFFFFFFFFFFFFFFFFF AND DUP2 MSTORE PUSH1 0x20 ADD SWAP1 DUP2 MSTORE PUSH1 0x20 ADD PUSH1 0x0 KECCAK256 SLOAD SWAP1 POP SWAP2 SWAP1 POP JUMP JUMPDEST PUSH32 0xA49807205CE4D355092EF5A8A18F56E8913CF4A201FBE287825B095693C21775 DUP2 JUMP JUMPDEST PUSH32 0x36FD43EDE163045B10E1F0ABD16F62F165FCE3FA7B6CDE217BCEA3BC47663ACC PUSH32 0xA49807205CE4D355092EF5A8A18F56E8913CF4A201FBE287825B095693C21775 PUSH2 0x2750 DUP3 CALLER PUSH2 0x4921 JUMP JUMPDEST ISZERO DUP1 ISZERO PUSH2 0x2764 JUMPI POP PUSH2 0x2762 DUP2 CALLER PUSH2 0x4921 JUMP JUMPDEST ISZERO JUMPDEST ISZERO PUSH2 0x27A6 JUMPI CALLER PUSH1 0x40 MLOAD PUSH32 0x3998666E00000000000000000000000000000000000000000000000000000000 DUP2 MSTORE PUSH1 0x4 ADD PUSH2 0x279D SWAP2 SWAP1 PUSH2 0x55DF JUMP JUMPDEST PUSH1 0x40 MLOAD DUP1 SWAP2 SUB SWAP1 REVERT JUMPDEST DUP3 PUSH1 0x0 PUSH20 0xFFFFFFFFFFFFFFFFFFFFFFFFFFFFFFFFFFFFFFFF AND DUP2 PUSH20 0xFFFFFFFFFFFFFFFFFFFFFFFFFFFFFFFFFFFFFFFF AND EQ DUP1 PUSH2 0x280D JUMPI POP ADDRESS PUSH20 0xFFFFFFFFFFFFFFFFFFFFFFFFFFFFFFFFFFFFFFFF AND DUP2 PUSH20 0xFFFFFFFFFFFFFFFFFFFFFFFFFFFFFFFFFFFFFFFF AND EQ JUMPDEST ISZERO PUSH2 0x284F JUMPI DUP1 PUSH1 0x40 MLOAD PUSH32 0x223A677400000000000000000000000000000000000000000000000000000000 DUP2 MSTORE PUSH1 0x4 ADD PUSH2 0x2846 SWAP2 SWAP1 PUSH2 0x55DF JUMP JUMPDEST PUSH1 0x40 MLOAD DUP1 SWAP2 SUB SWAP1 REVERT JUMPDEST PUSH1 0x1 PUSH1 0x4 PUSH1 0x0 DUP7 PUSH20 0xFFFFFFFFFFFFFFFFFFFFFFFFFFFFFFFFFFFFFFFF AND PUSH20 0xFFFFFFFFFFFFFFFFFFFFFFFFFFFFFFFFFFFFFFFF AND DUP2 MSTORE PUSH1 0x20 ADD SWAP1 DUP2 MSTORE PUSH1 0x20 ADD PUSH1 0x0 KECCAK256 PUSH1 0x0 PUSH2 0x100 EXP DUP2 SLOAD DUP2 PUSH1 0xFF MUL NOT AND SWAP1 DUP4 ISZERO ISZERO MUL OR SWAP1 SSTORE POP DUP4 PUSH20 0xFFFFFFFFFFFFFFFFFFFFFFFFFFFFFFFFFFFFFFFF AND CALLER PUSH20 0xFFFFFFFFFFFFFFFFFFFFFFFFFFFFFFFFFFFFFFFF AND PUSH32 0x3DD4F37CA5EAF6C357698A52C806820426D7C9A26ADB0991C3BEBB09CF23352A PUSH1 0x40 MLOAD PUSH1 0x40 MLOAD DUP1 SWAP2 SUB SWAP1 LOG3 POP POP POP POP JUMP JUMPDEST PUSH1 0x0 PUSH2 0x2911 PUSH2 0x1F91 JUMP JUMPDEST ISZERO PUSH2 0x2953 JUMPI CALLER PUSH1 0x40 MLOAD PUSH32 0x621C564C00000000000000000000000000000000000000000000000000000000 DUP2 MSTORE PUSH1 0x4 ADD PUSH2 0x294A SWAP2 SWAP1 PUSH2 0x55DF JUMP JUMPDEST PUSH1 0x40 MLOAD DUP1 SWAP2 SUB SWAP1 REVERT JUMPDEST DUP4 DUP4 PUSH2 0x295E DUP3 PUSH2 0x188F JUMP JUMPDEST ISZERO PUSH2 0x29A0 JUMPI DUP2 PUSH1 0x40 MLOAD PUSH32 0x621C564C00000000000000000000000000000000000000000000000000000000 DUP2 MSTORE PUSH1 0x4 ADD PUSH2 0x2997 SWAP2 SWAP1 PUSH2 0x55DF JUMP JUMPDEST PUSH1 0x40 MLOAD DUP1 SWAP2 SUB SWAP1 REVERT JUMPDEST PUSH2 0x29A9 DUP2 PUSH2 0x188F JUMP JUMPDEST ISZERO PUSH2 0x29EB JUMPI DUP1 PUSH1 0x40 MLOAD PUSH32 0x621C564C00000000000000000000000000000000000000000000000000000000 DUP2 MSTORE PUSH1 0x4 ADD PUSH2 0x29E2 SWAP2 SWAP1 PUSH2 0x55DF JUMP JUMPDEST PUSH1 0x40 MLOAD DUP1 SWAP2 SUB SWAP1 REVERT JUMPDEST CALLER PUSH1 0x0 DUP1 SHL PUSH2 0x29F9 DUP3 PUSH2 0x42C7 JUMP JUMPDEST PUSH1 0x0 ADD SLOAD EQ PUSH2 0x2A3F JUMPI DUP1 PUSH1 0x40 MLOAD PUSH32 0x621C564C00000000000000000000000000000000000000000000000000000000 DUP2 MSTORE PUSH1 0x4 ADD PUSH2 0x2A36 SWAP2 SWAP1 PUSH2 0x55DF JUMP JUMPDEST PUSH1 0x40 MLOAD DUP1 SWAP2 SUB SWAP1 REVERT JUMPDEST PUSH2 0x2A4A DUP8 DUP8 DUP8 PUSH2 0x454E JUMP JUMPDEST PUSH1 0x0 PUSH1 0x7 PUSH1 0x0 DUP10 PUSH20 0xFFFFFFFFFFFFFFFFFFFFFFFFFFFFFFFFFFFFFFFF AND PUSH20 0xFFFFFFFFFFFFFFFFFFFFFFFFFFFFFFFFFFFFFFFF AND DUP2 MSTORE PUSH1 0x20 ADD SWAP1 DUP2 MSTORE PUSH1 0x20 ADD PUSH1 0x0 KECCAK256 PUSH1 0x0 CALLER PUSH20 0xFFFFFFFFFFFFFFFFFFFFFFFFFFFFFFFFFFFFFFFF AND PUSH20 0xFFFFFFFFFFFFFFFFFFFFFFFFFFFFFFFFFFFFFFFF AND DUP2 MSTORE PUSH1 0x20 ADD SWAP1 DUP2 MSTORE PUSH1 0x20 ADD PUSH1 0x0 KECCAK256 SLOAD SWAP1 POP DUP6 DUP2 LT ISZERO PUSH2 0x2B05 JUMPI PUSH1 0x40 MLOAD PUSH32 0x188284B100000000000000000000000000000000000000000000000000000000 DUP2 MSTORE PUSH1 0x4 ADD PUSH1 0x40 MLOAD DUP1 SWAP2 SUB SWAP1 REVERT JUMPDEST PUSH2 0x2B12 DUP9 CALLER DUP9 DUP5 SUB PUSH2 0x430F JUMP JUMPDEST DUP7 PUSH20 0xFFFFFFFFFFFFFFFFFFFFFFFFFFFFFFFFFFFFFFFF AND DUP9 PUSH20 0xFFFFFFFFFFFFFFFFFFFFFFFFFFFFFFFFFFFFFFFF AND CALLER PUSH20 0xFFFFFFFFFFFFFFFFFFFFFFFFFFFFFFFFFFFFFFFF AND PUSH32 0xA3F202E5D519ECF4FBAEAAC24A41A3308B85AF76F3A19AAFFB67692C32F14B84 DUP10 PUSH1 0x40 MLOAD PUSH2 0x2B86 SWAP2 SWAP1 PUSH2 0x540E JUMP JUMPDEST PUSH1 0x40 MLOAD DUP1 SWAP2 SUB SWAP1 LOG4 PUSH1 0x1 SWAP5 POP POP POP POP POP SWAP4 SWAP3 POP POP POP JUMP JUMPDEST PUSH32 0xA49807205CE4D355092EF5A8A18F56E8913CF4A201FBE287825B095693C21775 PUSH2 0x2BC8 DUP2 CALLER PUSH2 0x4921 JUMP JUMPDEST PUSH2 0x2C09 JUMPI CALLER PUSH1 0x40 MLOAD PUSH32 0x3998666E00000000000000000000000000000000000000000000000000000000 DUP2 MSTORE PUSH1 0x4 ADD PUSH2 0x2C00 SWAP2 SWAP1 PUSH2 0x55DF JUMP JUMPDEST PUSH1 0x40 MLOAD DUP1 SWAP2 SUB SWAP1 REVERT JUMPDEST DUP2 PUSH1 0x0 PUSH20 0xFFFFFFFFFFFFFFFFFFFFFFFFFFFFFFFFFFFFFFFF AND DUP2 PUSH20 0xFFFFFFFFFFFFFFFFFFFFFFFFFFFFFFFFFFFFFFFF AND EQ DUP1 PUSH2 0x2C70 JUMPI POP ADDRESS PUSH20 0xFFFFFFFFFFFFFFFFFFFFFFFFFFFFFFFFFFFFFFFF AND DUP2 PUSH20 0xFFFFFFFFFFFFFFFFFFFFFFFFFFFFFFFFFFFFFFFF AND EQ JUMPDEST ISZERO PUSH2 0x2CB2 JUMPI DUP1 PUSH1 0x40 MLOAD PUSH32 0x223A677400000000000000000000000000000000000000000000000000000000 DUP2 MSTORE PUSH1 0x4 ADD PUSH2 0x2CA9 SWAP2 SWAP1 PUSH2 0x55DF JUMP JUMPDEST PUSH1 0x40 MLOAD DUP1 SWAP2 SUB SWAP1 REVERT JUMPDEST PUSH1 0x0 DUP1 SLOAD SWAP1 PUSH2 0x100 EXP SWAP1 DIV PUSH1 0xFF AND ISZERO PUSH2 0x2D02 JUMPI CALLER PUSH1 0x40 MLOAD PUSH32 0x621C564C00000000000000000000000000000000000000000000000000000000 DUP2 MSTORE PUSH1 0x4 ADD PUSH2 0x2CF9 SWAP2 SWAP1 PUSH2 0x55DF JUMP JUMPDEST PUSH1 0x40 MLOAD DUP1 SWAP2 SUB SWAP1 REVERT JUMPDEST PUSH2 0x2D0B DUP4 PUSH2 0x4B46 JUMP JUMPDEST PUSH2 0x2D4C JUMPI DUP3 PUSH1 0x40 MLOAD PUSH32 0x223A677400000000000000000000000000000000000000000000000000000000 DUP2 MSTORE PUSH1 0x4 ADD PUSH2 0x2D43 SWAP2 SWAP1 PUSH2 0x55DF JUMP JUMPDEST PUSH1 0x40 MLOAD DUP1 SWAP2 SUB SWAP1 REVERT JUMPDEST PUSH1 0x1 PUSH1 0x0 DUP1 PUSH2 0x100 EXP DUP2 SLOAD DUP2 PUSH1 0xFF MUL NOT AND SWAP1 DUP4 ISZERO ISZERO MUL OR SWAP1 SSTORE POP PUSH2 0x2D91 PUSH32 0x36FD43EDE163045B10E1F0ABD16F62F165FCE3FA7B6CDE217BCEA3BC47663ACC CALLER DUP6 PUSH2 0x4B59 JUMP JUMPDEST POP POP POP JUMP JUMPDEST PUSH32 0x36FD43EDE163045B10E1F0ABD16F62F165FCE3FA7B6CDE217BCEA3BC47663ACC PUSH2 0x2DC1 DUP2 CALLER PUSH2 0x4921 JUMP JUMPDEST PUSH2 0x2E02 JUMPI CALLER PUSH1 0x40 MLOAD PUSH32 0x3998666E00000000000000000000000000000000000000000000000000000000 DUP2 MSTORE PUSH1 0x4 ADD PUSH2 0x2DF9 SWAP2 SWAP1 PUSH2 0x55DF JUMP JUMPDEST PUSH1 0x40 MLOAD DUP1 SWAP2 SUB SWAP1 REVERT JUMPDEST PUSH1 0x0 PUSH1 0x3 PUSH1 0x0 PUSH2 0x100 EXP DUP2 SLOAD DUP2 PUSH1 0xFF MUL NOT AND SWAP1 DUP4 ISZERO ISZERO MUL OR SWAP1 SSTORE POP CALLER PUSH20 0xFFFFFFFFFFFFFFFFFFFFFFFFFFFFFFFFFFFFFFFF AND PUSH32 0x3C1FB1FD79EE84E55A8FE78554C432EF36EA033A9245CE4B650BD824A12554D3 PUSH1 0x40 MLOAD PUSH1 0x40 MLOAD DUP1 SWAP2 SUB SWAP1 LOG2 POP JUMP JUMPDEST PUSH1 0x0 DUP1 PUSH2 0x2E6E PUSH2 0x1F91 JUMP JUMPDEST PUSH2 0x2EAF JUMPI CALLER PUSH1 0x40 MLOAD PUSH32 0x621C564C00000000000000000000000000000000000000000000000000000000 DUP2 MSTORE PUSH1 0x4 ADD PUSH2 0x2EA6 SWAP2 SWAP1 PUSH2 0x55DF JUMP JUMPDEST PUSH1 0x40 MLOAD DUP1 SWAP2 SUB SWAP1 REVERT JUMPDEST PUSH32 0x36FD43EDE163045B10E1F0ABD16F62F165FCE3FA7B6CDE217BCEA3BC47663ACC PUSH32 0xFB1E607AAAD6CF72E2856E6A77E54638C3076455DBEBF8A209C7ECA75951B07F PUSH2 0x2EFB DUP3 CALLER PUSH2 0x4921 JUMP JUMPDEST ISZERO DUP1 ISZERO PUSH2 0x2F0F JUMPI POP PUSH2 0x2F0D DUP2 CALLER PUSH2 0x4921 JUMP JUMPDEST ISZERO JUMPDEST ISZERO PUSH2 0x2F51 JUMPI CALLER PUSH1 0x40 MLOAD PUSH32 0x3998666E00000000000000000000000000000000000000000000000000000000 DUP2 MSTORE PUSH1 0x4 ADD PUSH2 0x2F48 SWAP2 SWAP1 PUSH2 0x55DF JUMP JUMPDEST PUSH1 0x40 MLOAD DUP1 SWAP2 SUB SWAP1 REVERT JUMPDEST DUP8 PUSH1 0x0 PUSH20 0xFFFFFFFFFFFFFFFFFFFFFFFFFFFFFFFFFFFFFFFF AND DUP2 PUSH20 0xFFFFFFFFFFFFFFFFFFFFFFFFFFFFFFFFFFFFFFFF AND EQ DUP1 PUSH2 0x2FB8 JUMPI POP ADDRESS PUSH20 0xFFFFFFFFFFFFFFFFFFFFFFFFFFFFFFFFFFFFFFFF AND DUP2 PUSH20 0xFFFFFFFFFFFFFFFFFFFFFFFFFFFFFFFFFFFFFFFF AND EQ JUMPDEST ISZERO PUSH2 0x2FFA JUMPI DUP1 PUSH1 0x40 MLOAD PUSH32 0x223A677400000000000000000000000000000000000000000000000000000000 DUP2 MSTORE PUSH1 0x4 ADD PUSH2 0x2FF1 SWAP2 SWAP1 PUSH2 0x55DF JUMP JUMPDEST PUSH1 0x40 MLOAD DUP1 SWAP2 SUB SWAP1 REVERT JUMPDEST DUP7 PUSH1 0x9 SLOAD EQ PUSH2 0x3035 JUMPI PUSH1 0x40 MLOAD PUSH32 0x7CCFAEDF00000000000000000000000000000000000000000000000000000000 DUP2 MSTORE PUSH1 0x4 ADD PUSH1 0x40 MLOAD DUP1 SWAP2 SUB SWAP1 REVERT JUMPDEST PUSH1 0x0 PUSH1 0x6 PUSH1 0x0 DUP12 PUSH20 0xFFFFFFFFFFFFFFFFFFFFFFFFFFFFFFFFFFFFFFFF AND PUSH20 0xFFFFFFFFFFFFFFFFFFFFFFFFFFFFFFFFFFFFFFFF AND DUP2 MSTORE PUSH1 0x20 ADD SWAP1 DUP2 MSTORE PUSH1 0x20 ADD PUSH1 0x0 KECCAK256 SLOAD SWAP1 POP DUP9 DUP2 EQ PUSH2 0x30B2 JUMPI PUSH1 0x40 MLOAD PUSH32 0x135D073E00000000000000000000000000000000000000000000000000000000 DUP2 MSTORE PUSH1 0x4 ADD PUSH1 0x40 MLOAD DUP1 SWAP2 SUB SWAP1 REVERT JUMPDEST DUP7 DUP2 LT ISZERO PUSH2 0x30EC JUMPI PUSH1 0x40 MLOAD PUSH32 0xF8CDD99B00000000000000000000000000000000000000000000000000000000 DUP2 MSTORE PUSH1 0x4 ADD PUSH1 0x40 MLOAD DUP1 SWAP2 SUB SWAP1 REVERT JUMPDEST DUP7 DUP2 SUB SWAP6 POP DUP6 PUSH1 0x6 PUSH1 0x0 DUP13 PUSH20 0xFFFFFFFFFFFFFFFFFFFFFFFFFFFFFFFFFFFFFFFF AND PUSH20 0xFFFFFFFFFFFFFFFFFFFFFFFFFFFFFFFFFFFFFFFF AND DUP2 MSTORE PUSH1 0x20 ADD SWAP1 DUP2 MSTORE PUSH1 0x20 ADD PUSH1 0x0 KECCAK256 DUP2 SWAP1 SSTORE POP DUP7 PUSH1 0x9 PUSH1 0x0 DUP3 DUP3 SLOAD PUSH2 0x3147 SWAP2 SWAP1 PUSH2 0x58D6 JUMP JUMPDEST SWAP3 POP POP DUP2 SWAP1 SSTORE POP DUP10 PUSH20 0xFFFFFFFFFFFFFFFFFFFFFFFFFFFFFFFFFFFFFFFF AND CALLER PUSH20 0xFFFFFFFFFFFFFFFFFFFFFFFFFFFFFFFFFFFFFFFF AND PUSH32 0xF35A4DFE14C46B2034CCC6905E9D72E38A530AECF8CA7F5E60A8D9169C1F2FF9 DUP12 DUP12 DUP12 PUSH1 0x40 MLOAD PUSH2 0x31AF SWAP4 SWAP3 SWAP2 SWAP1 PUSH2 0x590A JUMP JUMPDEST PUSH1 0x40 MLOAD DUP1 SWAP2 SUB SWAP1 LOG3 DUP6 PUSH1 0x9 SLOAD SWAP6 POP SWAP6 POP POP POP POP POP SWAP5 POP SWAP5 SWAP3 POP POP POP JUMP JUMPDEST PUSH1 0x0 PUSH2 0x31D8 DUP4 DUP4 PUSH2 0x4921 JUMP JUMPDEST SWAP1 POP SWAP3 SWAP2 POP POP JUMP JUMPDEST PUSH1 0x60 PUSH1 0xB DUP1 SLOAD PUSH2 0x31EF SWAP1 PUSH2 0x581F JUMP JUMPDEST DUP1 PUSH1 0x1F ADD PUSH1 0x20 DUP1 SWAP2 DIV MUL PUSH1 0x20 ADD PUSH1 0x40 MLOAD SWAP1 DUP2 ADD PUSH1 0x40 MSTORE DUP1 SWAP3 SWAP2 SWAP1 DUP2 DUP2 MSTORE PUSH1 0x20 ADD DUP3 DUP1 SLOAD PUSH2 0x321B SWAP1 PUSH2 0x581F JUMP JUMPDEST DUP1 ISZERO PUSH2 0x3268 JUMPI DUP1 PUSH1 0x1F LT PUSH2 0x323D JUMPI PUSH2 0x100 DUP1 DUP4 SLOAD DIV MUL DUP4 MSTORE SWAP2 PUSH1 0x20 ADD SWAP2 PUSH2 0x3268 JUMP JUMPDEST DUP3 ADD SWAP2 SWAP1 PUSH1 0x0 MSTORE PUSH1 0x20 PUSH1 0x0 KECCAK256 SWAP1 JUMPDEST DUP2 SLOAD DUP2 MSTORE SWAP1 PUSH1 0x1 ADD SWAP1 PUSH1 0x20 ADD DUP1 DUP4 GT PUSH2 0x324B JUMPI DUP3 SWAP1 SUB PUSH1 0x1F AND DUP3 ADD SWAP2 JUMPDEST POP POP POP POP POP SWAP1 POP SWAP1 JUMP JUMPDEST PUSH2 0x327A PUSH2 0x1F91 JUMP JUMPDEST PUSH2 0x32BB JUMPI CALLER PUSH1 0x40 MLOAD PUSH32 0x621C564C00000000000000000000000000000000000000000000000000000000 DUP2 MSTORE PUSH1 0x4 ADD PUSH2 0x32B2 SWAP2 SWAP1 PUSH2 0x55DF JUMP JUMPDEST PUSH1 0x40 MLOAD DUP1 SWAP2 SUB SWAP1 REVERT JUMPDEST PUSH32 0x36FD43EDE163045B10E1F0ABD16F62F165FCE3FA7B6CDE217BCEA3BC47663ACC PUSH2 0x32E6 DUP2 CALLER PUSH2 0x4921 JUMP JUMPDEST PUSH2 0x3327 JUMPI CALLER PUSH1 0x40 MLOAD PUSH32 0x3998666E00000000000000000000000000000000000000000000000000000000 DUP2 MSTORE PUSH1 0x4 ADD PUSH2 0x331E SWAP2 SWAP1 PUSH2 0x55DF JUMP JUMPDEST PUSH1 0x40 MLOAD DUP1 SWAP2 SUB SWAP1 REVERT JUMPDEST DUP5 PUSH1 0x0 PUSH20 0xFFFFFFFFFFFFFFFFFFFFFFFFFFFFFFFFFFFFFFFF AND DUP2 PUSH20 0xFFFFFFFFFFFFFFFFFFFFFFFFFFFFFFFFFFFFFFFF AND EQ DUP1 PUSH2 0x338E JUMPI POP ADDRESS PUSH20 0xFFFFFFFFFFFFFFFFFFFFFFFFFFFFFFFFFFFFFFFF AND DUP2 PUSH20 0xFFFFFFFFFFFFFFFFFFFFFFFFFFFFFFFFFFFFFFFF AND EQ JUMPDEST ISZERO PUSH2 0x33D0 JUMPI DUP1 PUSH1 0x40 MLOAD PUSH32 0x223A677400000000000000000000000000000000000000000000000000000000 DUP2 MSTORE PUSH1 0x4 ADD PUSH2 0x33C7 SWAP2 SWAP1 PUSH2 0x55DF JUMP JUMPDEST PUSH1 0x40 MLOAD DUP1 SWAP2 SUB SWAP1 REVERT JUMPDEST DUP5 PUSH1 0x6 PUSH1 0x0 DUP9 PUSH20 0xFFFFFFFFFFFFFFFFFFFFFFFFFFFFFFFFFFFFFFFF AND PUSH20 0xFFFFFFFFFFFFFFFFFFFFFFFFFFFFFFFFFFFFFFFF AND DUP2 MSTORE PUSH1 0x20 ADD SWAP1 DUP2 MSTORE PUSH1 0x20 ADD PUSH1 0x0 KECCAK256 SLOAD EQ PUSH2 0x3448 JUMPI PUSH1 0x40 MLOAD PUSH32 0x135D073E00000000000000000000000000000000000000000000000000000000 DUP2 MSTORE PUSH1 0x4 ADD PUSH1 0x40 MLOAD DUP1 SWAP2 SUB SWAP1 REVERT JUMPDEST DUP4 PUSH1 0x9 SLOAD EQ PUSH2 0x3483 JUMPI PUSH1 0x40 MLOAD PUSH32 0x7CCFAEDF00000000000000000000000000000000000000000000000000000000 DUP2 MSTORE PUSH1 0x4 ADD PUSH1 0x40 MLOAD DUP1 SWAP2 SUB SWAP1 REVERT JUMPDEST DUP3 PUSH1 0x9 PUSH1 0x0 DUP3 DUP3 SLOAD PUSH2 0x3495 SWAP2 SWAP1 PUSH2 0x5880 JUMP JUMPDEST SWAP3 POP POP DUP2 SWAP1 SSTORE POP DUP3 PUSH1 0x6 PUSH1 0x0 DUP9 PUSH20 0xFFFFFFFFFFFFFFFFFFFFFFFFFFFFFFFFFFFFFFFF AND PUSH20 0xFFFFFFFFFFFFFFFFFFFFFFFFFFFFFFFFFFFFFFFF AND DUP2 MSTORE PUSH1 0x20 ADD SWAP1 DUP2 MSTORE PUSH1 0x20 ADD PUSH1 0x0 KECCAK256 PUSH1 0x0 DUP3 DUP3 SLOAD PUSH2 0x34EB SWAP2 SWAP1 PUSH2 0x5880 JUMP JUMPDEST SWAP3 POP POP DUP2 SWAP1 SSTORE POP DUP6 PUSH20 0xFFFFFFFFFFFFFFFFFFFFFFFFFFFFFFFFFFFFFFFF AND CALLER PUSH20 0xFFFFFFFFFFFFFFFFFFFFFFFFFFFFFFFFFFFFFFFF AND PUSH32 0xAB8530F87DC9B59234C4623BF917212BB2536D647574C8E7E5DA92C2EDE0C9F8 DUP6 PUSH1 0x40 MLOAD PUSH2 0x354F SWAP2 SWAP1 PUSH2 0x540E JUMP JUMPDEST PUSH1 0x40 MLOAD DUP1 SWAP2 SUB SWAP1 LOG3 POP POP POP POP POP POP JUMP JUMPDEST PUSH1 0x0 PUSH2 0x3569 PUSH2 0x1F91 JUMP JUMPDEST ISZERO PUSH2 0x35AB JUMPI CALLER PUSH1 0x40 MLOAD PUSH32 0x621C564C00000000000000000000000000000000000000000000000000000000 DUP2 MSTORE PUSH1 0x4 ADD PUSH2 0x35A2 SWAP2 SWAP1 PUSH2 0x55DF JUMP JUMPDEST PUSH1 0x40 MLOAD DUP1 SWAP2 SUB SWAP1 REVERT JUMPDEST CALLER DUP4 PUSH2 0x35B6 DUP3 PUSH2 0x188F JUMP JUMPDEST ISZERO PUSH2 0x35F8 JUMPI DUP2 PUSH1 0x40 MLOAD PUSH32 0x621C564C00000000000000000000000000000000000000000000000000000000 DUP2 MSTORE PUSH1 0x4 ADD PUSH2 0x35EF SWAP2 SWAP1 PUSH2 0x55DF JUMP JUMPDEST PUSH1 0x40 MLOAD DUP1 SWAP2 SUB SWAP1 REVERT JUMPDEST PUSH2 0x3601 DUP2 PUSH2 0x188F JUMP JUMPDEST ISZERO PUSH2 0x3643 JUMPI DUP1 PUSH1 0x40 MLOAD PUSH32 0x621C564C00000000000000000000000000000000000000000000000000000000 DUP2 MSTORE PUSH1 0x4 ADD PUSH2 0x363A SWAP2 SWAP1 PUSH2 0x55DF JUMP JUMPDEST PUSH1 0x40 MLOAD DUP1 SWAP2 SUB SWAP1 REVERT JUMPDEST CALLER PUSH1 0x0 DUP1 SHL PUSH2 0x3651 DUP3 PUSH2 0x42C7 JUMP JUMPDEST PUSH1 0x0 ADD SLOAD EQ PUSH2 0x3697 JUMPI DUP1 PUSH1 0x40 MLOAD PUSH32 0x621C564C00000000000000000000000000000000000000000000000000000000 DUP2 MSTORE PUSH1 0x4 ADD PUSH2 0x368E SWAP2 SWAP1 PUSH2 0x55DF JUMP JUMPDEST PUSH1 0x40 MLOAD DUP1 SWAP2 SUB SWAP1 REVERT JUMPDEST PUSH2 0x36A2 CALLER DUP8 DUP8 PUSH2 0x454E JUMP JUMPDEST DUP6 PUSH20 0xFFFFFFFFFFFFFFFFFFFFFFFFFFFFFFFFFFFFFFFF AND CALLER PUSH20 0xFFFFFFFFFFFFFFFFFFFFFFFFFFFFFFFFFFFFFFFF AND PUSH32 0xDDF252AD1BE2C89B69C2B068FC378DAA952BA7F163C4A11628F55A4DF523B3EF DUP8 PUSH1 0x40 MLOAD PUSH2 0x36FF SWAP2 SWAP1 PUSH2 0x540E JUMP JUMPDEST PUSH1 0x40 MLOAD DUP1 SWAP2 SUB SWAP1 LOG3 PUSH1 0x1 SWAP4 POP POP POP POP SWAP3 SWAP2 POP POP JUMP JUMPDEST PUSH1 0x0 PUSH2 0x371E PUSH2 0x1F91 JUMP JUMPDEST ISZERO PUSH2 0x3760 JUMPI CALLER PUSH1 0x40 MLOAD PUSH32 0x621C564C00000000000000000000000000000000000000000000000000000000 DUP2 MSTORE PUSH1 0x4 ADD PUSH2 0x3757 SWAP2 SWAP1 PUSH2 0x55DF JUMP JUMPDEST PUSH1 0x40 MLOAD DUP1 SWAP2 SUB SWAP1 REVERT JUMPDEST DUP4 PUSH2 0x376A DUP2 PUSH2 0x188F JUMP JUMPDEST ISZERO PUSH2 0x37AC JUMPI DUP1 PUSH1 0x40 MLOAD PUSH32 0x621C564C00000000000000000000000000000000000000000000000000000000 DUP2 MSTORE PUSH1 0x4 ADD PUSH2 0x37A3 SWAP2 SWAP1 PUSH2 0x55DF JUMP JUMPDEST PUSH1 0x40 MLOAD DUP1 SWAP2 SUB SWAP1 REVERT JUMPDEST PUSH32 0x36FD43EDE163045B10E1F0ABD16F62F165FCE3FA7B6CDE217BCEA3BC47663ACC PUSH32 0xA49807205CE4D355092EF5A8A18F56E8913CF4A201FBE287825B095693C21775 PUSH2 0x37F8 DUP3 CALLER PUSH2 0x4921 JUMP JUMPDEST ISZERO DUP1 ISZERO PUSH2 0x380C JUMPI POP PUSH2 0x380A DUP2 CALLER PUSH2 0x4921 JUMP JUMPDEST ISZERO JUMPDEST ISZERO PUSH2 0x384E JUMPI CALLER PUSH1 0x40 MLOAD PUSH32 0x3998666E00000000000000000000000000000000000000000000000000000000 DUP2 MSTORE PUSH1 0x4 ADD PUSH2 0x3845 SWAP2 SWAP1 PUSH2 0x55DF JUMP JUMPDEST PUSH1 0x40 MLOAD DUP1 SWAP2 SUB SWAP1 REVERT JUMPDEST DUP7 PUSH1 0x0 PUSH20 0xFFFFFFFFFFFFFFFFFFFFFFFFFFFFFFFFFFFFFFFF AND DUP2 PUSH20 0xFFFFFFFFFFFFFFFFFFFFFFFFFFFFFFFFFFFFFFFF AND EQ DUP1 PUSH2 0x38B5 JUMPI POP ADDRESS PUSH20 0xFFFFFFFFFFFFFFFFFFFFFFFFFFFFFFFFFFFFFFFF AND DUP2 PUSH20 0xFFFFFFFFFFFFFFFFFFFFFFFFFFFFFFFFFFFFFFFF AND EQ JUMPDEST ISZERO PUSH2 0x38F7 JUMPI DUP1 PUSH1 0x40 MLOAD PUSH32 0x223A677400000000000000000000000000000000000000000000000000000000 DUP2 MSTORE PUSH1 0x4 ADD PUSH2 0x38EE SWAP2 SWAP1 PUSH2 0x55DF JUMP JUMPDEST PUSH1 0x40 MLOAD DUP1 SWAP2 SUB SWAP1 REVERT JUMPDEST PUSH2 0x3902 DUP9 DUP9 DUP9 PUSH2 0x47C2 JUMP JUMPDEST SWAP5 POP DUP8 PUSH20 0xFFFFFFFFFFFFFFFFFFFFFFFFFFFFFFFFFFFFFFFF AND CALLER PUSH20 0xFFFFFFFFFFFFFFFFFFFFFFFFFFFFFFFFFFFFFFFF AND PUSH32 0xF1BAEB11A528211157EE96A1D1A17490261724E641CC8346B447AFF593603E1C DUP10 DUP10 PUSH1 0x40 MLOAD PUSH2 0x3963 SWAP3 SWAP2 SWAP1 PUSH2 0x56C8 JUMP JUMPDEST PUSH1 0x40 MLOAD DUP1 SWAP2 SUB SWAP1 LOG3 POP POP POP POP SWAP4 SWAP3 POP POP POP JUMP JUMPDEST PUSH20 0x90B08DCFD15447187A72F5E06592B353E5CFFA93 DUP2 JUMP JUMPDEST PUSH1 0x2 PUSH1 0x20 MSTORE DUP1 PUSH1 0x0 MSTORE PUSH1 0x40 PUSH1 0x0 KECCAK256 PUSH1 0x0 SWAP2 POP SWAP1 POP SLOAD DUP2 JUMP JUMPDEST PUSH19 0xFC4FBCF0F01553BFC470FF85FCA2F3F21E138B DUP2 JUMP JUMPDEST PUSH1 0x0 PUSH1 0x8 PUSH1 0x0 DUP4 PUSH20 0xFFFFFFFFFFFFFFFFFFFFFFFFFFFFFFFFFFFFFFFF AND PUSH20 0xFFFFFFFFFFFFFFFFFFFFFFFFFFFFFFFFFFFFFFFF AND DUP2 MSTORE PUSH1 0x20 ADD SWAP1 DUP2 MSTORE PUSH1 0x20 ADD PUSH1 0x0 KECCAK256 SLOAD SWAP1 POP SWAP2 SWAP1 POP JUMP JUMPDEST PUSH19 0x1B0A8A4749C70AEAD435CF7E6DA06A7BAD1A2D DUP2 JUMP JUMPDEST PUSH32 0x36FD43EDE163045B10E1F0ABD16F62F165FCE3FA7B6CDE217BCEA3BC47663ACC PUSH2 0x3A48 DUP2 CALLER PUSH2 0x4921 JUMP JUMPDEST PUSH2 0x3A89 JUMPI CALLER PUSH1 0x40 MLOAD PUSH32 0x3998666E00000000000000000000000000000000000000000000000000000000 DUP2 MSTORE PUSH1 0x4 ADD PUSH2 0x3A80 SWAP2 SWAP1 PUSH2 0x55DF JUMP JUMPDEST PUSH1 0x40 MLOAD DUP1 SWAP2 SUB SWAP1 REVERT JUMPDEST PUSH2 0x3A93 DUP4 DUP4 PUSH2 0x4E14 JUMP JUMPDEST POP POP POP JUMP JUMPDEST PUSH1 0x0 PUSH1 0x7 PUSH1 0x0 DUP5 PUSH20 0xFFFFFFFFFFFFFFFFFFFFFFFFFFFFFFFFFFFFFFFF AND PUSH20 0xFFFFFFFFFFFFFFFFFFFFFFFFFFFFFFFFFFFFFFFF AND DUP2 MSTORE PUSH1 0x20 ADD SWAP1 DUP2 MSTORE PUSH1 0x20 ADD PUSH1 0x0 KECCAK256 PUSH1 0x0 DUP4 PUSH20 0xFFFFFFFFFFFFFFFFFFFFFFFFFFFFFFFFFFFFFFFF AND PUSH20 0xFFFFFFFFFFFFFFFFFFFFFFFFFFFFFFFFFFFFFFFF AND DUP2 MSTORE PUSH1 0x20 ADD SWAP1 DUP2 MSTORE PUSH1 0x20 ADD PUSH1 0x0 KECCAK256 SLOAD SWAP1 POP SWAP3 SWAP2 POP POP JUMP JUMPDEST PUSH1 0x0 PUSH2 0x3B29 PUSH2 0x1F91 JUMP JUMPDEST ISZERO PUSH2 0x3B6B JUMPI CALLER PUSH1 0x40 MLOAD PUSH32 0x621C564C00000000000000000000000000000000000000000000000000000000 DUP2 MSTORE PUSH1 0x4 ADD PUSH2 0x3B62 SWAP2 SWAP1 PUSH2 0x55DF JUMP JUMPDEST PUSH1 0x40 MLOAD DUP1 SWAP2 SUB SWAP1 REVERT JUMPDEST CALLER PUSH2 0x3B75 DUP2 PUSH2 0x188F JUMP JUMPDEST ISZERO PUSH2 0x3BB7 JUMPI DUP1 PUSH1 0x40 MLOAD PUSH32 0x621C564C00000000000000000000000000000000000000000000000000000000 DUP2 MSTORE PUSH1 0x4 ADD PUSH2 0x3BAE SWAP2 SWAP1 PUSH2 0x55DF JUMP JUMPDEST PUSH1 0x40 MLOAD DUP1 SWAP2 SUB SWAP1 REVERT JUMPDEST CALLER PUSH1 0x0 DUP1 SHL PUSH2 0x3BC5 DUP3 PUSH2 0x42C7 JUMP JUMPDEST PUSH1 0x0 ADD SLOAD EQ PUSH2 0x3C0B JUMPI DUP1 PUSH1 0x40 MLOAD PUSH32 0x621C564C00000000000000000000000000000000000000000000000000000000 DUP2 MSTORE PUSH1 0x4 ADD PUSH2 0x3C02 SWAP2 SWAP1 PUSH2 0x55DF JUMP JUMPDEST PUSH1 0x40 MLOAD DUP1 SWAP2 SUB SWAP1 REVERT JUMPDEST PUSH1 0x0 PUSH1 0x7 PUSH1 0x0 CALLER PUSH20 0xFFFFFFFFFFFFFFFFFFFFFFFFFFFFFFFFFFFFFFFF AND PUSH20 0xFFFFFFFFFFFFFFFFFFFFFFFFFFFFFFFFFFFFFFFF AND DUP2 MSTORE PUSH1 0x20 ADD SWAP1 DUP2 MSTORE PUSH1 0x20 ADD PUSH1 0x0 KECCAK256 PUSH1 0x0 DUP9 PUSH20 0xFFFFFFFFFFFFFFFFFFFFFFFFFFFFFFFFFFFFFFFF AND PUSH20 0xFFFFFFFFFFFFFFFFFFFFFFFFFFFFFFFFFFFFFFFF AND DUP2 MSTORE PUSH1 0x20 ADD SWAP1 DUP2 MSTORE PUSH1 0x20 ADD PUSH1 0x0 KECCAK256 SLOAD SWAP1 POP DUP6 DUP2 EQ PUSH2 0x3CC5 JUMPI PUSH1 0x40 MLOAD PUSH32 0x188284B100000000000000000000000000000000000000000000000000000000 DUP2 MSTORE PUSH1 0x4 ADD PUSH1 0x40 MLOAD DUP1 SWAP2 SUB SWAP1 REVERT JUMPDEST DUP5 DUP2 PUSH2 0x3CD1 SWAP2 SWAP1 PUSH2 0x5880 JUMP JUMPDEST PUSH1 0x7 PUSH1 0x0 CALLER PUSH20 0xFFFFFFFFFFFFFFFFFFFFFFFFFFFFFFFFFFFFFFFF AND PUSH20 0xFFFFFFFFFFFFFFFFFFFFFFFFFFFFFFFFFFFFFFFF AND DUP2 MSTORE PUSH1 0x20 ADD SWAP1 DUP2 MSTORE PUSH1 0x20 ADD PUSH1 0x0 KECCAK256 PUSH1 0x0 DUP10 PUSH20 0xFFFFFFFFFFFFFFFFFFFFFFFFFFFFFFFFFFFFFFFF AND PUSH20 0xFFFFFFFFFFFFFFFFFFFFFFFFFFFFFFFFFFFFFFFF AND DUP2 MSTORE PUSH1 0x20 ADD SWAP1 DUP2 MSTORE PUSH1 0x20 ADD PUSH1 0x0 KECCAK256 DUP2 SWAP1 SSTORE POP DUP7 PUSH20 0xFFFFFFFFFFFFFFFFFFFFFFFFFFFFFFFFFFFFFFFF AND CALLER PUSH20 0xFFFFFFFFFFFFFFFFFFFFFFFFFFFFFFFFFFFFFFFF AND PUSH32 0x85ECBD9E6B47A8C64C0C5B4998F064973A3A6E6987C83A8FD61F1D2DE09735BC DUP4 DUP9 PUSH1 0x40 MLOAD PUSH2 0x3DB0 SWAP3 SWAP2 SWAP1 PUSH2 0x56C8 JUMP JUMPDEST PUSH1 0x40 MLOAD DUP1 SWAP2 SUB SWAP1 LOG3 PUSH1 0x1 SWAP4 POP POP POP POP SWAP4 SWAP3 POP POP POP JUMP JUMPDEST PUSH20 0x7A6D0F0F96F39E54ABFEBA3D1DA6F56C921B9CB7 DUP2 JUMP JUMPDEST PUSH20 0x3A528CA83A9D4E167DC9C14690349E3B6FC02054 DUP2 JUMP JUMPDEST PUSH32 0x36FD43EDE163045B10E1F0ABD16F62F165FCE3FA7B6CDE217BCEA3BC47663ACC DUP2 JUMP JUMPDEST PUSH1 0x0 PUSH2 0x3E24 PUSH2 0x1F91 JUMP JUMPDEST ISZERO PUSH2 0x3E66 JUMPI CALLER PUSH1 0x40 MLOAD PUSH32 0x621C564C00000000000000000000000000000000000000000000000000000000 DUP2 MSTORE PUSH1 0x4 ADD PUSH2 0x3E5D SWAP2 SWAP1 PUSH2 0x55DF JUMP JUMPDEST PUSH1 0x40 MLOAD DUP1 SWAP2 SUB SWAP1 REVERT JUMPDEST DUP4 PUSH2 0x3E70 DUP2 PUSH2 0x188F JUMP JUMPDEST ISZERO PUSH2 0x3EB2 JUMPI DUP1 PUSH1 0x40 MLOAD PUSH32 0x621C564C00000000000000000000000000000000000000000000000000000000 DUP2 MSTORE PUSH1 0x4 ADD PUSH2 0x3EA9 SWAP2 SWAP1 PUSH2 0x55DF JUMP JUMPDEST PUSH1 0x40 MLOAD DUP1 SWAP2 SUB SWAP1 REVERT JUMPDEST PUSH32 0x36FD43EDE163045B10E1F0ABD16F62F165FCE3FA7B6CDE217BCEA3BC47663ACC PUSH32 0xA49807205CE4D355092EF5A8A18F56E8913CF4A201FBE287825B095693C21775 PUSH2 0x3EFE DUP3 CALLER PUSH2 0x4921 JUMP JUMPDEST ISZERO DUP1 ISZERO PUSH2 0x3F12 JUMPI POP PUSH2 0x3F10 DUP2 CALLER PUSH2 0x4921 JUMP JUMPDEST ISZERO JUMPDEST ISZERO PUSH2 0x3F54 JUMPI CALLER PUSH1 0x40 MLOAD PUSH32 0x3998666E00000000000000000000000000000000000000000000000000000000 DUP2 MSTORE PUSH1 0x4 ADD PUSH2 0x3F4B SWAP2 SWAP1 PUSH2 0x55DF JUMP JUMPDEST PUSH1 0x40 MLOAD DUP1 SWAP2 SUB SWAP1 REVERT JUMPDEST DUP7 PUSH1 0x0 PUSH20 0xFFFFFFFFFFFFFFFFFFFFFFFFFFFFFFFFFFFFFFFF AND DUP2 PUSH20 0xFFFFFFFFFFFFFFFFFFFFFFFFFFFFFFFFFFFFFFFF AND EQ DUP1 PUSH2 0x3FBB JUMPI POP ADDRESS PUSH20 0xFFFFFFFFFFFFFFFFFFFFFFFFFFFFFFFFFFFFFFFF AND DUP2 PUSH20 0xFFFFFFFFFFFFFFFFFFFFFFFFFFFFFFFFFFFFFFFF AND EQ JUMPDEST ISZERO PUSH2 0x3FFD JUMPI DUP1 PUSH1 0x40 MLOAD PUSH32 0x223A677400000000000000000000000000000000000000000000000000000000 DUP2 MSTORE PUSH1 0x4 ADD PUSH2 0x3FF4 SWAP2 SWAP1 PUSH2 0x55DF JUMP JUMPDEST PUSH1 0x40 MLOAD DUP1 SWAP2 SUB SWAP1 REVERT JUMPDEST PUSH2 0x4008 DUP9 DUP9 DUP9 PUSH2 0x49A9 JUMP JUMPDEST SWAP5 POP DUP8 PUSH20 0xFFFFFFFFFFFFFFFFFFFFFFFFFFFFFFFFFFFFFFFF AND CALLER PUSH20 0xFFFFFFFFFFFFFFFFFFFFFFFFFFFFFFFFFFFFFFFF AND PUSH32 0x1523BFA6E83338A433C782607D64C2A02D7C24ABD1A83102F4FBE5C0F2DB262E DUP10 DUP10 PUSH1 0x40 MLOAD PUSH2 0x4069 SWAP3 SWAP2 SWAP1 PUSH2 0x56C8 JUMP JUMPDEST PUSH1 0x40 MLOAD DUP1 SWAP2 SUB SWAP1 LOG3 POP POP POP POP SWAP4 SWAP3 POP POP POP JUMP JUMPDEST PUSH32 0x36FD43EDE163045B10E1F0ABD16F62F165FCE3FA7B6CDE217BCEA3BC47663ACC PUSH2 0x40A7 DUP2 CALLER PUSH2 0x4921 JUMP JUMPDEST PUSH2 0x40E8 JUMPI CALLER PUSH1 0x40 MLOAD PUSH32 0x3998666E00000000000000000000000000000000000000000000000000000000 DUP2 MSTORE PUSH1 0x4 ADD PUSH2 0x40DF SWAP2 SWAP1 PUSH2 0x55DF JUMP JUMPDEST PUSH1 0x40 MLOAD DUP1 SWAP2 SUB SWAP1 REVERT JUMPDEST DUP3 DUP3 PUSH1 0x0 PUSH20 0xFFFFFFFFFFFFFFFFFFFFFFFFFFFFFFFFFFFFFFFF AND DUP3 PUSH20 0xFFFFFFFFFFFFFFFFFFFFFFFFFFFFFFFFFFFFFFFF AND EQ DUP1 PUSH2 0x4150 JUMPI POP ADDRESS PUSH20 0xFFFFFFFFFFFFFFFFFFFFFFFFFFFFFFFFFFFFFFFF AND DUP3 PUSH20 0xFFFFFFFFFFFFFFFFFFFFFFFFFFFFFFFFFFFFFFFF AND EQ JUMPDEST ISZERO PUSH2 0x4192 JUMPI DUP2 PUSH1 0x40 MLOAD PUSH32 0x223A677400000000000000000000000000000000000000000000000000000000 DUP2 MSTORE PUSH1 0x4 ADD PUSH2 0x4189 SWAP2 SWAP1 PUSH2 0x55DF JUMP JUMPDEST PUSH1 0x40 MLOAD DUP1 SWAP2 SUB SWAP1 REVERT JUMPDEST PUSH1 0x0 PUSH20 0xFFFFFFFFFFFFFFFFFFFFFFFFFFFFFFFFFFFFFFFF AND DUP2 PUSH20 0xFFFFFFFFFFFFFFFFFFFFFFFFFFFFFFFFFFFFFFFF AND EQ DUP1 PUSH2 0x41F8 JUMPI POP ADDRESS PUSH20 0xFFFFFFFFFFFFFFFFFFFFFFFFFFFFFFFFFFFFFFFF AND DUP2 PUSH20 0xFFFFFFFFFFFFFFFFFFFFFFFFFFFFFFFFFFFFFFFF AND EQ JUMPDEST ISZERO PUSH2 0x423A JUMPI DUP1 PUSH1 0x40 MLOAD PUSH32 0x223A677400000000000000000000000000000000000000000000000000000000 DUP2 MSTORE PUSH1 0x4 ADD PUSH2 0x4231 SWAP2 SWAP1 PUSH2 0x55DF JUMP JUMPDEST PUSH1 0x40 MLOAD DUP1 SWAP2 SUB SWAP1 REVERT JUMPDEST PUSH2 0x4245 DUP7 DUP7 DUP7 PUSH2 0x4B59 JUMP JUMPDEST POP POP POP POP POP POP JUMP JUMPDEST PUSH1 0x0 PUSH32 0x55DF471300000000000000000000000000000000000000000000000000000000 PUSH28 0xFFFFFFFFFFFFFFFFFFFFFFFFFFFFFFFFFFFFFFFFFFFFFFFFFFFFFFFF NOT AND DUP3 PUSH28 0xFFFFFFFFFFFFFFFFFFFFFFFFFFFFFFFFFFFFFFFFFFFFFFFFFFFFFFFF NOT AND EQ DUP1 PUSH2 0x42C0 JUMPI POP PUSH2 0x42BF DUP3 PUSH2 0x503C JUMP JUMPDEST JUMPDEST SWAP1 POP SWAP2 SWAP1 POP JUMP JUMPDEST PUSH1 0x0 PUSH1 0x1 PUSH1 0x0 DUP4 PUSH20 0xFFFFFFFFFFFFFFFFFFFFFFFFFFFFFFFFFFFFFFFF AND PUSH20 0xFFFFFFFFFFFFFFFFFFFFFFFFFFFFFFFFFFFFFFFF AND DUP2 MSTORE PUSH1 0x20 ADD SWAP1 DUP2 MSTORE PUSH1 0x20 ADD PUSH1 0x0 KECCAK256 SWAP1 POP SWAP2 SWAP1 POP JUMP JUMPDEST DUP3 DUP3 PUSH1 0x0 PUSH20 0xFFFFFFFFFFFFFFFFFFFFFFFFFFFFFFFFFFFFFFFF AND DUP3 PUSH20 0xFFFFFFFFFFFFFFFFFFFFFFFFFFFFFFFFFFFFFFFF AND EQ DUP1 PUSH2 0x4377 JUMPI POP ADDRESS PUSH20 0xFFFFFFFFFFFFFFFFFFFFFFFFFFFFFFFFFFFFFFFF AND DUP3 PUSH20 0xFFFFFFFFFFFFFFFFFFFFFFFFFFFFFFFFFFFFFFFF AND EQ JUMPDEST ISZERO PUSH2 0x43B9 JUMPI DUP2 PUSH1 0x40 MLOAD PUSH32 0x223A677400000000000000000000000000000000000000000000000000000000 DUP2 MSTORE PUSH1 0x4 ADD PUSH2 0x43B0 SWAP2 SWAP1 PUSH2 0x55DF JUMP JUMPDEST PUSH1 0x40 MLOAD DUP1 SWAP2 SUB SWAP1 REVERT JUMPDEST PUSH1 0x0 PUSH20 0xFFFFFFFFFFFFFFFFFFFFFFFFFFFFFFFFFFFFFFFF AND DUP2 PUSH20 0xFFFFFFFFFFFFFFFFFFFFFFFFFFFFFFFFFFFFFFFF AND EQ DUP1 PUSH2 0x441F JUMPI POP ADDRESS PUSH20 0xFFFFFFFFFFFFFFFFFFFFFFFFFFFFFFFFFFFFFFFF AND DUP2 PUSH20 0xFFFFFFFFFFFFFFFFFFFFFFFFFFFFFFFFFFFFFFFF AND EQ JUMPDEST ISZERO PUSH2 0x4461 JUMPI DUP1 PUSH1 0x40 MLOAD PUSH32 0x223A677400000000000000000000000000000000000000000000000000000000 DUP2 MSTORE PUSH1 0x4 ADD PUSH2 0x4458 SWAP2 SWAP1 PUSH2 0x55DF JUMP JUMPDEST PUSH1 0x40 MLOAD DUP1 SWAP2 SUB SWAP1 REVERT JUMPDEST DUP3 PUSH1 0x7 PUSH1 0x0 DUP8 PUSH20 0xFFFFFFFFFFFFFFFFFFFFFFFFFFFFFFFFFFFFFFFF AND PUSH20 0xFFFFFFFFFFFFFFFFFFFFFFFFFFFFFFFFFFFFFFFF AND DUP2 MSTORE PUSH1 0x20 ADD SWAP1 DUP2 MSTORE PUSH1 0x20 ADD PUSH1 0x0 KECCAK256 PUSH1 0x0 DUP7 PUSH20 0xFFFFFFFFFFFFFFFFFFFFFFFFFFFFFFFFFFFFFFFF AND PUSH20 0xFFFFFFFFFFFFFFFFFFFFFFFFFFFFFFFFFFFFFFFF AND DUP2 MSTORE PUSH1 0x20 ADD SWAP1 DUP2 MSTORE PUSH1 0x20 ADD PUSH1 0x0 KECCAK256 DUP2 SWAP1 SSTORE POP DUP4 PUSH20 0xFFFFFFFFFFFFFFFFFFFFFFFFFFFFFFFFFFFFFFFF AND DUP6 PUSH20 0xFFFFFFFFFFFFFFFFFFFFFFFFFFFFFFFFFFFFFFFF AND PUSH32 0x8C5BE1E5EBEC7D5BD14F71427D1E84F3DD0314C0F7B2291E5B200AC8C7C3B925 DUP6 PUSH1 0x40 MLOAD PUSH2 0x453F SWAP2 SWAP1 PUSH2 0x540E JUMP JUMPDEST PUSH1 0x40 MLOAD DUP1 SWAP2 SUB SWAP1 LOG3 POP POP POP POP POP JUMP JUMPDEST DUP3 DUP3 PUSH1 0x0 PUSH20 0xFFFFFFFFFFFFFFFFFFFFFFFFFFFFFFFFFFFFFFFF AND DUP3 PUSH20 0xFFFFFFFFFFFFFFFFFFFFFFFFFFFFFFFFFFFFFFFF AND EQ DUP1 PUSH2 0x45B6 JUMPI POP ADDRESS PUSH20 0xFFFFFFFFFFFFFFFFFFFFFFFFFFFFFFFFFFFFFFFF AND DUP3 PUSH20 0xFFFFFFFFFFFFFFFFFFFFFFFFFFFFFFFFFFFFFFFF AND EQ JUMPDEST ISZERO PUSH2 0x45F8 JUMPI DUP2 PUSH1 0x40 MLOAD PUSH32 0x223A677400000000000000000000000000000000000000000000000000000000 DUP2 MSTORE PUSH1 0x4 ADD PUSH2 0x45EF SWAP2 SWAP1 PUSH2 0x55DF JUMP JUMPDEST PUSH1 0x40 MLOAD DUP1 SWAP2 SUB SWAP1 REVERT JUMPDEST PUSH1 0x0 PUSH20 0xFFFFFFFFFFFFFFFFFFFFFFFFFFFFFFFFFFFFFFFF AND DUP2 PUSH20 0xFFFFFFFFFFFFFFFFFFFFFFFFFFFFFFFFFFFFFFFF AND EQ DUP1 PUSH2 0x465E JUMPI POP ADDRESS PUSH20 0xFFFFFFFFFFFFFFFFFFFFFFFFFFFFFFFFFFFFFFFF AND DUP2 PUSH20 0xFFFFFFFFFFFFFFFFFFFFFFFFFFFFFFFFFFFFFFFF AND EQ JUMPDEST ISZERO PUSH2 0x46A0 JUMPI DUP1 PUSH1 0x40 MLOAD PUSH32 0x223A677400000000000000000000000000000000000000000000000000000000 DUP2 MSTORE PUSH1 0x4 ADD PUSH2 0x4697 SWAP2 SWAP1 PUSH2 0x55DF JUMP JUMPDEST PUSH1 0x40 MLOAD DUP1 SWAP2 SUB SWAP1 REVERT JUMPDEST PUSH1 0x0 PUSH1 0x6 PUSH1 0x0 DUP8 PUSH20 0xFFFFFFFFFFFFFFFFFFFFFFFFFFFFFFFFFFFFFFFF AND PUSH20 0xFFFFFFFFFFFFFFFFFFFFFFFFFFFFFFFFFFFFFFFF AND DUP2 MSTORE PUSH1 0x20 ADD SWAP1 DUP2 MSTORE PUSH1 0x20 ADD PUSH1 0x0 KECCAK256 SLOAD SWAP1 POP DUP4 DUP2 LT ISZERO PUSH2 0x471E JUMPI PUSH1 0x40 MLOAD PUSH32 0x135D073E00000000000000000000000000000000000000000000000000000000 DUP2 MSTORE PUSH1 0x4 ADD PUSH1 0x40 MLOAD DUP1 SWAP2 SUB SWAP1 REVERT JUMPDEST DUP4 DUP2 SUB PUSH1 0x6 PUSH1 0x0 DUP9 PUSH20 0xFFFFFFFFFFFFFFFFFFFFFFFFFFFFFFFFFFFFFFFF AND PUSH20 0xFFFFFFFFFFFFFFFFFFFFFFFFFFFFFFFFFFFFFFFF AND DUP2 MSTORE PUSH1 0x20 ADD SWAP1 DUP2 MSTORE PUSH1 0x20 ADD PUSH1 0x0 KECCAK256 DUP2 SWAP1 SSTORE POP DUP4 PUSH1 0x6 PUSH1 0x0 DUP8 PUSH20 0xFFFFFFFFFFFFFFFFFFFFFFFFFFFFFFFFFFFFFFFF AND PUSH20 0xFFFFFFFFFFFFFFFFFFFFFFFFFFFFFFFFFFFFFFFF AND DUP2 MSTORE PUSH1 0x20 ADD SWAP1 DUP2 MSTORE PUSH1 0x20 ADD PUSH1 0x0 KECCAK256 PUSH1 0x0 DUP3 DUP3 SLOAD PUSH2 0x47B3 SWAP2 SWAP1 PUSH2 0x5880 JUMP JUMPDEST SWAP3 POP POP DUP2 SWAP1 SSTORE POP POP POP POP POP POP POP JUMP JUMPDEST PUSH1 0x0 DUP1 PUSH1 0x8 PUSH1 0x0 DUP7 PUSH20 0xFFFFFFFFFFFFFFFFFFFFFFFFFFFFFFFFFFFFFFFF AND PUSH20 0xFFFFFFFFFFFFFFFFFFFFFFFFFFFFFFFFFFFFFFFF AND DUP2 MSTORE PUSH1 0x20 ADD SWAP1 DUP2 MSTORE PUSH1 0x20 ADD PUSH1 0x0 KECCAK256 SLOAD SWAP1 POP DUP3 DUP2 LT ISZERO PUSH2 0x4841 JUMPI PUSH1 0x40 MLOAD PUSH32 0xF8CDD99B00000000000000000000000000000000000000000000000000000000 DUP2 MSTORE PUSH1 0x4 ADD PUSH1 0x40 MLOAD DUP1 SWAP2 SUB SWAP1 REVERT JUMPDEST DUP1 DUP5 EQ PUSH2 0x487A JUMPI PUSH1 0x40 MLOAD PUSH32 0x135D073E00000000000000000000000000000000000000000000000000000000 DUP2 MSTORE PUSH1 0x4 ADD PUSH1 0x40 MLOAD DUP1 SWAP2 SUB SWAP1 REVERT JUMPDEST DUP3 PUSH1 0x6 PUSH1 0x0 DUP8 PUSH20 0xFFFFFFFFFFFFFFFFFFFFFFFFFFFFFFFFFFFFFFFF AND PUSH20 0xFFFFFFFFFFFFFFFFFFFFFFFFFFFFFFFFFFFFFFFF AND DUP2 MSTORE PUSH1 0x20 ADD SWAP1 DUP2 MSTORE PUSH1 0x20 ADD PUSH1 0x0 KECCAK256 PUSH1 0x0 DUP3 DUP3 SLOAD PUSH2 0x48C9 SWAP2 SWAP1 PUSH2 0x5880 JUMP JUMPDEST SWAP3 POP POP DUP2 SWAP1 SSTORE POP DUP3 DUP2 SUB SWAP2 POP DUP2 PUSH1 0x8 PUSH1 0x0 DUP8 PUSH20 0xFFFFFFFFFFFFFFFFFFFFFFFFFFFFFFFFFFFFFFFF AND PUSH20 0xFFFFFFFFFFFFFFFFFFFFFFFFFFFFFFFFFFFFFFFF AND DUP2 MSTORE PUSH1 0x20 ADD SWAP1 DUP2 MSTORE PUSH1 0x20 ADD PUSH1 0x0 KECCAK256 DUP2 SWAP1 SSTORE POP POP SWAP4 SWAP3 POP POP POP JUMP JUMPDEST PUSH1 0x0 DUP1 PUSH1 0x1 PUSH1 0x0 DUP5 PUSH20 0xFFFFFFFFFFFFFFFFFFFFFFFFFFFFFFFFFFFFFFFF AND PUSH20 0xFFFFFFFFFFFFFFFFFFFFFFFFFFFFFFFFFFFFFFFF AND DUP2 MSTORE PUSH1 0x20 ADD SWAP1 DUP2 MSTORE PUSH1 0x20 ADD PUSH1 0x0 KECCAK256 SWAP1 POP PUSH1 0x0 DUP1 SHL DUP2 PUSH1 0x0 ADD SLOAD EQ ISZERO PUSH2 0x497E JUMPI PUSH1 0x0 SWAP2 POP POP PUSH2 0x49A3 JUMP JUMPDEST DUP4 DUP2 PUSH1 0x0 ADD SLOAD EQ DUP1 ISZERO PUSH2 0x499F JUMPI POP DUP1 PUSH1 0x1 ADD PUSH1 0x0 SWAP1 SLOAD SWAP1 PUSH2 0x100 EXP SWAP1 DIV PUSH1 0xFF AND JUMPDEST SWAP2 POP POP JUMPDEST SWAP3 SWAP2 POP POP JUMP JUMPDEST PUSH1 0x0 DUP1 PUSH1 0x6 PUSH1 0x0 DUP7 PUSH20 0xFFFFFFFFFFFFFFFFFFFFFFFFFFFFFFFFFFFFFFFF AND PUSH20 0xFFFFFFFFFFFFFFFFFFFFFFFFFFFFFFFFFFFFFFFF AND DUP2 MSTORE PUSH1 0x20 ADD SWAP1 DUP2 MSTORE PUSH1 0x20 ADD PUSH1 0x0 KECCAK256 SLOAD SWAP1 POP DUP3 DUP2 LT ISZERO PUSH2 0x4A28 JUMPI PUSH1 0x40 MLOAD PUSH32 0xF8CDD99B00000000000000000000000000000000000000000000000000000000 DUP2 MSTORE PUSH1 0x4 ADD PUSH1 0x40 MLOAD DUP1 SWAP2 SUB SWAP1 REVERT JUMPDEST PUSH1 0x0 PUSH1 0x8 PUSH1 0x0 DUP8 PUSH20 0xFFFFFFFFFFFFFFFFFFFFFFFFFFFFFFFFFFFFFFFF AND PUSH20 0xFFFFFFFFFFFFFFFFFFFFFFFFFFFFFFFFFFFFFFFF AND DUP2 MSTORE PUSH1 0x20 ADD SWAP1 DUP2 MSTORE PUSH1 0x20 ADD PUSH1 0x0 KECCAK256 SLOAD SWAP1 POP DUP1 DUP6 EQ PUSH2 0x4AA5 JUMPI PUSH1 0x40 MLOAD PUSH32 0x135D073E00000000000000000000000000000000000000000000000000000000 DUP2 MSTORE PUSH1 0x4 ADD PUSH1 0x40 MLOAD DUP1 SWAP2 SUB SWAP1 REVERT JUMPDEST DUP4 DUP2 PUSH2 0x4AB1 SWAP2 SWAP1 PUSH2 0x5880 JUMP JUMPDEST SWAP3 POP DUP3 PUSH1 0x8 PUSH1 0x0 DUP9 PUSH20 0xFFFFFFFFFFFFFFFFFFFFFFFFFFFFFFFFFFFFFFFF AND PUSH20 0xFFFFFFFFFFFFFFFFFFFFFFFFFFFFFFFFFFFFFFFF AND DUP2 MSTORE PUSH1 0x20 ADD SWAP1 DUP2 MSTORE PUSH1 0x20 ADD PUSH1 0x0 KECCAK256 DUP2 SWAP1 SSTORE POP DUP4 DUP3 SUB PUSH1 0x6 PUSH1 0x0 DUP9 PUSH20 0xFFFFFFFFFFFFFFFFFFFFFFFFFFFFFFFFFFFFFFFF AND PUSH20 0xFFFFFFFFFFFFFFFFFFFFFFFFFFFFFFFFFFFFFFFF AND DUP2 MSTORE PUSH1 0x20 ADD SWAP1 DUP2 MSTORE PUSH1 0x20 ADD PUSH1 0x0 KECCAK256 DUP2 SWAP1 SSTORE POP POP POP SWAP4 SWAP3 POP POP POP JUMP JUMPDEST PUSH1 0x0 DUP1 DUP3 EXTCODESIZE SWAP1 POP PUSH1 0x0 DUP2 GT SWAP2 POP POP SWAP2 SWAP1 POP JUMP JUMPDEST PUSH32 0x36FD43EDE163045B10E1F0ABD16F62F165FCE3FA7B6CDE217BCEA3BC47663ACC DUP4 EQ DUP1 ISZERO PUSH2 0x4B8E JUMPI POP PUSH2 0x4B8C DUP2 PUSH2 0x4B46 JUMP JUMPDEST ISZERO JUMPDEST ISZERO PUSH2 0x4BD0 JUMPI DUP1 PUSH1 0x40 MLOAD PUSH32 0x223A677400000000000000000000000000000000000000000000000000000000 DUP2 MSTORE PUSH1 0x4 ADD PUSH2 0x4BC7 SWAP2 SWAP1 PUSH2 0x55DF JUMP JUMPDEST PUSH1 0x40 MLOAD DUP1 SWAP2 SUB SWAP1 REVERT JUMPDEST PUSH1 0x0 PUSH1 0x1 PUSH1 0x0 DUP5 PUSH20 0xFFFFFFFFFFFFFFFFFFFFFFFFFFFFFFFFFFFFFFFF AND PUSH20 0xFFFFFFFFFFFFFFFFFFFFFFFFFFFFFFFFFFFFFFFF AND DUP2 MSTORE PUSH1 0x20 ADD SWAP1 DUP2 MSTORE PUSH1 0x20 ADD PUSH1 0x0 KECCAK256 PUSH1 0x40 MLOAD DUP1 PUSH1 0x40 ADD PUSH1 0x40 MSTORE SWAP1 DUP2 PUSH1 0x0 DUP3 ADD SLOAD DUP2 MSTORE PUSH1 0x20 ADD PUSH1 0x1 DUP3 ADD PUSH1 0x0 SWAP1 SLOAD SWAP1 PUSH2 0x100 EXP SWAP1 DIV PUSH1 0xFF AND ISZERO ISZERO ISZERO ISZERO DUP2 MSTORE POP POP SWAP1 POP PUSH1 0x0 DUP1 SHL DUP2 PUSH1 0x0 ADD MLOAD EQ ISZERO PUSH2 0x4C8F JUMPI DUP3 PUSH1 0x40 MLOAD PUSH32 0xD5BAE1A100000000000000000000000000000000000000000000000000000000 DUP2 MSTORE PUSH1 0x4 ADD PUSH2 0x4C86 SWAP2 SWAP1 PUSH2 0x55DF JUMP JUMPDEST PUSH1 0x40 MLOAD DUP1 SWAP2 SUB SWAP1 REVERT JUMPDEST DUP4 DUP2 PUSH1 0x0 ADD MLOAD EQ PUSH2 0x4CCC JUMPI PUSH1 0x40 MLOAD PUSH32 0x6133F12200000000000000000000000000000000000000000000000000000000 DUP2 MSTORE PUSH1 0x4 ADD PUSH1 0x40 MLOAD DUP1 SWAP2 SUB SWAP1 REVERT JUMPDEST PUSH1 0x1 DUP2 PUSH1 0x20 ADD SWAP1 ISZERO ISZERO SWAP1 DUP2 ISZERO ISZERO DUP2 MSTORE POP POP PUSH1 0x1 PUSH1 0x0 DUP5 PUSH20 0xFFFFFFFFFFFFFFFFFFFFFFFFFFFFFFFFFFFFFFFF AND PUSH20 0xFFFFFFFFFFFFFFFFFFFFFFFFFFFFFFFFFFFFFFFF AND DUP2 MSTORE PUSH1 0x20 ADD SWAP1 DUP2 MSTORE PUSH1 0x20 ADD PUSH1 0x0 KECCAK256 PUSH1 0x0 DUP1 DUP3 ADD PUSH1 0x0 SWAP1 SSTORE PUSH1 0x1 DUP3 ADD PUSH1 0x0 PUSH2 0x100 EXP DUP2 SLOAD SWAP1 PUSH1 0xFF MUL NOT AND SWAP1 SSTORE POP POP DUP1 PUSH1 0x1 PUSH1 0x0 DUP5 PUSH20 0xFFFFFFFFFFFFFFFFFFFFFFFFFFFFFFFFFFFFFFFF AND PUSH20 0xFFFFFFFFFFFFFFFFFFFFFFFFFFFFFFFFFFFFFFFF AND DUP2 MSTORE PUSH1 0x20 ADD SWAP1 DUP2 MSTORE PUSH1 0x20 ADD PUSH1 0x0 KECCAK256 PUSH1 0x0 DUP3 ADD MLOAD DUP2 PUSH1 0x0 ADD SSTORE PUSH1 0x20 DUP3 ADD MLOAD DUP2 PUSH1 0x1 ADD PUSH1 0x0 PUSH2 0x100 EXP DUP2 SLOAD DUP2 PUSH1 0xFF MUL NOT AND SWAP1 DUP4 ISZERO ISZERO MUL OR SWAP1 SSTORE POP SWAP1 POP POP DUP2 PUSH20 0xFFFFFFFFFFFFFFFFFFFFFFFFFFFFFFFFFFFFFFFF AND CALLER PUSH20 0xFFFFFFFFFFFFFFFFFFFFFFFFFFFFFFFFFFFFFFFF AND DUP6 PUSH32 0xCABA87D53B293D545D69AB305284377793434C6FB5428E6244BFADCD43422370 DUP7 PUSH1 0x40 MLOAD PUSH2 0x4E06 SWAP2 SWAP1 PUSH2 0x55DF JUMP JUMPDEST PUSH1 0x40 MLOAD DUP1 SWAP2 SUB SWAP1 LOG4 POP POP POP POP JUMP JUMPDEST PUSH32 0x36FD43EDE163045B10E1F0ABD16F62F165FCE3FA7B6CDE217BCEA3BC47663ACC DUP3 EQ ISZERO PUSH2 0x4E79 JUMPI DUP1 PUSH1 0x40 MLOAD PUSH32 0x621C564C00000000000000000000000000000000000000000000000000000000 DUP2 MSTORE PUSH1 0x4 ADD PUSH2 0x4E70 SWAP2 SWAP1 PUSH2 0x55DF JUMP JUMPDEST PUSH1 0x40 MLOAD DUP1 SWAP2 SUB SWAP1 REVERT JUMPDEST PUSH1 0x0 PUSH1 0x1 PUSH1 0x0 DUP4 PUSH20 0xFFFFFFFFFFFFFFFFFFFFFFFFFFFFFFFFFFFFFFFF AND PUSH20 0xFFFFFFFFFFFFFFFFFFFFFFFFFFFFFFFFFFFFFFFF AND DUP2 MSTORE PUSH1 0x20 ADD SWAP1 DUP2 MSTORE PUSH1 0x20 ADD PUSH1 0x0 KECCAK256 SWAP1 POP PUSH1 0x0 DUP1 SHL DUP2 PUSH1 0x0 ADD SLOAD EQ ISZERO PUSH2 0x4F08 JUMPI DUP2 PUSH1 0x40 MLOAD PUSH32 0xD5BAE1A100000000000000000000000000000000000000000000000000000000 DUP2 MSTORE PUSH1 0x4 ADD PUSH2 0x4EFF SWAP2 SWAP1 PUSH2 0x55DF JUMP JUMPDEST PUSH1 0x40 MLOAD DUP1 SWAP2 SUB SWAP1 REVERT JUMPDEST DUP3 DUP2 PUSH1 0x0 ADD SLOAD EQ PUSH2 0x4F45 JUMPI PUSH1 0x40 MLOAD PUSH32 0x6133F12200000000000000000000000000000000000000000000000000000000 DUP2 MSTORE PUSH1 0x4 ADD PUSH1 0x40 MLOAD DUP1 SWAP2 SUB SWAP1 REVERT JUMPDEST PUSH32 0xA49807205CE4D355092EF5A8A18F56E8913CF4A201FBE287825B095693C21775 DUP2 PUSH1 0x0 ADD SLOAD EQ DUP1 ISZERO PUSH2 0x4F7D JUMPI POP PUSH2 0x4F7B PUSH2 0x50B6 JUMP JUMPDEST ISZERO JUMPDEST ISZERO PUSH2 0x4FBF JUMPI DUP2 PUSH1 0x40 MLOAD PUSH32 0x621C564C00000000000000000000000000000000000000000000000000000000 DUP2 MSTORE PUSH1 0x4 ADD PUSH2 0x4FB6 SWAP2 SWAP1 PUSH2 0x55DF JUMP JUMPDEST PUSH1 0x40 MLOAD DUP1 SWAP2 SUB SWAP1 REVERT JUMPDEST PUSH1 0x0 DUP2 PUSH1 0x1 ADD PUSH1 0x0 PUSH2 0x100 EXP DUP2 SLOAD DUP2 PUSH1 0xFF MUL NOT AND SWAP1 DUP4 ISZERO ISZERO MUL OR SWAP1 SSTORE POP DUP2 PUSH20 0xFFFFFFFFFFFFFFFFFFFFFFFFFFFFFFFFFFFFFFFF AND CALLER PUSH20 0xFFFFFFFFFFFFFFFFFFFFFFFFFFFFFFFFFFFFFFFF AND DUP5 PUSH32 0xF6391F5C32D9C69D2A47EA670B442974B53935D1EDC7FD64EB21E047A839171B PUSH1 0x40 MLOAD PUSH1 0x40 MLOAD DUP1 SWAP2 SUB SWAP1 LOG4 POP POP POP JUMP JUMPDEST PUSH1 0x0 PUSH32 0xE613F82A00000000000000000000000000000000000000000000000000000000 PUSH28 0xFFFFFFFFFFFFFFFFFFFFFFFFFFFFFFFFFFFFFFFFFFFFFFFFFFFFFFFF NOT AND DUP3 PUSH28 0xFFFFFFFFFFFFFFFFFFFFFFFFFFFFFFFFFFFFFFFFFFFFFFFFFFFFFFFF NOT AND EQ DUP1 PUSH2 0x50AF JUMPI POP PUSH2 0x50AE DUP3 PUSH2 0x50CC JUMP JUMPDEST JUMPDEST SWAP1 POP SWAP2 SWAP1 POP JUMP JUMPDEST PUSH1 0x0 DUP1 PUSH1 0x0 SWAP1 SLOAD SWAP1 PUSH2 0x100 EXP SWAP1 DIV PUSH1 0xFF AND SWAP1 POP SWAP1 JUMP JUMPDEST PUSH1 0x0 PUSH32 0xBA7DF35200000000000000000000000000000000000000000000000000000000 PUSH28 0xFFFFFFFFFFFFFFFFFFFFFFFFFFFFFFFFFFFFFFFFFFFFFFFFFFFFFFFF NOT AND DUP3 PUSH28 0xFFFFFFFFFFFFFFFFFFFFFFFFFFFFFFFFFFFFFFFFFFFFFFFFFFFFFFFF NOT AND EQ DUP1 PUSH2 0x513F JUMPI POP PUSH2 0x513E DUP3 PUSH2 0x5146 JUMP JUMPDEST JUMPDEST SWAP1 POP SWAP2 SWAP1 POP JUMP JUMPDEST PUSH1 0x0 PUSH32 0x1FFC9A700000000000000000000000000000000000000000000000000000000 PUSH28 0xFFFFFFFFFFFFFFFFFFFFFFFFFFFFFFFFFFFFFFFFFFFFFFFFFFFFFFFF NOT AND DUP3 PUSH28 0xFFFFFFFFFFFFFFFFFFFFFFFFFFFFFFFFFFFFFFFFFFFFFFFFFFFFFFFF NOT AND EQ SWAP1 POP SWAP2 SWAP1 POP JUMP JUMPDEST PUSH1 0x0 DUP1 REVERT JUMPDEST PUSH1 0x0 PUSH32 0xFFFFFFFF00000000000000000000000000000000000000000000000000000000 DUP3 AND SWAP1 POP SWAP2 SWAP1 POP JUMP JUMPDEST PUSH2 0x51EA DUP2 PUSH2 0x51B5 JUMP JUMPDEST DUP2 EQ PUSH2 0x51F5 JUMPI PUSH1 0x0 DUP1 REVERT JUMPDEST POP JUMP JUMPDEST PUSH1 0x0 DUP2 CALLDATALOAD SWAP1 POP PUSH2 0x5207 DUP2 PUSH2 0x51E1 JUMP JUMPDEST SWAP3 SWAP2 POP POP JUMP JUMPDEST PUSH1 0x0 PUSH1 0x20 DUP3 DUP5 SUB SLT ISZERO PUSH2 0x5223 JUMPI PUSH2 0x5222 PUSH2 0x51B0 JUMP JUMPDEST JUMPDEST PUSH1 0x0 PUSH2 0x5231 DUP5 DUP3 DUP6 ADD PUSH2 0x51F8 JUMP JUMPDEST SWAP2 POP POP SWAP3 SWAP2 POP POP JUMP JUMPDEST PUSH1 0x0 DUP2 ISZERO ISZERO SWAP1 POP SWAP2 SWAP1 POP JUMP JUMPDEST PUSH2 0x524F DUP2 PUSH2 0x523A JUMP JUMPDEST DUP3 MSTORE POP POP JUMP JUMPDEST PUSH1 0x0 PUSH1 0x20 DUP3 ADD SWAP1 POP PUSH2 0x526A PUSH1 0x0 DUP4 ADD DUP5 PUSH2 0x5246 JUMP JUMPDEST SWAP3 SWAP2 POP POP JUMP JUMPDEST PUSH1 0x0 DUP2 MLOAD SWAP1 POP SWAP2 SWAP1 POP JUMP JUMPDEST PUSH1 0x0 DUP3 DUP3 MSTORE PUSH1 0x20 DUP3 ADD SWAP1 POP SWAP3 SWAP2 POP POP JUMP JUMPDEST PUSH1 0x0 JUMPDEST DUP4 DUP2 LT ISZERO PUSH2 0x52AA JUMPI DUP1 DUP3 ADD MLOAD DUP2 DUP5 ADD MSTORE PUSH1 0x20 DUP2 ADD SWAP1 POP PUSH2 0x528F JUMP JUMPDEST DUP4 DUP2 GT ISZERO PUSH2 0x52B9 JUMPI PUSH1 0x0 DUP5 DUP5 ADD MSTORE JUMPDEST POP POP POP POP JUMP JUMPDEST PUSH1 0x0 PUSH1 0x1F NOT PUSH1 0x1F DUP4 ADD AND SWAP1 POP SWAP2 SWAP1 POP JUMP JUMPDEST PUSH1 0x0 PUSH2 0x52DB DUP3 PUSH2 0x5270 JUMP JUMPDEST PUSH2 0x52E5 DUP2 DUP6 PUSH2 0x527B JUMP JUMPDEST SWAP4 POP PUSH2 0x52F5 DUP2 DUP6 PUSH1 0x20 DUP7 ADD PUSH2 0x528C JUMP JUMPDEST PUSH2 0x52FE DUP2 PUSH2 0x52BF JUMP JUMPDEST DUP5 ADD SWAP2 POP POP SWAP3 SWAP2 POP POP JUMP JUMPDEST PUSH1 0x0 PUSH1 0x20 DUP3 ADD SWAP1 POP DUP2 DUP2 SUB PUSH1 0x0 DUP4 ADD MSTORE PUSH2 0x5323 DUP2 DUP5 PUSH2 0x52D0 JUMP JUMPDEST SWAP1 POP SWAP3 SWAP2 POP POP JUMP JUMPDEST PUSH1 0x0 PUSH20 0xFFFFFFFFFFFFFFFFFFFFFFFFFFFFFFFFFFFFFFFF DUP3 AND SWAP1 POP SWAP2 SWAP1 POP JUMP JUMPDEST PUSH1 0x0 PUSH2 0x5356 DUP3 PUSH2 0x532B JUMP JUMPDEST SWAP1 POP SWAP2 SWAP1 POP JUMP JUMPDEST PUSH2 0x5366 DUP2 PUSH2 0x534B JUMP JUMPDEST DUP2 EQ PUSH2 0x5371 JUMPI PUSH1 0x0 DUP1 REVERT JUMPDEST POP JUMP JUMPDEST PUSH1 0x0 DUP2 CALLDATALOAD SWAP1 POP PUSH2 0x5383 DUP2 PUSH2 0x535D JUMP JUMPDEST SWAP3 SWAP2 POP POP JUMP JUMPDEST PUSH1 0x0 DUP2 SWAP1 POP SWAP2 SWAP1 POP JUMP JUMPDEST PUSH2 0x539C DUP2 PUSH2 0x5389 JUMP JUMPDEST DUP2 EQ PUSH2 0x53A7 JUMPI PUSH1 0x0 DUP1 REVERT JUMPDEST POP JUMP JUMPDEST PUSH1 0x0 DUP2 CALLDATALOAD SWAP1 POP PUSH2 0x53B9 DUP2 PUSH2 0x5393 JUMP JUMPDEST SWAP3 SWAP2 POP POP JUMP JUMPDEST PUSH1 0x0 DUP1 PUSH1 0x40 DUP4 DUP6 SUB SLT ISZERO PUSH2 0x53D6 JUMPI PUSH2 0x53D5 PUSH2 0x51B0 JUMP JUMPDEST JUMPDEST PUSH1 0x0 PUSH2 0x53E4 DUP6 DUP3 DUP7 ADD PUSH2 0x5374 JUMP JUMPDEST SWAP3 POP POP PUSH1 0x20 PUSH2 0x53F5 DUP6 DUP3 DUP7 ADD PUSH2 0x53AA JUMP JUMPDEST SWAP2 POP POP SWAP3 POP SWAP3 SWAP1 POP JUMP JUMPDEST PUSH2 0x5408 DUP2 PUSH2 0x5389 JUMP JUMPDEST DUP3 MSTORE POP POP JUMP JUMPDEST PUSH1 0x0 PUSH1 0x20 DUP3 ADD SWAP1 POP PUSH2 0x5423 PUSH1 0x0 DUP4 ADD DUP5 PUSH2 0x53FF JUMP JUMPDEST SWAP3 SWAP2 POP POP JUMP JUMPDEST PUSH1 0x0 PUSH1 0x20 DUP3 DUP5 SUB SLT ISZERO PUSH2 0x543F JUMPI PUSH2 0x543E PUSH2 0x51B0 JUMP JUMPDEST JUMPDEST PUSH1 0x0 PUSH2 0x544D DUP5 DUP3 DUP6 ADD PUSH2 0x5374 JUMP JUMPDEST SWAP2 POP POP SWAP3 SWAP2 POP POP JUMP JUMPDEST PUSH1 0x0 DUP2 SWAP1 POP SWAP2 SWAP1 POP JUMP JUMPDEST PUSH2 0x5469 DUP2 PUSH2 0x5456 JUMP JUMPDEST DUP3 MSTORE POP POP JUMP JUMPDEST PUSH1 0x0 PUSH1 0x40 DUP3 ADD SWAP1 POP PUSH2 0x5484 PUSH1 0x0 DUP4 ADD DUP6 PUSH2 0x5460 JUMP JUMPDEST PUSH2 0x5491 PUSH1 0x20 DUP4 ADD DUP5 PUSH2 0x5246 JUMP JUMPDEST SWAP4 SWAP3 POP POP POP JUMP JUMPDEST PUSH1 0x0 DUP1 PUSH1 0x0 PUSH1 0x60 DUP5 DUP7 SUB SLT ISZERO PUSH2 0x54B1 JUMPI PUSH2 0x54B0 PUSH2 0x51B0 JUMP JUMPDEST JUMPDEST PUSH1 0x0 PUSH2 0x54BF DUP7 DUP3 DUP8 ADD PUSH2 0x5374 JUMP JUMPDEST SWAP4 POP POP PUSH1 0x20 PUSH2 0x54D0 DUP7 DUP3 DUP8 ADD PUSH2 0x5374 JUMP JUMPDEST SWAP3 POP POP PUSH1 0x40 PUSH2 0x54E1 DUP7 DUP3 DUP8 ADD PUSH2 0x53AA JUMP JUMPDEST SWAP2 POP POP SWAP3 POP SWAP3 POP SWAP3 JUMP JUMPDEST PUSH1 0x0 DUP1 PUSH1 0x40 DUP4 DUP6 SUB SLT ISZERO PUSH2 0x5502 JUMPI PUSH2 0x5501 PUSH2 0x51B0 JUMP JUMPDEST JUMPDEST PUSH1 0x0 PUSH2 0x5510 DUP6 DUP3 DUP7 ADD PUSH2 0x53AA JUMP JUMPDEST SWAP3 POP POP PUSH1 0x20 PUSH2 0x5521 DUP6 DUP3 DUP7 ADD PUSH2 0x53AA JUMP JUMPDEST SWAP2 POP POP SWAP3 POP SWAP3 SWAP1 POP JUMP JUMPDEST PUSH1 0x0 PUSH1 0xFF DUP3 AND SWAP1 POP SWAP2 SWAP1 POP JUMP JUMPDEST PUSH2 0x5541 DUP2 PUSH2 0x552B JUMP JUMPDEST DUP3 MSTORE POP POP JUMP JUMPDEST PUSH1 0x0 PUSH1 0x20 DUP3 ADD SWAP1 POP PUSH2 0x555C PUSH1 0x0 DUP4 ADD DUP5 PUSH2 0x5538 JUMP JUMPDEST SWAP3 SWAP2 POP POP JUMP JUMPDEST PUSH1 0x0 DUP1 PUSH1 0x0 PUSH1 0x60 DUP5 DUP7 SUB SLT ISZERO PUSH2 0x557B JUMPI PUSH2 0x557A PUSH2 0x51B0 JUMP JUMPDEST JUMPDEST PUSH1 0x0 PUSH2 0x5589 DUP7 DUP3 DUP8 ADD PUSH2 0x5374 JUMP JUMPDEST SWAP4 POP POP PUSH1 0x20 PUSH2 0x559A DUP7 DUP3 DUP8 ADD PUSH2 0x53AA JUMP JUMPDEST SWAP3 POP POP PUSH1 0x40 PUSH2 0x55AB DUP7 DUP3 DUP8 ADD PUSH2 0x53AA JUMP JUMPDEST SWAP2 POP POP SWAP3 POP SWAP3 POP SWAP3 JUMP JUMPDEST PUSH1 0x0 PUSH1 0x20 DUP3 ADD SWAP1 POP PUSH2 0x55CA PUSH1 0x0 DUP4 ADD DUP5 PUSH2 0x5460 JUMP JUMPDEST SWAP3 SWAP2 POP POP JUMP JUMPDEST PUSH2 0x55D9 DUP2 PUSH2 0x534B JUMP JUMPDEST DUP3 MSTORE POP POP JUMP JUMPDEST PUSH1 0x0 PUSH1 0x20 DUP3 ADD SWAP1 POP PUSH2 0x55F4 PUSH1 0x0 DUP4 ADD DUP5 PUSH2 0x55D0 JUMP JUMPDEST SWAP3 SWAP2 POP POP JUMP JUMPDEST PUSH1 0x0 DUP1 PUSH1 0x0 DUP1 PUSH1 0x80 DUP6 DUP8 SUB SLT ISZERO PUSH2 0x5614 JUMPI PUSH2 0x5613 PUSH2 0x51B0 JUMP JUMPDEST JUMPDEST PUSH1 0x0 PUSH2 0x5622 DUP8 DUP3 DUP9 ADD PUSH2 0x5374 JUMP JUMPDEST SWAP5 POP POP PUSH1 0x20 PUSH2 0x5633 DUP8 DUP3 DUP9 ADD PUSH2 0x5374 JUMP JUMPDEST SWAP4 POP POP PUSH1 0x40 PUSH2 0x5644 DUP8 DUP3 DUP9 ADD PUSH2 0x53AA JUMP JUMPDEST SWAP3 POP POP PUSH1 0x60 PUSH2 0x5655 DUP8 DUP3 DUP9 ADD PUSH2 0x53AA JUMP JUMPDEST SWAP2 POP POP SWAP3 SWAP6 SWAP2 SWAP5 POP SWAP3 POP JUMP JUMPDEST PUSH1 0x0 DUP1 PUSH1 0x0 DUP1 PUSH1 0x80 DUP6 DUP8 SUB SLT ISZERO PUSH2 0x567B JUMPI PUSH2 0x567A PUSH2 0x51B0 JUMP JUMPDEST JUMPDEST PUSH1 0x0 PUSH2 0x5689 DUP8 DUP3 DUP9 ADD PUSH2 0x5374 JUMP JUMPDEST SWAP5 POP POP PUSH1 0x20 PUSH2 0x569A DUP8 DUP3 DUP9 ADD PUSH2 0x53AA JUMP JUMPDEST SWAP4 POP POP PUSH1 0x40 PUSH2 0x56AB DUP8 DUP3 DUP9 ADD PUSH2 0x53AA JUMP JUMPDEST SWAP3 POP POP PUSH1 0x60 PUSH2 0x56BC DUP8 DUP3 DUP9 ADD PUSH2 0x53AA JUMP JUMPDEST SWAP2 POP POP SWAP3 SWAP6 SWAP2 SWAP5 POP SWAP3 POP JUMP JUMPDEST PUSH1 0x0 PUSH1 0x40 DUP3 ADD SWAP1 POP PUSH2 0x56DD PUSH1 0x0 DUP4 ADD DUP6 PUSH2 0x53FF JUMP JUMPDEST PUSH2 0x56EA PUSH1 0x20 DUP4 ADD DUP5 PUSH2 0x53FF JUMP JUMPDEST SWAP4 SWAP3 POP POP POP JUMP JUMPDEST PUSH2 0x56FA DUP2 PUSH2 0x5456 JUMP JUMPDEST DUP2 EQ PUSH2 0x5705 JUMPI PUSH1 0x0 DUP1 REVERT JUMPDEST POP JUMP JUMPDEST PUSH1 0x0 DUP2 CALLDATALOAD SWAP1 POP PUSH2 0x5717 DUP2 PUSH2 0x56F1 JUMP JUMPDEST SWAP3 SWAP2 POP POP JUMP JUMPDEST PUSH1 0x0 DUP1 PUSH1 0x40 DUP4 DUP6 SUB SLT ISZERO PUSH2 0x5734 JUMPI PUSH2 0x5733 PUSH2 0x51B0 JUMP JUMPDEST JUMPDEST PUSH1 0x0 PUSH2 0x5742 DUP6 DUP3 DUP7 ADD PUSH2 0x5708 JUMP JUMPDEST SWAP3 POP POP PUSH1 0x20 PUSH2 0x5753 DUP6 DUP3 DUP7 ADD PUSH2 0x5374 JUMP JUMPDEST SWAP2 POP POP SWAP3 POP SWAP3 SWAP1 POP JUMP JUMPDEST PUSH1 0x0 DUP1 PUSH1 0x40 DUP4 DUP6 SUB SLT ISZERO PUSH2 0x5774 JUMPI PUSH2 0x5773 PUSH2 0x51B0 JUMP JUMPDEST JUMPDEST PUSH1 0x0 PUSH2 0x5782 DUP6 DUP3 DUP7 ADD PUSH2 0x5374 JUMP JUMPDEST SWAP3 POP POP PUSH1 0x20 PUSH2 0x5793 DUP6 DUP3 DUP7 ADD PUSH2 0x5374 JUMP JUMPDEST SWAP2 POP POP SWAP3 POP SWAP3 SWAP1 POP JUMP JUMPDEST PUSH1 0x0 DUP1 PUSH1 0x0 PUSH1 0x60 DUP5 DUP7 SUB SLT ISZERO PUSH2 0x57B6 JUMPI PUSH2 0x57B5 PUSH2 0x51B0 JUMP JUMPDEST JUMPDEST PUSH1 0x0 PUSH2 0x57C4 DUP7 DUP3 DUP8 ADD PUSH2 0x5708 JUMP JUMPDEST SWAP4 POP POP PUSH1 0x20 PUSH2 0x57D5 DUP7 DUP3 DUP8 ADD PUSH2 0x5374 JUMP JUMPDEST SWAP3 POP POP PUSH1 0x40 PUSH2 0x57E6 DUP7 DUP3 DUP8 ADD PUSH2 0x5374 JUMP JUMPDEST SWAP2 POP POP SWAP3 POP SWAP3 POP SWAP3 JUMP JUMPDEST PUSH32 0x4E487B7100000000000000000000000000000000000000000000000000000000 PUSH1 0x0 MSTORE PUSH1 0x22 PUSH1 0x4 MSTORE PUSH1 0x24 PUSH1 0x0 REVERT JUMPDEST PUSH1 0x0 PUSH1 0x2 DUP3 DIV SWAP1 POP PUSH1 0x1 DUP3 AND DUP1 PUSH2 0x5837 JUMPI PUSH1 0x7F DUP3 AND SWAP2 POP JUMPDEST PUSH1 0x20 DUP3 LT DUP2 EQ ISZERO PUSH2 0x584B JUMPI PUSH2 0x584A PUSH2 0x57F0 JUMP JUMPDEST JUMPDEST POP SWAP2 SWAP1 POP JUMP JUMPDEST PUSH32 0x4E487B7100000000000000000000000000000000000000000000000000000000 PUSH1 0x0 MSTORE PUSH1 0x11 PUSH1 0x4 MSTORE PUSH1 0x24 PUSH1 0x0 REVERT JUMPDEST PUSH1 0x0 PUSH2 0x588B DUP3 PUSH2 0x5389 JUMP JUMPDEST SWAP2 POP PUSH2 0x5896 DUP4 PUSH2 0x5389 JUMP JUMPDEST SWAP3 POP DUP3 PUSH32 0xFFFFFFFFFFFFFFFFFFFFFFFFFFFFFFFFFFFFFFFFFFFFFFFFFFFFFFFFFFFFFFFF SUB DUP3 GT ISZERO PUSH2 0x58CB JUMPI PUSH2 0x58CA PUSH2 0x5851 JUMP JUMPDEST JUMPDEST DUP3 DUP3 ADD SWAP1 POP SWAP3 SWAP2 POP POP JUMP JUMPDEST PUSH1 0x0 PUSH2 0x58E1 DUP3 PUSH2 0x5389 JUMP JUMPDEST SWAP2 POP PUSH2 0x58EC DUP4 PUSH2 0x5389 JUMP JUMPDEST SWAP3 POP DUP3 DUP3 LT ISZERO PUSH2 0x58FF JUMPI PUSH2 0x58FE PUSH2 0x5851 JUMP JUMPDEST JUMPDEST DUP3 DUP3 SUB SWAP1 POP SWAP3 SWAP2 POP POP JUMP JUMPDEST PUSH1 0x0 PUSH1 0x60 DUP3 ADD SWAP1 POP PUSH2 0x591F PUSH1 0x0 DUP4 ADD DUP7 PUSH2 0x53FF JUMP JUMPDEST PUSH2 0x592C PUSH1 0x20 DUP4 ADD DUP6 PUSH2 0x53FF JUMP JUMPDEST PUSH2 0x5939 PUSH1 0x40 DUP4 ADD DUP5 PUSH2 0x53FF JUMP JUMPDEST SWAP5 SWAP4 POP POP POP POP JUMP INVALID LOG2 PUSH5 0x6970667358 0x22 SLT KECCAK256 0x23 EXP 0xEB PUSH24 0x87C662EB0F1CFE3C878E092AE6C540BECA10AA39C124ECF6 0xF6 PC SELFBALANCE PUSH8 0x64736F6C63430008 EXP STOP CALLER "
		},
		"gasEstimates": {
			"creation": {
				"codeDepositCost": "4580600",
				"executionCost": "infinite",
				"totalCost": "infinite"
			},
			"external": {
				"": "242",
				"ADMIN_ROLE()": "484",
				"AUDIO_VIDEO_PRODUCTIONS_WALLET_ADDRESS()": "533",
				"BOUNTY_PROGRAMS_WALLET_ADDRESS()": "445",
				"BURNABLE_ROLE()": "441",
				"CHARITY_WALLET_ADDRESS()": "444",
				"CONSENSUS_ROLE()": "439",
				"FOUNDING_TEAM_WALLET_ADDRESS()": "489",
				"PUBLIC_SALE_WALLET_ADDRESS()": "423",
				"RESERVES_WALLET_ADDRESS()": "466",
				"_roles(address)": "5217",
				"_test(address)": "2859",
				"allowance(address,address)": "infinite",
				"approve(address,uint256)": "infinite",
				"approveFromWallet(address,address,uint256,uint256)": "infinite",
				"approveSec(address,uint256,uint256)": "infinite",
				"balanceOf(address)": "2974",
				"burnFrom(address,uint256,uint256,uint256)": "infinite",
				"decimals()": "455",
				"decreaseAllowanceSec(address,uint256,uint256)": "infinite",
				"firstInitializeConsensusRole(address)": "infinite",
				"freeze(uint256,uint256)": "infinite",
				"freezeFrom(address,uint256,uint256)": "infinite",
				"freezeOf(address)": "2930",
				"grantRole(bytes32,address,address)": "infinite",
				"hasRole(bytes32,address)": "7444",
				"increaseAllowanceSec(address,uint256,uint256)": "infinite",
				"mint(address,uint256,uint256,uint256)": "infinite",
				"name()": "infinite",
				"pause(address)": "infinite",
				"pauseAll()": "32295",
				"paused()": "2546",
				"pausedOf(address)": "3039",
				"revokeRole(bytes32,address)": "infinite",
				"supportsInterface(bytes4)": "1271",
				"symbol()": "infinite",
				"totalSupply()": "2550",
				"transfer(address,uint256)": "infinite",
				"transferFrom(address,address,uint256)": "infinite",
				"transferFromSec(address,address,uint256)": "infinite",
				"transferFromWallet(address,address,uint256)": "infinite",
				"unfreeze(uint256,uint256)": "infinite",
				"unfreezeFrom(address,uint256,uint256)": "infinite",
				"unpause(address)": "infinite",
				"unpauseAll()": "32273",
				"withdrawContractBalance(address)": "infinite"
			},
			"internal": {
				"_approve(address,address,uint256)": "infinite",
				"_freeze(address,uint256,uint256)": "infinite",
				"_transfer(address,address,uint256)": "infinite",
				"_unfreeze(address,uint256,uint256)": "infinite"
			}
		},
		"methodIdentifiers": {
			"ADMIN_ROLE()": "75b238fc",
			"AUDIO_VIDEO_PRODUCTIONS_WALLET_ADDRESS()": "be5f15fc",
			"BOUNTY_PROGRAMS_WALLET_ADDRESS()": "cc42aa17",
			"BURNABLE_ROLE()": "58214c8e",
			"CHARITY_WALLET_ADDRESS()": "e8ec1ac3",
			"CONSENSUS_ROLE()": "fa2dabad",
			"FOUNDING_TEAM_WALLET_ADDRESS()": "ce74f57c",
			"PUBLIC_SALE_WALLET_ADDRESS()": "5ba27e25",
			"RESERVES_WALLET_ADDRESS()": "f98df5ca",
			"_roles(address)": "20853239",
			"_test(address)": "c9a6b175",
			"allowance(address,address)": "dd62ed3e",
			"approve(address,uint256)": "095ea7b3",
			"approveFromWallet(address,address,uint256,uint256)": "64e7524d",
			"approveSec(address,uint256,uint256)": "4a42549a",
			"balanceOf(address)": "70a08231",
			"burnFrom(address,uint256,uint256,uint256)": "8e663352",
			"decimals()": "313ce567",
			"decreaseAllowanceSec(address,uint256,uint256)": "681d6774",
			"firstInitializeConsensusRole(address)": "813b705c",
			"freeze(uint256,uint256)": "35d7a052",
			"freezeFrom(address,uint256,uint256)": "fdf021fb",
			"freezeOf(address)": "cd4217c1",
			"grantRole(bytes32,address,address)": "feebcf19",
			"hasRole(bytes32,address)": "91d14854",
			"increaseAllowanceSec(address,uint256,uint256)": "e0cb990a",
			"mint(address,uint256,uint256,uint256)": "a647e8ec",
			"name()": "06fdde03",
			"pause(address)": "76a67a51",
			"pauseAll()": "595c6a67",
			"paused()": "5c975abb",
			"pausedOf(address)": "48e36e5d",
			"revokeRole(bytes32,address)": "d547741f",
			"supportsInterface(bytes4)": "01ffc9a7",
			"symbol()": "95d89b41",
			"totalSupply()": "18160ddd",
			"transfer(address,uint256)": "a9059cbb",
			"transferFrom(address,address,uint256)": "23b872dd",
			"transferFromSec(address,address,uint256)": "790aa4a3",
			"transferFromWallet(address,address,uint256)": "3138155e",
			"unfreeze(uint256,uint256)": "24a0dbf7",
			"unfreezeFrom(address,uint256,uint256)": "b8dbf687",
			"unpause(address)": "57b001f9",
			"unpauseAll()": "8a2ddd03",
			"withdrawContractBalance(address)": "57fbb9df"
		}
	},
	"abi": [
		{
			"inputs": [],
			"stateMutability": "nonpayable",
			"type": "constructor"
		},
		{
			"inputs": [
				{
					"internalType": "address",
					"name": "account",
					"type": "address"
				}
			],
			"name": "AddressNotFoundError",
			"type": "error"
		},
		{
			"inputs": [
				{
					"internalType": "address",
					"name": "account",
					"type": "address"
				}
			],
			"name": "ForbiddenError",
			"type": "error"
		},
		{
			"inputs": [
				{
					"internalType": "address",
					"name": "account",
					"type": "address"
				}
			],
			"name": "IllegalAddressError",
			"type": "error"
		},
		{
			"inputs": [],
			"name": "IllegalAllowanceError",
			"type": "error"
		},
		{
			"inputs": [],
			"name": "IllegalArgumentError",
			"type": "error"
		},
		{
			"inputs": [],
			"name": "IllegalBalanceError",
			"type": "error"
		},
		{
			"inputs": [],
			"name": "IllegalRoleError",
			"type": "error"
		},
		{
			"inputs": [],
			"name": "IllegalTotalSupplyError",
			"type": "error"
		},
		{
			"inputs": [],
			"name": "IllegalWalletAddressError",
			"type": "error"
		},
		{
			"inputs": [
				{
					"internalType": "address",
					"name": "account",
					"type": "address"
				}
			],
			"name": "UnauthorizedError",
			"type": "error"
		},
		{
			"anonymous": false,
			"inputs": [
				{
					"indexed": true,
					"internalType": "address",
					"name": "owner",
					"type": "address"
				},
				{
					"indexed": true,
					"internalType": "address",
					"name": "spender",
					"type": "address"
				},
				{
					"indexed": false,
					"internalType": "uint256",
					"name": "value",
					"type": "uint256"
				}
			],
			"name": "Approval",
			"type": "event"
		},
		{
			"anonymous": false,
			"inputs": [
				{
					"indexed": true,
					"internalType": "address",
					"name": "owner",
					"type": "address"
				},
				{
					"indexed": true,
					"internalType": "address",
					"name": "spender",
					"type": "address"
				},
				{
					"indexed": false,
					"internalType": "uint256",
					"name": "currentAllowance",
					"type": "uint256"
				},
				{
					"indexed": false,
					"internalType": "uint256",
					"name": "value",
					"type": "uint256"
				}
			],
			"name": "ApprovalFromWallet",
			"type": "event"
		},
		{
			"anonymous": false,
			"inputs": [
				{
					"indexed": true,
					"internalType": "address",
					"name": "owner",
					"type": "address"
				},
				{
					"indexed": true,
					"internalType": "address",
					"name": "spender",
					"type": "address"
				},
				{
					"indexed": false,
					"internalType": "uint256",
					"name": "oldAllowance",
					"type": "uint256"
				},
				{
					"indexed": false,
					"internalType": "uint256",
					"name": "value",
					"type": "uint256"
				}
			],
			"name": "ApprovalSec",
			"type": "event"
		},
		{
			"anonymous": false,
			"inputs": [
				{
					"indexed": true,
					"internalType": "address",
					"name": "from",
					"type": "address"
				},
				{
					"indexed": true,
					"internalType": "address",
					"name": "account",
					"type": "address"
				},
				{
					"indexed": false,
					"internalType": "uint256",
					"name": "oldBalance",
					"type": "uint256"
				},
				{
					"indexed": false,
					"internalType": "uint256",
					"name": "oldTotalSupply",
					"type": "uint256"
				},
				{
					"indexed": false,
					"internalType": "uint256",
					"name": "amount",
					"type": "uint256"
				}
			],
			"name": "BurnFrom",
			"type": "event"
		},
		{
			"anonymous": false,
			"inputs": [
				{
					"indexed": true,
					"internalType": "address",
					"name": "sender",
					"type": "address"
				},
				{
					"indexed": false,
					"internalType": "uint256",
					"name": "oldFreeze",
					"type": "uint256"
				},
				{
					"indexed": false,
					"internalType": "uint256",
					"name": "amount",
					"type": "uint256"
				}
			],
			"name": "Freeze",
			"type": "event"
		},
		{
			"anonymous": false,
			"inputs": [
				{
					"indexed": true,
					"internalType": "address",
					"name": "sender",
					"type": "address"
				},
				{
					"indexed": true,
					"internalType": "address",
					"name": "account",
					"type": "address"
				},
				{
					"indexed": false,
					"internalType": "uint256",
					"name": "oldFreeze",
					"type": "uint256"
				},
				{
					"indexed": false,
					"internalType": "uint256",
					"name": "amount",
					"type": "uint256"
				}
			],
			"name": "FreezeFrom",
			"type": "event"
		},
		{
			"anonymous": false,
			"inputs": [
				{
					"indexed": true,
					"internalType": "address",
					"name": "sender",
					"type": "address"
				},
				{
					"indexed": true,
					"internalType": "address",
					"name": "account",
					"type": "address"
				},
				{
					"indexed": false,
					"internalType": "uint256",
					"name": "amount",
					"type": "uint256"
				}
			],
			"name": "Mint",
			"type": "event"
		},
		{
			"anonymous": false,
			"inputs": [
				{
					"indexed": true,
					"internalType": "address",
					"name": "sender",
					"type": "address"
				},
				{
					"indexed": true,
					"internalType": "address",
					"name": "account",
					"type": "address"
				}
			],
			"name": "Paused",
			"type": "event"
		},
		{
			"anonymous": false,
			"inputs": [
				{
					"indexed": true,
					"internalType": "address",
					"name": "sender",
					"type": "address"
				}
			],
			"name": "PausedAll",
			"type": "event"
		},
		{
			"anonymous": false,
			"inputs": [
				{
					"indexed": true,
					"internalType": "bytes32",
					"name": "role",
					"type": "bytes32"
				},
				{
					"indexed": true,
					"internalType": "address",
					"name": "sender",
					"type": "address"
				},
				{
					"indexed": true,
					"internalType": "address",
					"name": "newAccount",
					"type": "address"
				},
				{
					"indexed": false,
					"internalType": "address",
					"name": "oldAccount",
					"type": "address"
				}
			],
			"name": "RoleGranted",
			"type": "event"
		},
		{
			"anonymous": false,
			"inputs": [
				{
					"indexed": true,
					"internalType": "bytes32",
					"name": "role",
					"type": "bytes32"
				},
				{
					"indexed": true,
					"internalType": "address",
					"name": "sender",
					"type": "address"
				},
				{
					"indexed": true,
					"internalType": "address",
					"name": "account",
					"type": "address"
				}
			],
			"name": "RoleRevoked",
			"type": "event"
		},
		{
			"anonymous": false,
			"inputs": [
				{
					"indexed": true,
					"internalType": "address",
					"name": "from",
					"type": "address"
				},
				{
					"indexed": true,
					"internalType": "address",
					"name": "to",
					"type": "address"
				},
				{
					"indexed": false,
					"internalType": "uint256",
					"name": "value",
					"type": "uint256"
				}
			],
			"name": "Transfer",
			"type": "event"
		},
		{
			"anonymous": false,
			"inputs": [
				{
					"indexed": true,
					"internalType": "address",
					"name": "spender",
					"type": "address"
				},
				{
					"indexed": true,
					"internalType": "address",
					"name": "from",
					"type": "address"
				},
				{
					"indexed": true,
					"internalType": "address",
					"name": "to",
					"type": "address"
				},
				{
					"indexed": false,
					"internalType": "uint256",
					"name": "value",
					"type": "uint256"
				}
			],
			"name": "TransferFromSec",
			"type": "event"
		},
		{
			"anonymous": false,
			"inputs": [
				{
					"indexed": true,
					"internalType": "address",
					"name": "sender",
					"type": "address"
				},
				{
					"indexed": true,
					"internalType": "address",
					"name": "from",
					"type": "address"
				},
				{
					"indexed": true,
					"internalType": "address",
					"name": "to",
					"type": "address"
				},
				{
					"indexed": false,
					"internalType": "uint256",
					"name": "value",
					"type": "uint256"
				}
			],
			"name": "TransferFromWallet",
			"type": "event"
		},
		{
			"anonymous": false,
			"inputs": [
				{
					"indexed": true,
					"internalType": "address",
					"name": "sender",
					"type": "address"
				},
				{
					"indexed": false,
					"internalType": "uint256",
					"name": "oldFreeze",
					"type": "uint256"
				},
				{
					"indexed": false,
					"internalType": "uint256",
					"name": "amount",
					"type": "uint256"
				}
			],
			"name": "Unfreeze",
			"type": "event"
		},
		{
			"anonymous": false,
			"inputs": [
				{
					"indexed": true,
					"internalType": "address",
					"name": "sender",
					"type": "address"
				},
				{
					"indexed": true,
					"internalType": "address",
					"name": "account",
					"type": "address"
				},
				{
					"indexed": false,
					"internalType": "uint256",
					"name": "oldFreeze",
					"type": "uint256"
				},
				{
					"indexed": false,
					"internalType": "uint256",
					"name": "amount",
					"type": "uint256"
				}
			],
			"name": "UnfreezeFrom",
			"type": "event"
		},
		{
			"anonymous": false,
			"inputs": [
				{
					"indexed": true,
					"internalType": "address",
					"name": "sender",
					"type": "address"
				},
				{
					"indexed": true,
					"internalType": "address",
					"name": "account",
					"type": "address"
				}
			],
			"name": "Unpaused",
			"type": "event"
		},
		{
			"anonymous": false,
			"inputs": [
				{
					"indexed": true,
					"internalType": "address",
					"name": "sender",
					"type": "address"
				}
			],
			"name": "UnpausedAll",
			"type": "event"
		},
		{
			"stateMutability": "payable",
			"type": "fallback"
		},
		{
			"inputs": [],
			"name": "ADMIN_ROLE",
			"outputs": [
				{
					"internalType": "bytes32",
					"name": "",
					"type": "bytes32"
				}
			],
			"stateMutability": "view",
			"type": "function"
		},
		{
			"inputs": [],
			"name": "AUDIO_VIDEO_PRODUCTIONS_WALLET_ADDRESS",
			"outputs": [
				{
					"internalType": "address",
					"name": "",
					"type": "address"
				}
			],
			"stateMutability": "view",
			"type": "function"
		},
		{
			"inputs": [],
			"name": "BOUNTY_PROGRAMS_WALLET_ADDRESS",
			"outputs": [
				{
					"internalType": "address",
					"name": "",
					"type": "address"
				}
			],
			"stateMutability": "view",
			"type": "function"
		},
		{
			"inputs": [],
			"name": "BURNABLE_ROLE",
			"outputs": [
				{
					"internalType": "bytes32",
					"name": "",
					"type": "bytes32"
				}
			],
			"stateMutability": "view",
			"type": "function"
		},
		{
			"inputs": [],
			"name": "CHARITY_WALLET_ADDRESS",
			"outputs": [
				{
					"internalType": "address",
					"name": "",
					"type": "address"
				}
			],
			"stateMutability": "view",
			"type": "function"
		},
		{
			"inputs": [],
			"name": "CONSENSUS_ROLE",
			"outputs": [
				{
					"internalType": "bytes32",
					"name": "",
					"type": "bytes32"
				}
			],
			"stateMutability": "view",
			"type": "function"
		},
		{
			"inputs": [],
			"name": "FOUNDING_TEAM_WALLET_ADDRESS",
			"outputs": [
				{
					"internalType": "address",
					"name": "",
					"type": "address"
				}
			],
			"stateMutability": "view",
			"type": "function"
		},
		{
			"inputs": [],
			"name": "PUBLIC_SALE_WALLET_ADDRESS",
			"outputs": [
				{
					"internalType": "address",
					"name": "",
					"type": "address"
				}
			],
			"stateMutability": "view",
			"type": "function"
		},
		{
			"inputs": [],
			"name": "RESERVES_WALLET_ADDRESS",
			"outputs": [
				{
					"internalType": "address",
					"name": "",
					"type": "address"
				}
			],
			"stateMutability": "view",
			"type": "function"
		},
		{
			"inputs": [
				{
					"internalType": "address",
					"name": "",
					"type": "address"
				}
			],
			"name": "_roles",
			"outputs": [
				{
					"internalType": "bytes32",
					"name": "name",
					"type": "bytes32"
				},
				{
					"internalType": "bool",
					"name": "isEnabled",
					"type": "bool"
				}
			],
			"stateMutability": "view",
			"type": "function"
		},
		{
			"inputs": [
				{
					"internalType": "address",
					"name": "",
					"type": "address"
				}
			],
			"name": "_test",
			"outputs": [
				{
					"internalType": "bytes32",
					"name": "",
					"type": "bytes32"
				}
			],
			"stateMutability": "view",
			"type": "function"
		},
		{
			"inputs": [
				{
					"internalType": "address",
					"name": "owner",
					"type": "address"
				},
				{
					"internalType": "address",
					"name": "spender",
					"type": "address"
				}
			],
			"name": "allowance",
			"outputs": [
				{
					"internalType": "uint256",
					"name": "",
					"type": "uint256"
				}
			],
			"stateMutability": "view",
			"type": "function"
		},
		{
			"inputs": [
				{
					"internalType": "address",
					"name": "spender",
					"type": "address"
				},
				{
					"internalType": "uint256",
					"name": "amount",
					"type": "uint256"
				}
			],
			"name": "approve",
			"outputs": [
				{
					"internalType": "bool",
					"name": "",
					"type": "bool"
				}
			],
			"stateMutability": "nonpayable",
			"type": "function"
		},
		{
			"inputs": [
				{
					"internalType": "address",
					"name": "walletAccount",
					"type": "address"
				},
				{
					"internalType": "address",
					"name": "spender",
					"type": "address"
				},
				{
					"internalType": "uint256",
					"name": "currentAllowance",
					"type": "uint256"
				},
				{
					"internalType": "uint256",
					"name": "amount",
					"type": "uint256"
				}
			],
			"name": "approveFromWallet",
			"outputs": [
				{
					"internalType": "bool",
					"name": "",
					"type": "bool"
				}
			],
			"stateMutability": "nonpayable",
			"type": "function"
		},
		{
			"inputs": [
				{
					"internalType": "address",
					"name": "spender",
					"type": "address"
				},
				{
					"internalType": "uint256",
					"name": "currentAllowance",
					"type": "uint256"
				},
				{
					"internalType": "uint256",
					"name": "amount",
					"type": "uint256"
				}
			],
			"name": "approveSec",
			"outputs": [
				{
					"internalType": "bool",
					"name": "success",
					"type": "bool"
				}
			],
			"stateMutability": "nonpayable",
			"type": "function"
		},
		{
			"inputs": [
				{
					"internalType": "address",
					"name": "account",
					"type": "address"
				}
			],
			"name": "balanceOf",
			"outputs": [
				{
					"internalType": "uint256",
					"name": "",
					"type": "uint256"
				}
			],
			"stateMutability": "view",
			"type": "function"
		},
		{
			"inputs": [
				{
					"internalType": "address",
					"name": "account",
					"type": "address"
				},
				{
					"internalType": "uint256",
					"name": "currentBalance",
					"type": "uint256"
				},
				{
					"internalType": "uint256",
					"name": "currentTotalSupply",
					"type": "uint256"
				},
				{
					"internalType": "uint256",
					"name": "amount",
					"type": "uint256"
				}
			],
			"name": "burnFrom",
			"outputs": [
				{
					"internalType": "uint256",
					"name": "newBalance",
					"type": "uint256"
				},
				{
					"internalType": "uint256",
					"name": "",
					"type": "uint256"
				}
			],
			"stateMutability": "nonpayable",
			"type": "function"
		},
		{
			"inputs": [],
			"name": "decimals",
			"outputs": [
				{
					"internalType": "uint8",
					"name": "",
					"type": "uint8"
				}
			],
			"stateMutability": "pure",
			"type": "function"
		},
		{
			"inputs": [
				{
					"internalType": "address",
					"name": "spender",
					"type": "address"
				},
				{
					"internalType": "uint256",
					"name": "currentAllowance",
					"type": "uint256"
				},
				{
					"internalType": "uint256",
					"name": "value",
					"type": "uint256"
				}
			],
			"name": "decreaseAllowanceSec",
			"outputs": [
				{
					"internalType": "bool",
					"name": "",
					"type": "bool"
				}
			],
			"stateMutability": "nonpayable",
			"type": "function"
		},
		{
			"inputs": [
				{
					"internalType": "address",
					"name": "account",
					"type": "address"
				}
			],
			"name": "firstInitializeConsensusRole",
			"outputs": [],
			"stateMutability": "nonpayable",
			"type": "function"
		},
		{
			"inputs": [
				{
					"internalType": "uint256",
					"name": "currentFreezeBalance",
					"type": "uint256"
				},
				{
					"internalType": "uint256",
					"name": "amount",
					"type": "uint256"
				}
			],
			"name": "freeze",
			"outputs": [
				{
					"internalType": "uint256",
					"name": "newFreezeBalance",
					"type": "uint256"
				}
			],
			"stateMutability": "nonpayable",
			"type": "function"
		},
		{
			"inputs": [
				{
					"internalType": "address",
					"name": "account",
					"type": "address"
				},
				{
					"internalType": "uint256",
					"name": "currentFreezeBalance",
					"type": "uint256"
				},
				{
					"internalType": "uint256",
					"name": "amount",
					"type": "uint256"
				}
			],
			"name": "freezeFrom",
			"outputs": [
				{
					"internalType": "uint256",
					"name": "newFreezeBalance",
					"type": "uint256"
				}
			],
			"stateMutability": "nonpayable",
			"type": "function"
		},
		{
			"inputs": [
				{
					"internalType": "address",
					"name": "account",
					"type": "address"
				}
			],
			"name": "freezeOf",
			"outputs": [
				{
					"internalType": "uint256",
					"name": "",
					"type": "uint256"
				}
			],
			"stateMutability": "view",
			"type": "function"
		},
		{
			"inputs": [
				{
					"internalType": "bytes32",
					"name": "role",
					"type": "bytes32"
				},
				{
					"internalType": "address",
					"name": "currentAccount",
					"type": "address"
				},
				{
					"internalType": "address",
					"name": "newAccount",
					"type": "address"
				}
			],
			"name": "grantRole",
			"outputs": [],
			"stateMutability": "nonpayable",
			"type": "function"
		},
		{
			"inputs": [
				{
					"internalType": "bytes32",
					"name": "role",
					"type": "bytes32"
				},
				{
					"internalType": "address",
					"name": "account",
					"type": "address"
				}
			],
			"name": "hasRole",
			"outputs": [
				{
					"internalType": "bool",
					"name": "",
					"type": "bool"
				}
			],
			"stateMutability": "view",
			"type": "function"
		},
		{
			"inputs": [
				{
					"internalType": "address",
					"name": "spender",
					"type": "address"
				},
				{
					"internalType": "uint256",
					"name": "currentAllowance",
					"type": "uint256"
				},
				{
					"internalType": "uint256",
					"name": "value",
					"type": "uint256"
				}
			],
			"name": "increaseAllowanceSec",
			"outputs": [
				{
					"internalType": "bool",
					"name": "",
					"type": "bool"
				}
			],
			"stateMutability": "nonpayable",
			"type": "function"
		},
		{
			"inputs": [
				{
					"internalType": "address",
					"name": "account",
					"type": "address"
				},
				{
					"internalType": "uint256",
					"name": "currentAccountBalance",
					"type": "uint256"
				},
				{
					"internalType": "uint256",
					"name": "currentTotalSupply",
					"type": "uint256"
				},
				{
					"internalType": "uint256",
					"name": "amount",
					"type": "uint256"
				}
			],
			"name": "mint",
			"outputs": [],
			"stateMutability": "nonpayable",
			"type": "function"
		},
		{
			"inputs": [],
			"name": "name",
			"outputs": [
				{
					"internalType": "string",
					"name": "",
					"type": "string"
				}
			],
			"stateMutability": "view",
			"type": "function"
		},
		{
			"inputs": [
				{
					"internalType": "address",
					"name": "account",
					"type": "address"
				}
			],
			"name": "pause",
			"outputs": [],
			"stateMutability": "nonpayable",
			"type": "function"
		},
		{
			"inputs": [],
			"name": "pauseAll",
			"outputs": [],
			"stateMutability": "nonpayable",
			"type": "function"
		},
		{
			"inputs": [],
			"name": "paused",
			"outputs": [
				{
					"internalType": "bool",
					"name": "",
					"type": "bool"
				}
			],
			"stateMutability": "view",
			"type": "function"
		},
		{
			"inputs": [
				{
					"internalType": "address",
					"name": "account",
					"type": "address"
				}
			],
			"name": "pausedOf",
			"outputs": [
				{
					"internalType": "bool",
					"name": "",
					"type": "bool"
				}
			],
			"stateMutability": "view",
			"type": "function"
		},
		{
			"inputs": [
				{
					"internalType": "bytes32",
					"name": "role",
					"type": "bytes32"
				},
				{
					"internalType": "address",
					"name": "account",
					"type": "address"
				}
			],
			"name": "revokeRole",
			"outputs": [],
			"stateMutability": "nonpayable",
			"type": "function"
		},
		{
			"inputs": [
				{
					"internalType": "bytes4",
					"name": "interfaceId",
					"type": "bytes4"
				}
			],
			"name": "supportsInterface",
			"outputs": [
				{
					"internalType": "bool",
					"name": "",
					"type": "bool"
				}
			],
			"stateMutability": "view",
			"type": "function"
		},
		{
			"inputs": [],
			"name": "symbol",
			"outputs": [
				{
					"internalType": "string",
					"name": "",
					"type": "string"
				}
			],
			"stateMutability": "view",
			"type": "function"
		},
		{
			"inputs": [],
			"name": "totalSupply",
			"outputs": [
				{
					"internalType": "uint256",
					"name": "",
					"type": "uint256"
				}
			],
			"stateMutability": "view",
			"type": "function"
		},
		{
			"inputs": [
				{
					"internalType": "address",
					"name": "recipient",
					"type": "address"
				},
				{
					"internalType": "uint256",
					"name": "amount",
					"type": "uint256"
				}
			],
			"name": "transfer",
			"outputs": [
				{
					"internalType": "bool",
					"name": "",
					"type": "bool"
				}
			],
			"stateMutability": "nonpayable",
			"type": "function"
		},
		{
			"inputs": [
				{
					"internalType": "address",
					"name": "sender",
					"type": "address"
				},
				{
					"internalType": "address",
					"name": "recipient",
					"type": "address"
				},
				{
					"internalType": "uint256",
					"name": "amount",
					"type": "uint256"
				}
			],
			"name": "transferFrom",
			"outputs": [
				{
					"internalType": "bool",
					"name": "",
					"type": "bool"
				}
			],
			"stateMutability": "nonpayable",
			"type": "function"
		},
		{
			"inputs": [
				{
					"internalType": "address",
					"name": "sender",
					"type": "address"
				},
				{
					"internalType": "address",
					"name": "recipient",
					"type": "address"
				},
				{
					"internalType": "uint256",
					"name": "amount",
					"type": "uint256"
				}
			],
			"name": "transferFromSec",
			"outputs": [
				{
					"internalType": "bool",
					"name": "",
					"type": "bool"
				}
			],
			"stateMutability": "nonpayable",
			"type": "function"
		},
		{
			"inputs": [
				{
					"internalType": "address",
					"name": "walletAccount",
					"type": "address"
				},
				{
					"internalType": "address",
					"name": "recipient",
					"type": "address"
				},
				{
					"internalType": "uint256",
					"name": "amount",
					"type": "uint256"
				}
			],
			"name": "transferFromWallet",
			"outputs": [
				{
					"internalType": "bool",
					"name": "",
					"type": "bool"
				}
			],
			"stateMutability": "nonpayable",
			"type": "function"
		},
		{
			"inputs": [
				{
					"internalType": "uint256",
					"name": "currentFreezeBalance",
					"type": "uint256"
				},
				{
					"internalType": "uint256",
					"name": "amount",
					"type": "uint256"
				}
			],
			"name": "unfreeze",
			"outputs": [
				{
					"internalType": "uint256",
					"name": "newFreezeBalance",
					"type": "uint256"
				}
			],
			"stateMutability": "nonpayable",
			"type": "function"
		},
		{
			"inputs": [
				{
					"internalType": "address",
					"name": "account",
					"type": "address"
				},
				{
					"internalType": "uint256",
					"name": "currentFreezeBalance",
					"type": "uint256"
				},
				{
					"internalType": "uint256",
					"name": "amount",
					"type": "uint256"
				}
			],
			"name": "unfreezeFrom",
			"outputs": [
				{
					"internalType": "uint256",
					"name": "newFreezeBalance",
					"type": "uint256"
				}
			],
			"stateMutability": "nonpayable",
			"type": "function"
		},
		{
			"inputs": [
				{
					"internalType": "address",
					"name": "account",
					"type": "address"
				}
			],
			"name": "unpause",
			"outputs": [],
			"stateMutability": "nonpayable",
			"type": "function"
		},
		{
			"inputs": [],
			"name": "unpauseAll",
			"outputs": [],
			"stateMutability": "nonpayable",
			"type": "function"
		},
		{
			"inputs": [
				{
					"internalType": "address",
					"name": "recepient",
					"type": "address"
				}
			],
			"name": "withdrawContractBalance",
			"outputs": [],
			"stateMutability": "nonpayable",
			"type": "function"
		},
		{
			"stateMutability": "payable",
			"type": "receive"
		}
	]
}